{"abi":[{"inputs":[],"name":"createLand","outputs":[],"stateMutability":"nonpayable","type":"function"},{"inputs":[{"internalType":"uint256","name":"","type":"uint256"}],"name":"deployedLands","outputs":[{"internalType":"address","name":"","type":"address"}],"stateMutability":"view","type":"function"},{"inputs":[],"name":"getDeployedLands","outputs":[{"internalType":"address[]","name":"","type":"address[]"}],"stateMutability":"view","type":"function"}],"devdoc":{"kind":"dev","methods":{},"version":1},"evm":{"assembly":"    /* \"Landder\":25:325  contract Landder{... */\n  mstore(0x40, 0x80)\n  callvalue\n  dup1\n  iszero\n  tag_1\n  jumpi\n  0x00\n  dup1\n  revert\ntag_1:\n  pop\n  dataSize(sub_0)\n  dup1\n  dataOffset(sub_0)\n  0x00\n  codecopy\n  0x00\n  return\nstop\n\nsub_0: assembly {\n        /* \"Landder\":25:325  contract Landder{... */\n      mstore(0x40, 0x80)\n      callvalue\n      dup1\n      iszero\n      tag_1\n      jumpi\n      0x00\n      dup1\n      revert\n    tag_1:\n      pop\n      jumpi(tag_2, lt(calldatasize, 0x04))\n      shr(0xe0, calldataload(0x00))\n      dup1\n      0x29abdd99\n      eq\n      tag_3\n      jumpi\n      dup1\n      0x9381230e\n      eq\n      tag_4\n      jumpi\n      dup1\n      0xdf7b3dbb\n      eq\n      tag_5\n      jumpi\n    tag_2:\n      0x00\n      dup1\n      revert\n        /* \"Landder\":84:213  function createLand() public{... */\n    tag_3:\n      tag_6\n      tag_7\n      jump\t// in\n    tag_6:\n      stop\n        /* \"Landder\":47:77  address[] public deployedLands */\n    tag_4:\n      tag_8\n      0x04\n      dup1\n      calldatasize\n      sub\n      dup2\n      add\n      swap1\n      tag_9\n      swap2\n      swap1\n      tag_10\n      jump\t// in\n    tag_9:\n      tag_11\n      jump\t// in\n    tag_8:\n      mload(0x40)\n      tag_12\n      swap2\n      swap1\n      tag_13\n      jump\t// in\n    tag_12:\n      mload(0x40)\n      dup1\n      swap2\n      sub\n      swap1\n      return\n        /* \"Landder\":219:322  function getDeployedLands() public view returns(address[] memory){... */\n    tag_5:\n      tag_14\n      tag_15\n      jump\t// in\n    tag_14:\n      mload(0x40)\n      tag_16\n      swap2\n      swap1\n      tag_17\n      jump\t// in\n    tag_16:\n      mload(0x40)\n      dup1\n      swap2\n      sub\n      swap1\n      return\n        /* \"Landder\":84:213  function createLand() public{... */\n    tag_7:\n        /* \"Landder\":122:137  address newLand */\n      0x00\n        /* \"Landder\":157:167  msg.sender */\n      caller\n        /* \"Landder\":148:168  new Land(msg.sender) */\n      mload(0x40)\n      tag_19\n      swap1\n      tag_20\n      jump\t// in\n    tag_19:\n      tag_21\n      swap2\n      swap1\n      tag_13\n      jump\t// in\n    tag_21:\n      mload(0x40)\n      dup1\n      swap2\n      sub\n      swap1\n      0x00\n      create\n      dup1\n      iszero\n      dup1\n      iszero\n      tag_22\n      jumpi\n      returndatasize\n      0x00\n      dup1\n      returndatacopy\n      revert(0x00, returndatasize)\n    tag_22:\n      pop\n        /* \"Landder\":122:169  address newLand = address(new Land(msg.sender)) */\n      swap1\n      pop\n        /* \"Landder\":179:192  deployedLands */\n      0x00\n        /* \"Landder\":198:205  newLand */\n      dup2\n        /* \"Landder\":179:206  deployedLands.push(newLand) */\n      swap1\n      dup1\n      0x01\n      dup2\n      sload\n      add\n      dup1\n      dup3\n      sstore\n      dup1\n      swap2\n      pop\n      pop\n      0x01\n      swap1\n      sub\n      swap1\n      0x00\n      mstore\n      keccak256(0x00, 0x20)\n      add\n      0x00\n      swap1\n      swap2\n      swap1\n      swap2\n      swap1\n      swap2\n      0x0100\n      exp\n      dup2\n      sload\n      dup2\n      0xffffffffffffffffffffffffffffffffffffffff\n      mul\n      not\n      and\n      swap1\n      dup4\n      0xffffffffffffffffffffffffffffffffffffffff\n      and\n      mul\n      or\n      swap1\n      sstore\n      pop\n        /* \"Landder\":112:213  {... */\n      pop\n        /* \"Landder\":84:213  function createLand() public{... */\n      jump\t// out\n        /* \"Landder\":47:77  address[] public deployedLands */\n    tag_11:\n      0x00\n      dup2\n      dup2\n      sload\n      dup2\n      lt\n      tag_24\n      jumpi\n      0x00\n      dup1\n      revert\n    tag_24:\n      swap1\n      0x00\n      mstore\n      keccak256(0x00, 0x20)\n      add\n      0x00\n      swap2\n      pop\n      sload\n      swap1\n      0x0100\n      exp\n      swap1\n      div\n      0xffffffffffffffffffffffffffffffffffffffff\n      and\n      dup2\n      jump\t// out\n        /* \"Landder\":219:322  function getDeployedLands() public view returns(address[] memory){... */\n    tag_15:\n        /* \"Landder\":267:283  address[] memory */\n      0x60\n        /* \"Landder\":301:314  deployedLands */\n      0x00\n        /* \"Landder\":294:314  return deployedLands */\n      dup1\n      sload\n      dup1\n      0x20\n      mul\n      0x20\n      add\n      mload(0x40)\n      swap1\n      dup2\n      add\n      0x40\n      mstore\n      dup1\n      swap3\n      swap2\n      swap1\n      dup2\n      dup2\n      mstore\n      0x20\n      add\n      dup3\n      dup1\n      sload\n      dup1\n      iszero\n      tag_27\n      jumpi\n      0x20\n      mul\n      dup3\n      add\n      swap2\n      swap1\n      0x00\n      mstore\n      keccak256(0x00, 0x20)\n      swap1\n    tag_28:\n      dup2\n      0x00\n      swap1\n      sload\n      swap1\n      0x0100\n      exp\n      swap1\n      div\n      0xffffffffffffffffffffffffffffffffffffffff\n      and\n      0xffffffffffffffffffffffffffffffffffffffff\n      and\n      dup2\n      mstore\n      0x20\n      add\n      swap1\n      0x01\n      add\n      swap1\n      dup1\n      dup4\n      gt\n      tag_28\n      jumpi\n    tag_27:\n      pop\n      pop\n      pop\n      pop\n      pop\n      swap1\n      pop\n        /* \"Landder\":219:322  function getDeployedLands() public view returns(address[] memory){... */\n      swap1\n      jump\t// out\n    tag_20:\n      dataSize(sub_0)\n      dup1\n      dataOffset(sub_0)\n      dup4\n      codecopy\n      add\n      swap1\n      jump\t// out\n        /* \"#utility.yul\":88:205   */\n    tag_30:\n        /* \"#utility.yul\":197:198   */\n      0x00\n        /* \"#utility.yul\":194:195   */\n      dup1\n        /* \"#utility.yul\":187:199   */\n      revert\n        /* \"#utility.yul\":334:411   */\n    tag_32:\n        /* \"#utility.yul\":371:378   */\n      0x00\n        /* \"#utility.yul\":400:405   */\n      dup2\n        /* \"#utility.yul\":389:405   */\n      swap1\n      pop\n        /* \"#utility.yul\":334:411   */\n      swap2\n      swap1\n      pop\n      jump\t// out\n        /* \"#utility.yul\":417:539   */\n    tag_33:\n        /* \"#utility.yul\":490:514   */\n      tag_51\n        /* \"#utility.yul\":508:513   */\n      dup2\n        /* \"#utility.yul\":490:514   */\n      tag_32\n      jump\t// in\n    tag_51:\n        /* \"#utility.yul\":483:488   */\n      dup2\n        /* \"#utility.yul\":480:515   */\n      eq\n        /* \"#utility.yul\":470:533   */\n      tag_52\n      jumpi\n        /* \"#utility.yul\":529:530   */\n      0x00\n        /* \"#utility.yul\":526:527   */\n      dup1\n        /* \"#utility.yul\":519:531   */\n      revert\n        /* \"#utility.yul\":470:533   */\n    tag_52:\n        /* \"#utility.yul\":417:539   */\n      pop\n      jump\t// out\n        /* \"#utility.yul\":545:684   */\n    tag_34:\n        /* \"#utility.yul\":591:596   */\n      0x00\n        /* \"#utility.yul\":629:635   */\n      dup2\n        /* \"#utility.yul\":616:636   */\n      calldataload\n        /* \"#utility.yul\":607:636   */\n      swap1\n      pop\n        /* \"#utility.yul\":645:678   */\n      tag_54\n        /* \"#utility.yul\":672:677   */\n      dup2\n        /* \"#utility.yul\":645:678   */\n      tag_33\n      jump\t// in\n    tag_54:\n        /* \"#utility.yul\":545:684   */\n      swap3\n      swap2\n      pop\n      pop\n      jump\t// out\n        /* \"#utility.yul\":690:1019   */\n    tag_10:\n        /* \"#utility.yul\":749:755   */\n      0x00\n        /* \"#utility.yul\":798:800   */\n      0x20\n        /* \"#utility.yul\":786:795   */\n      dup3\n        /* \"#utility.yul\":777:784   */\n      dup5\n        /* \"#utility.yul\":773:796   */\n      sub\n        /* \"#utility.yul\":769:801   */\n      slt\n        /* \"#utility.yul\":766:885   */\n      iszero\n      tag_56\n      jumpi\n        /* \"#utility.yul\":804:883   */\n      tag_57\n      tag_30\n      jump\t// in\n    tag_57:\n        /* \"#utility.yul\":766:885   */\n    tag_56:\n        /* \"#utility.yul\":924:925   */\n      0x00\n        /* \"#utility.yul\":949:1002   */\n      tag_58\n        /* \"#utility.yul\":994:1001   */\n      dup5\n        /* \"#utility.yul\":985:991   */\n      dup3\n        /* \"#utility.yul\":974:983   */\n      dup6\n        /* \"#utility.yul\":970:992   */\n      add\n        /* \"#utility.yul\":949:1002   */\n      tag_34\n      jump\t// in\n    tag_58:\n        /* \"#utility.yul\":939:1002   */\n      swap2\n      pop\n        /* \"#utility.yul\":895:1012   */\n      pop\n        /* \"#utility.yul\":690:1019   */\n      swap3\n      swap2\n      pop\n      pop\n      jump\t// out\n        /* \"#utility.yul\":1025:1151   */\n    tag_35:\n        /* \"#utility.yul\":1062:1069   */\n      0x00\n        /* \"#utility.yul\":1102:1144   */\n      0xffffffffffffffffffffffffffffffffffffffff\n        /* \"#utility.yul\":1095:1100   */\n      dup3\n        /* \"#utility.yul\":1091:1145   */\n      and\n        /* \"#utility.yul\":1080:1145   */\n      swap1\n      pop\n        /* \"#utility.yul\":1025:1151   */\n      swap2\n      swap1\n      pop\n      jump\t// out\n        /* \"#utility.yul\":1157:1253   */\n    tag_36:\n        /* \"#utility.yul\":1194:1201   */\n      0x00\n        /* \"#utility.yul\":1223:1247   */\n      tag_61\n        /* \"#utility.yul\":1241:1246   */\n      dup3\n        /* \"#utility.yul\":1223:1247   */\n      tag_35\n      jump\t// in\n    tag_61:\n        /* \"#utility.yul\":1212:1247   */\n      swap1\n      pop\n        /* \"#utility.yul\":1157:1253   */\n      swap2\n      swap1\n      pop\n      jump\t// out\n        /* \"#utility.yul\":1259:1377   */\n    tag_37:\n        /* \"#utility.yul\":1346:1370   */\n      tag_63\n        /* \"#utility.yul\":1364:1369   */\n      dup2\n        /* \"#utility.yul\":1346:1370   */\n      tag_36\n      jump\t// in\n    tag_63:\n        /* \"#utility.yul\":1341:1344   */\n      dup3\n        /* \"#utility.yul\":1334:1371   */\n      mstore\n        /* \"#utility.yul\":1259:1377   */\n      pop\n      pop\n      jump\t// out\n        /* \"#utility.yul\":1383:1605   */\n    tag_13:\n        /* \"#utility.yul\":1476:1480   */\n      0x00\n        /* \"#utility.yul\":1514:1516   */\n      0x20\n        /* \"#utility.yul\":1503:1512   */\n      dup3\n        /* \"#utility.yul\":1499:1517   */\n      add\n        /* \"#utility.yul\":1491:1517   */\n      swap1\n      pop\n        /* \"#utility.yul\":1527:1598   */\n      tag_65\n        /* \"#utility.yul\":1595:1596   */\n      0x00\n        /* \"#utility.yul\":1584:1593   */\n      dup4\n        /* \"#utility.yul\":1580:1597   */\n      add\n        /* \"#utility.yul\":1571:1577   */\n      dup5\n        /* \"#utility.yul\":1527:1598   */\n      tag_37\n      jump\t// in\n    tag_65:\n        /* \"#utility.yul\":1383:1605   */\n      swap3\n      swap2\n      pop\n      pop\n      jump\t// out\n        /* \"#utility.yul\":1611:1725   */\n    tag_38:\n        /* \"#utility.yul\":1678:1684   */\n      0x00\n        /* \"#utility.yul\":1712:1717   */\n      dup2\n        /* \"#utility.yul\":1706:1718   */\n      mload\n        /* \"#utility.yul\":1696:1718   */\n      swap1\n      pop\n        /* \"#utility.yul\":1611:1725   */\n      swap2\n      swap1\n      pop\n      jump\t// out\n        /* \"#utility.yul\":1731:1915   */\n    tag_39:\n        /* \"#utility.yul\":1830:1841   */\n      0x00\n        /* \"#utility.yul\":1864:1870   */\n      dup3\n        /* \"#utility.yul\":1859:1862   */\n      dup3\n        /* \"#utility.yul\":1852:1871   */\n      mstore\n        /* \"#utility.yul\":1904:1908   */\n      0x20\n        /* \"#utility.yul\":1899:1902   */\n      dup3\n        /* \"#utility.yul\":1895:1909   */\n      add\n        /* \"#utility.yul\":1880:1909   */\n      swap1\n      pop\n        /* \"#utility.yul\":1731:1915   */\n      swap3\n      swap2\n      pop\n      pop\n      jump\t// out\n        /* \"#utility.yul\":1921:2053   */\n    tag_40:\n        /* \"#utility.yul\":1988:1992   */\n      0x00\n        /* \"#utility.yul\":2011:2014   */\n      dup2\n        /* \"#utility.yul\":2003:2014   */\n      swap1\n      pop\n        /* \"#utility.yul\":2041:2045   */\n      0x20\n        /* \"#utility.yul\":2036:2039   */\n      dup3\n        /* \"#utility.yul\":2032:2046   */\n      add\n        /* \"#utility.yul\":2024:2046   */\n      swap1\n      pop\n        /* \"#utility.yul\":1921:2053   */\n      swap2\n      swap1\n      pop\n      jump\t// out\n        /* \"#utility.yul\":2059:2167   */\n    tag_41:\n        /* \"#utility.yul\":2136:2160   */\n      tag_70\n        /* \"#utility.yul\":2154:2159   */\n      dup2\n        /* \"#utility.yul\":2136:2160   */\n      tag_36\n      jump\t// in\n    tag_70:\n        /* \"#utility.yul\":2131:2134   */\n      dup3\n        /* \"#utility.yul\":2124:2161   */\n      mstore\n        /* \"#utility.yul\":2059:2167   */\n      pop\n      pop\n      jump\t// out\n        /* \"#utility.yul\":2173:2352   */\n    tag_42:\n        /* \"#utility.yul\":2242:2252   */\n      0x00\n        /* \"#utility.yul\":2263:2309   */\n      tag_72\n        /* \"#utility.yul\":2305:2308   */\n      dup4\n        /* \"#utility.yul\":2297:2303   */\n      dup4\n        /* \"#utility.yul\":2263:2309   */\n      tag_41\n      jump\t// in\n    tag_72:\n        /* \"#utility.yul\":2341:2345   */\n      0x20\n        /* \"#utility.yul\":2336:2339   */\n      dup4\n        /* \"#utility.yul\":2332:2346   */\n      add\n        /* \"#utility.yul\":2318:2346   */\n      swap1\n      pop\n        /* \"#utility.yul\":2173:2352   */\n      swap3\n      swap2\n      pop\n      pop\n      jump\t// out\n        /* \"#utility.yul\":2358:2471   */\n    tag_43:\n        /* \"#utility.yul\":2428:2432   */\n      0x00\n        /* \"#utility.yul\":2460:2464   */\n      0x20\n        /* \"#utility.yul\":2455:2458   */\n      dup3\n        /* \"#utility.yul\":2451:2465   */\n      add\n        /* \"#utility.yul\":2443:2465   */\n      swap1\n      pop\n        /* \"#utility.yul\":2358:2471   */\n      swap2\n      swap1\n      pop\n      jump\t// out\n        /* \"#utility.yul\":2507:3239   */\n    tag_44:\n        /* \"#utility.yul\":2626:2629   */\n      0x00\n        /* \"#utility.yul\":2655:2709   */\n      tag_75\n        /* \"#utility.yul\":2703:2708   */\n      dup3\n        /* \"#utility.yul\":2655:2709   */\n      tag_38\n      jump\t// in\n    tag_75:\n        /* \"#utility.yul\":2725:2811   */\n      tag_76\n        /* \"#utility.yul\":2804:2810   */\n      dup2\n        /* \"#utility.yul\":2799:2802   */\n      dup6\n        /* \"#utility.yul\":2725:2811   */\n      tag_39\n      jump\t// in\n    tag_76:\n        /* \"#utility.yul\":2718:2811   */\n      swap4\n      pop\n        /* \"#utility.yul\":2835:2891   */\n      tag_77\n        /* \"#utility.yul\":2885:2890   */\n      dup4\n        /* \"#utility.yul\":2835:2891   */\n      tag_40\n      jump\t// in\n    tag_77:\n        /* \"#utility.yul\":2914:2921   */\n      dup1\n        /* \"#utility.yul\":2945:2946   */\n      0x00\n        /* \"#utility.yul\":2930:3214   */\n    tag_78:\n        /* \"#utility.yul\":2955:2961   */\n      dup4\n        /* \"#utility.yul\":2952:2953   */\n      dup2\n        /* \"#utility.yul\":2949:2962   */\n      lt\n        /* \"#utility.yul\":2930:3214   */\n      iszero\n      tag_80\n      jumpi\n        /* \"#utility.yul\":3031:3037   */\n      dup2\n        /* \"#utility.yul\":3025:3038   */\n      mload\n        /* \"#utility.yul\":3058:3121   */\n      tag_81\n        /* \"#utility.yul\":3117:3120   */\n      dup9\n        /* \"#utility.yul\":3102:3115   */\n      dup3\n        /* \"#utility.yul\":3058:3121   */\n      tag_42\n      jump\t// in\n    tag_81:\n        /* \"#utility.yul\":3051:3121   */\n      swap8\n      pop\n        /* \"#utility.yul\":3144:3204   */\n      tag_82\n        /* \"#utility.yul\":3197:3203   */\n      dup4\n        /* \"#utility.yul\":3144:3204   */\n      tag_43\n      jump\t// in\n    tag_82:\n        /* \"#utility.yul\":3134:3204   */\n      swap3\n      pop\n        /* \"#utility.yul\":2990:3214   */\n      pop\n        /* \"#utility.yul\":2977:2978   */\n      0x01\n        /* \"#utility.yul\":2974:2975   */\n      dup2\n        /* \"#utility.yul\":2970:2979   */\n      add\n        /* \"#utility.yul\":2965:2979   */\n      swap1\n      pop\n        /* \"#utility.yul\":2930:3214   */\n      jump(tag_78)\n    tag_80:\n        /* \"#utility.yul\":2934:2948   */\n      pop\n        /* \"#utility.yul\":3230:3233   */\n      dup6\n        /* \"#utility.yul\":3223:3233   */\n      swap4\n      pop\n        /* \"#utility.yul\":2631:3239   */\n      pop\n      pop\n      pop\n        /* \"#utility.yul\":2507:3239   */\n      swap3\n      swap2\n      pop\n      pop\n      jump\t// out\n        /* \"#utility.yul\":3245:3618   */\n    tag_17:\n        /* \"#utility.yul\":3388:3392   */\n      0x00\n        /* \"#utility.yul\":3426:3428   */\n      0x20\n        /* \"#utility.yul\":3415:3424   */\n      dup3\n        /* \"#utility.yul\":3411:3429   */\n      add\n        /* \"#utility.yul\":3403:3429   */\n      swap1\n      pop\n        /* \"#utility.yul\":3475:3484   */\n      dup2\n        /* \"#utility.yul\":3469:3473   */\n      dup2\n        /* \"#utility.yul\":3465:3485   */\n      sub\n        /* \"#utility.yul\":3461:3462   */\n      0x00\n        /* \"#utility.yul\":3450:3459   */\n      dup4\n        /* \"#utility.yul\":3446:3463   */\n      add\n        /* \"#utility.yul\":3439:3486   */\n      mstore\n        /* \"#utility.yul\":3503:3611   */\n      tag_84\n        /* \"#utility.yul\":3606:3610   */\n      dup2\n        /* \"#utility.yul\":3597:3603   */\n      dup5\n        /* \"#utility.yul\":3503:3611   */\n      tag_44\n      jump\t// in\n    tag_84:\n        /* \"#utility.yul\":3495:3611   */\n      swap1\n      pop\n        /* \"#utility.yul\":3245:3618   */\n      swap3\n      swap2\n      pop\n      pop\n      jump\t// out\n    stop\n\n    sub_0: assembly {\n            /* \"Landder\":327:1362  contract Land{... */\n          mstore(0x40, 0x80)\n            /* \"Landder\":475:476  0 */\n          0x00\n            /* \"Landder\":453:476  uint conner_numbers = 0 */\n          0x04\n          sstore\n            /* \"Landder\":610:611  0 */\n          0x00\n            /* \"Landder\":583:611  uint registration_status = 0 */\n          0x08\n          sstore\n            /* \"Landder\":701:765  constructor(address the_owner){... */\n          callvalue\n          dup1\n          iszero\n          tag_1\n          jumpi\n          0x00\n          dup1\n          revert\n        tag_1:\n          pop\n          mload(0x40)\n          sub(codesize, bytecodeSize)\n          dup1\n          bytecodeSize\n          dup4\n          codecopy\n          dup2\n          dup2\n          add\n          0x40\n          mstore\n          dup2\n          add\n          swap1\n          tag_2\n          swap2\n          swap1\n          tag_3\n          jump\t// in\n        tag_2:\n            /* \"Landder\":749:758  the_owner */\n          dup1\n            /* \"Landder\":741:746  owner */\n          0x00\n          dup1\n            /* \"Landder\":741:758  owner = the_owner */\n          0x0100\n          exp\n          dup2\n          sload\n          dup2\n          0xffffffffffffffffffffffffffffffffffffffff\n          mul\n          not\n          and\n          swap1\n          dup4\n          0xffffffffffffffffffffffffffffffffffffffff\n          and\n          mul\n          or\n          swap1\n          sstore\n          pop\n            /* \"Landder\":701:765  constructor(address the_owner){... */\n          pop\n            /* \"Landder\":327:1362  contract Land{... */\n          jump(tag_6)\n            /* \"#utility.yul\":88:205   */\n        tag_8:\n            /* \"#utility.yul\":197:198   */\n          0x00\n            /* \"#utility.yul\":194:195   */\n          dup1\n            /* \"#utility.yul\":187:199   */\n          revert\n            /* \"#utility.yul\":334:460   */\n        tag_10:\n            /* \"#utility.yul\":371:378   */\n          0x00\n            /* \"#utility.yul\":411:453   */\n          0xffffffffffffffffffffffffffffffffffffffff\n            /* \"#utility.yul\":404:409   */\n          dup3\n            /* \"#utility.yul\":400:454   */\n          and\n            /* \"#utility.yul\":389:454   */\n          swap1\n          pop\n            /* \"#utility.yul\":334:460   */\n          swap2\n          swap1\n          pop\n          jump\t// out\n            /* \"#utility.yul\":466:562   */\n        tag_11:\n            /* \"#utility.yul\":503:510   */\n          0x00\n            /* \"#utility.yul\":532:556   */\n          tag_20\n            /* \"#utility.yul\":550:555   */\n          dup3\n            /* \"#utility.yul\":532:556   */\n          tag_10\n          jump\t// in\n        tag_20:\n            /* \"#utility.yul\":521:556   */\n          swap1\n          pop\n            /* \"#utility.yul\":466:562   */\n          swap2\n          swap1\n          pop\n          jump\t// out\n            /* \"#utility.yul\":568:690   */\n        tag_12:\n            /* \"#utility.yul\":641:665   */\n          tag_22\n            /* \"#utility.yul\":659:664   */\n          dup2\n            /* \"#utility.yul\":641:665   */\n          tag_11\n          jump\t// in\n        tag_22:\n            /* \"#utility.yul\":634:639   */\n          dup2\n            /* \"#utility.yul\":631:666   */\n          eq\n            /* \"#utility.yul\":621:684   */\n          tag_23\n          jumpi\n            /* \"#utility.yul\":680:681   */\n          0x00\n            /* \"#utility.yul\":677:678   */\n          dup1\n            /* \"#utility.yul\":670:682   */\n          revert\n            /* \"#utility.yul\":621:684   */\n        tag_23:\n            /* \"#utility.yul\":568:690   */\n          pop\n          jump\t// out\n            /* \"#utility.yul\":696:839   */\n        tag_13:\n            /* \"#utility.yul\":753:758   */\n          0x00\n            /* \"#utility.yul\":784:790   */\n          dup2\n            /* \"#utility.yul\":778:791   */\n          mload\n            /* \"#utility.yul\":769:791   */\n          swap1\n          pop\n            /* \"#utility.yul\":800:833   */\n          tag_25\n            /* \"#utility.yul\":827:832   */\n          dup2\n            /* \"#utility.yul\":800:833   */\n          tag_12\n          jump\t// in\n        tag_25:\n            /* \"#utility.yul\":696:839   */\n          swap3\n          swap2\n          pop\n          pop\n          jump\t// out\n            /* \"#utility.yul\":845:1196   */\n        tag_3:\n            /* \"#utility.yul\":915:921   */\n          0x00\n            /* \"#utility.yul\":964:966   */\n          0x20\n            /* \"#utility.yul\":952:961   */\n          dup3\n            /* \"#utility.yul\":943:950   */\n          dup5\n            /* \"#utility.yul\":939:962   */\n          sub\n            /* \"#utility.yul\":935:967   */\n          slt\n            /* \"#utility.yul\":932:1051   */\n          iszero\n          tag_27\n          jumpi\n            /* \"#utility.yul\":970:1049   */\n          tag_28\n          tag_8\n          jump\t// in\n        tag_28:\n            /* \"#utility.yul\":932:1051   */\n        tag_27:\n            /* \"#utility.yul\":1090:1091   */\n          0x00\n            /* \"#utility.yul\":1115:1179   */\n          tag_29\n            /* \"#utility.yul\":1171:1178   */\n          dup5\n            /* \"#utility.yul\":1162:1168   */\n          dup3\n            /* \"#utility.yul\":1151:1160   */\n          dup6\n            /* \"#utility.yul\":1147:1169   */\n          add\n            /* \"#utility.yul\":1115:1179   */\n          tag_13\n          jump\t// in\n        tag_29:\n            /* \"#utility.yul\":1105:1179   */\n          swap2\n          pop\n            /* \"#utility.yul\":1061:1189   */\n          pop\n            /* \"#utility.yul\":845:1196   */\n          swap3\n          swap2\n          pop\n          pop\n          jump\t// out\n            /* \"Landder\":327:1362  contract Land{... */\n        tag_6:\n          dataSize(sub_0)\n          dup1\n          dataOffset(sub_0)\n          0x00\n          codecopy\n          0x00\n          return\n        stop\n\n        sub_0: assembly {\n                /* \"Landder\":327:1362  contract Land{... */\n              mstore(0x40, 0x80)\n              callvalue\n              dup1\n              iszero\n              tag_1\n              jumpi\n              0x00\n              dup1\n              revert\n            tag_1:\n              pop\n              jumpi(tag_2, lt(calldatasize, 0x04))\n              shr(0xe0, calldataload(0x00))\n              dup1\n              0x50e2304c\n              eq\n              tag_3\n              jumpi\n              dup1\n              0x5690314c\n              eq\n              tag_4\n              jumpi\n              dup1\n              0xa03fa7e3\n              eq\n              tag_5\n              jumpi\n              dup1\n              0xd600747c\n              eq\n              tag_6\n              jumpi\n            tag_2:\n              0x00\n              dup1\n              revert\n                /* \"Landder\":771:988  function addLocation(uint latitude, uint longitude) public restricted{... */\n            tag_3:\n              tag_7\n              0x04\n              dup1\n              calldatasize\n              sub\n              dup2\n              add\n              swap1\n              tag_8\n              swap2\n              swap1\n              tag_9\n              jump\t// in\n            tag_8:\n              tag_10\n              jump\t// in\n            tag_7:\n              stop\n                /* \"Landder\":1201:1360  function getLand() public view returns(address, string memory, uint[] memory, uint[] memory){... */\n            tag_4:\n              tag_11\n              tag_12\n              jump\t// in\n            tag_11:\n              mload(0x40)\n              tag_13\n              swap5\n              swap4\n              swap3\n              swap2\n              swap1\n              tag_14\n              jump\t// in\n            tag_13:\n              mload(0x40)\n              dup1\n              swap2\n              sub\n              swap1\n              return\n                /* \"Landder\":1105:1195  function transferTo(address new_owner) public restricted{... */\n            tag_5:\n              tag_15\n              0x04\n              dup1\n              calldatasize\n              sub\n              dup2\n              add\n              swap1\n              tag_16\n              swap2\n              swap1\n              tag_17\n              jump\t// in\n            tag_16:\n              tag_18\n              jump\t// in\n            tag_15:\n              stop\n                /* \"Landder\":994:1099  function addLegalDoc(string memory ipfs_doc_id) public restricted{... */\n            tag_6:\n              tag_19\n              0x04\n              dup1\n              calldatasize\n              sub\n              dup2\n              add\n              swap1\n              tag_20\n              swap2\n              swap1\n              tag_21\n              jump\t// in\n            tag_20:\n              tag_22\n              jump\t// in\n            tag_19:\n              stop\n                /* \"Landder\":771:988  function addLocation(uint latitude, uint longitude) public restricted{... */\n            tag_10:\n                /* \"Landder\":666:676  msg.sender */\n              caller\n                /* \"Landder\":657:676  owner == msg.sender */\n              0xffffffffffffffffffffffffffffffffffffffff\n              and\n                /* \"Landder\":657:662  owner */\n              0x00\n              dup1\n              sload\n              swap1\n              0x0100\n              exp\n              swap1\n              div\n              0xffffffffffffffffffffffffffffffffffffffff\n              and\n                /* \"Landder\":657:676  owner == msg.sender */\n              0xffffffffffffffffffffffffffffffffffffffff\n              and\n              eq\n                /* \"Landder\":649:677  require(owner == msg.sender) */\n              tag_24\n              jumpi\n              0x00\n              dup1\n              revert\n            tag_24:\n                /* \"Landder\":881:882  0 */\n              0x00\n                /* \"Landder\":858:877  registration_status */\n              sload(0x08)\n                /* \"Landder\":858:882  registration_status == 0 */\n              eq\n                /* \"Landder\":850:883  require(registration_status == 0) */\n              tag_26\n              jumpi\n              0x00\n              dup1\n              revert\n            tag_26:\n                /* \"Landder\":893:907  conner_numbers */\n              0x04\n              0x00\n                /* \"Landder\":893:909  conner_numbers++ */\n              dup2\n              sload\n              dup1\n              swap3\n              swap2\n              swap1\n              tag_27\n              swap1\n              tag_28\n              jump\t// in\n            tag_27:\n              swap2\n              swap1\n              pop\n              sstore\n              pop\n                /* \"Landder\":919:929  latitudes_ */\n              0x02\n                /* \"Landder\":935:943  latitude */\n              dup3\n                /* \"Landder\":919:944  latitudes_.push(latitude) */\n              swap1\n              dup1\n              0x01\n              dup2\n              sload\n              add\n              dup1\n              dup3\n              sstore\n              dup1\n              swap2\n              pop\n              pop\n              0x01\n              swap1\n              sub\n              swap1\n              0x00\n              mstore\n              keccak256(0x00, 0x20)\n              add\n              0x00\n              swap1\n              swap2\n              swap1\n              swap2\n              swap1\n              swap2\n              pop\n              sstore\n                /* \"Landder\":954:965  longitudes_ */\n              0x03\n                /* \"Landder\":971:980  longitude */\n              dup2\n                /* \"Landder\":954:981  longitudes_.push(longitude) */\n              swap1\n              dup1\n              0x01\n              dup2\n              sload\n              add\n              dup1\n              dup3\n              sstore\n              dup1\n              swap2\n              pop\n              pop\n              0x01\n              swap1\n              sub\n              swap1\n              0x00\n              mstore\n              keccak256(0x00, 0x20)\n              add\n              0x00\n              swap1\n              swap2\n              swap1\n              swap2\n              swap1\n              swap2\n              pop\n              sstore\n                /* \"Landder\":771:988  function addLocation(uint latitude, uint longitude) public restricted{... */\n              pop\n              pop\n              jump\t// out\n                /* \"Landder\":1201:1360  function getLand() public view returns(address, string memory, uint[] memory, uint[] memory){... */\n            tag_12:\n                /* \"Landder\":1240:1247  address */\n              0x00\n                /* \"Landder\":1249:1262  string memory */\n              0x60\n                /* \"Landder\":1264:1277  uint[] memory */\n              dup1\n                /* \"Landder\":1279:1292  uint[] memory */\n              0x60\n                /* \"Landder\":1311:1316  owner */\n              0x00\n              dup1\n              sload\n              swap1\n              0x0100\n              exp\n              swap1\n              div\n              0xffffffffffffffffffffffffffffffffffffffff\n              and\n                /* \"Landder\":1318:1327  legal_doc */\n              0x05\n                /* \"Landder\":1329:1339  latitudes_ */\n              0x02\n                /* \"Landder\":1341:1352  longitudes_ */\n              0x03\n                /* \"Landder\":1303:1353  return (owner, legal_doc, latitudes_, longitudes_) */\n              dup3\n              dup1\n              sload\n              tag_32\n              swap1\n              tag_33\n              jump\t// in\n            tag_32:\n              dup1\n              0x1f\n              add\n              0x20\n              dup1\n              swap2\n              div\n              mul\n              0x20\n              add\n              mload(0x40)\n              swap1\n              dup2\n              add\n              0x40\n              mstore\n              dup1\n              swap3\n              swap2\n              swap1\n              dup2\n              dup2\n              mstore\n              0x20\n              add\n              dup3\n              dup1\n              sload\n              tag_34\n              swap1\n              tag_33\n              jump\t// in\n            tag_34:\n              dup1\n              iszero\n              tag_35\n              jumpi\n              dup1\n              0x1f\n              lt\n              tag_36\n              jumpi\n              0x0100\n              dup1\n              dup4\n              sload\n              div\n              mul\n              dup4\n              mstore\n              swap2\n              0x20\n              add\n              swap2\n              jump(tag_35)\n            tag_36:\n              dup3\n              add\n              swap2\n              swap1\n              0x00\n              mstore\n              keccak256(0x00, 0x20)\n              swap1\n            tag_37:\n              dup2\n              sload\n              dup2\n              mstore\n              swap1\n              0x01\n              add\n              swap1\n              0x20\n              add\n              dup1\n              dup4\n              gt\n              tag_37\n              jumpi\n              dup3\n              swap1\n              sub\n              0x1f\n              and\n              dup3\n              add\n              swap2\n            tag_35:\n              pop\n              pop\n              pop\n              pop\n              pop\n              swap3\n              pop\n              dup2\n              dup1\n              sload\n              dup1\n              0x20\n              mul\n              0x20\n              add\n              mload(0x40)\n              swap1\n              dup2\n              add\n              0x40\n              mstore\n              dup1\n              swap3\n              swap2\n              swap1\n              dup2\n              dup2\n              mstore\n              0x20\n              add\n              dup3\n              dup1\n              sload\n              dup1\n              iszero\n              tag_38\n              jumpi\n              0x20\n              mul\n              dup3\n              add\n              swap2\n              swap1\n              0x00\n              mstore\n              keccak256(0x00, 0x20)\n              swap1\n            tag_39:\n              dup2\n              sload\n              dup2\n              mstore\n              0x20\n              add\n              swap1\n              0x01\n              add\n              swap1\n              dup1\n              dup4\n              gt\n              tag_39\n              jumpi\n            tag_38:\n              pop\n              pop\n              pop\n              pop\n              pop\n              swap2\n              pop\n              dup1\n              dup1\n              sload\n              dup1\n              0x20\n              mul\n              0x20\n              add\n              mload(0x40)\n              swap1\n              dup2\n              add\n              0x40\n              mstore\n              dup1\n              swap3\n              swap2\n              swap1\n              dup2\n              dup2\n              mstore\n              0x20\n              add\n              dup3\n              dup1\n              sload\n              dup1\n              iszero\n              tag_40\n              jumpi\n              0x20\n              mul\n              dup3\n              add\n              swap2\n              swap1\n              0x00\n              mstore\n              keccak256(0x00, 0x20)\n              swap1\n            tag_41:\n              dup2\n              sload\n              dup2\n              mstore\n              0x20\n              add\n              swap1\n              0x01\n              add\n              swap1\n              dup1\n              dup4\n              gt\n              tag_41\n              jumpi\n            tag_40:\n              pop\n              pop\n              pop\n              pop\n              pop\n              swap1\n              pop\n              swap4\n              pop\n              swap4\n              pop\n              swap4\n              pop\n              swap4\n              pop\n                /* \"Landder\":1201:1360  function getLand() public view returns(address, string memory, uint[] memory, uint[] memory){... */\n              swap1\n              swap2\n              swap3\n              swap4\n              jump\t// out\n                /* \"Landder\":1105:1195  function transferTo(address new_owner) public restricted{... */\n            tag_18:\n                /* \"Landder\":666:676  msg.sender */\n              caller\n                /* \"Landder\":657:676  owner == msg.sender */\n              0xffffffffffffffffffffffffffffffffffffffff\n              and\n                /* \"Landder\":657:662  owner */\n              0x00\n              dup1\n              sload\n              swap1\n              0x0100\n              exp\n              swap1\n              div\n              0xffffffffffffffffffffffffffffffffffffffff\n              and\n                /* \"Landder\":657:676  owner == msg.sender */\n              0xffffffffffffffffffffffffffffffffffffffff\n              and\n              eq\n                /* \"Landder\":649:677  require(owner == msg.sender) */\n              tag_43\n              jumpi\n              0x00\n              dup1\n              revert\n            tag_43:\n                /* \"Landder\":1179:1188  new_owner */\n              dup1\n                /* \"Landder\":1171:1176  owner */\n              0x00\n              dup1\n                /* \"Landder\":1171:1188  owner = new_owner */\n              0x0100\n              exp\n              dup2\n              sload\n              dup2\n              0xffffffffffffffffffffffffffffffffffffffff\n              mul\n              not\n              and\n              swap1\n              dup4\n              0xffffffffffffffffffffffffffffffffffffffff\n              and\n              mul\n              or\n              swap1\n              sstore\n              pop\n                /* \"Landder\":1105:1195  function transferTo(address new_owner) public restricted{... */\n              pop\n              jump\t// out\n                /* \"Landder\":994:1099  function addLegalDoc(string memory ipfs_doc_id) public restricted{... */\n            tag_22:\n                /* \"Landder\":666:676  msg.sender */\n              caller\n                /* \"Landder\":657:676  owner == msg.sender */\n              0xffffffffffffffffffffffffffffffffffffffff\n              and\n                /* \"Landder\":657:662  owner */\n              0x00\n              dup1\n              sload\n              swap1\n              0x0100\n              exp\n              swap1\n              div\n              0xffffffffffffffffffffffffffffffffffffffff\n              and\n                /* \"Landder\":657:676  owner == msg.sender */\n              0xffffffffffffffffffffffffffffffffffffffff\n              and\n              eq\n                /* \"Landder\":649:677  require(owner == msg.sender) */\n              tag_46\n              jumpi\n              0x00\n              dup1\n              revert\n            tag_46:\n                /* \"Landder\":1081:1092  ipfs_doc_id */\n              dup1\n                /* \"Landder\":1069:1078  legal_doc */\n              0x05\n                /* \"Landder\":1069:1092  legal_doc = ipfs_doc_id */\n              swap1\n              dup1\n              mload\n              swap1\n              0x20\n              add\n              swap1\n              tag_48\n              swap3\n              swap2\n              swap1\n              tag_49\n              jump\t// in\n            tag_48:\n              pop\n                /* \"Landder\":994:1099  function addLegalDoc(string memory ipfs_doc_id) public restricted{... */\n              pop\n              jump\t// out\n            tag_49:\n              dup3\n              dup1\n              sload\n              tag_50\n              swap1\n              tag_33\n              jump\t// in\n            tag_50:\n              swap1\n              0x00\n              mstore\n              keccak256(0x00, 0x20)\n              swap1\n              0x1f\n              add\n              0x20\n              swap1\n              div\n              dup2\n              add\n              swap3\n              dup3\n              tag_52\n              jumpi\n              0x00\n              dup6\n              sstore\n              jump(tag_51)\n            tag_52:\n              dup3\n              0x1f\n              lt\n              tag_53\n              jumpi\n              dup1\n              mload\n              not(0xff)\n              and\n              dup4\n              dup1\n              add\n              or\n              dup6\n              sstore\n              jump(tag_51)\n            tag_53:\n              dup3\n              dup1\n              add\n              0x01\n              add\n              dup6\n              sstore\n              dup3\n              iszero\n              tag_51\n              jumpi\n              swap2\n              dup3\n              add\n            tag_54:\n              dup3\n              dup2\n              gt\n              iszero\n              tag_55\n              jumpi\n              dup3\n              mload\n              dup3\n              sstore\n              swap2\n              0x20\n              add\n              swap2\n              swap1\n              0x01\n              add\n              swap1\n              jump(tag_54)\n            tag_55:\n            tag_51:\n              pop\n              swap1\n              pop\n              tag_56\n              swap2\n              swap1\n              tag_57\n              jump\t// in\n            tag_56:\n              pop\n              swap1\n              jump\t// out\n            tag_57:\n            tag_58:\n              dup1\n              dup3\n              gt\n              iszero\n              tag_59\n              jumpi\n              0x00\n              dup2\n              0x00\n              swap1\n              sstore\n              pop\n              0x01\n              add\n              jump(tag_58)\n            tag_59:\n              pop\n              swap1\n              jump\t// out\n                /* \"#utility.yul\":7:82   */\n            tag_60:\n                /* \"#utility.yul\":40:46   */\n              0x00\n                /* \"#utility.yul\":73:75   */\n              0x40\n                /* \"#utility.yul\":67:76   */\n              mload\n                /* \"#utility.yul\":57:76   */\n              swap1\n              pop\n                /* \"#utility.yul\":7:82   */\n              swap1\n              jump\t// out\n                /* \"#utility.yul\":88:205   */\n            tag_61:\n                /* \"#utility.yul\":197:198   */\n              0x00\n                /* \"#utility.yul\":194:195   */\n              dup1\n                /* \"#utility.yul\":187:199   */\n              revert\n                /* \"#utility.yul\":211:328   */\n            tag_62:\n                /* \"#utility.yul\":320:321   */\n              0x00\n                /* \"#utility.yul\":317:318   */\n              dup1\n                /* \"#utility.yul\":310:322   */\n              revert\n                /* \"#utility.yul\":334:411   */\n            tag_63:\n                /* \"#utility.yul\":371:378   */\n              0x00\n                /* \"#utility.yul\":400:405   */\n              dup2\n                /* \"#utility.yul\":389:405   */\n              swap1\n              pop\n                /* \"#utility.yul\":334:411   */\n              swap2\n              swap1\n              pop\n              jump\t// out\n                /* \"#utility.yul\":417:539   */\n            tag_64:\n                /* \"#utility.yul\":490:514   */\n              tag_100\n                /* \"#utility.yul\":508:513   */\n              dup2\n                /* \"#utility.yul\":490:514   */\n              tag_63\n              jump\t// in\n            tag_100:\n                /* \"#utility.yul\":483:488   */\n              dup2\n                /* \"#utility.yul\":480:515   */\n              eq\n                /* \"#utility.yul\":470:533   */\n              tag_101\n              jumpi\n                /* \"#utility.yul\":529:530   */\n              0x00\n                /* \"#utility.yul\":526:527   */\n              dup1\n                /* \"#utility.yul\":519:531   */\n              revert\n                /* \"#utility.yul\":470:533   */\n            tag_101:\n                /* \"#utility.yul\":417:539   */\n              pop\n              jump\t// out\n                /* \"#utility.yul\":545:684   */\n            tag_65:\n                /* \"#utility.yul\":591:596   */\n              0x00\n                /* \"#utility.yul\":629:635   */\n              dup2\n                /* \"#utility.yul\":616:636   */\n              calldataload\n                /* \"#utility.yul\":607:636   */\n              swap1\n              pop\n                /* \"#utility.yul\":645:678   */\n              tag_103\n                /* \"#utility.yul\":672:677   */\n              dup2\n                /* \"#utility.yul\":645:678   */\n              tag_64\n              jump\t// in\n            tag_103:\n                /* \"#utility.yul\":545:684   */\n              swap3\n              swap2\n              pop\n              pop\n              jump\t// out\n                /* \"#utility.yul\":690:1164   */\n            tag_9:\n                /* \"#utility.yul\":758:764   */\n              0x00\n                /* \"#utility.yul\":766:772   */\n              dup1\n                /* \"#utility.yul\":815:817   */\n              0x40\n                /* \"#utility.yul\":803:812   */\n              dup4\n                /* \"#utility.yul\":794:801   */\n              dup6\n                /* \"#utility.yul\":790:813   */\n              sub\n                /* \"#utility.yul\":786:818   */\n              slt\n                /* \"#utility.yul\":783:902   */\n              iszero\n              tag_105\n              jumpi\n                /* \"#utility.yul\":821:900   */\n              tag_106\n              tag_61\n              jump\t// in\n            tag_106:\n                /* \"#utility.yul\":783:902   */\n            tag_105:\n                /* \"#utility.yul\":941:942   */\n              0x00\n                /* \"#utility.yul\":966:1019   */\n              tag_107\n                /* \"#utility.yul\":1011:1018   */\n              dup6\n                /* \"#utility.yul\":1002:1008   */\n              dup3\n                /* \"#utility.yul\":991:1000   */\n              dup7\n                /* \"#utility.yul\":987:1009   */\n              add\n                /* \"#utility.yul\":966:1019   */\n              tag_65\n              jump\t// in\n            tag_107:\n                /* \"#utility.yul\":956:1019   */\n              swap3\n              pop\n                /* \"#utility.yul\":912:1029   */\n              pop\n                /* \"#utility.yul\":1068:1070   */\n              0x20\n                /* \"#utility.yul\":1094:1147   */\n              tag_108\n                /* \"#utility.yul\":1139:1146   */\n              dup6\n                /* \"#utility.yul\":1130:1136   */\n              dup3\n                /* \"#utility.yul\":1119:1128   */\n              dup7\n                /* \"#utility.yul\":1115:1137   */\n              add\n                /* \"#utility.yul\":1094:1147   */\n              tag_65\n              jump\t// in\n            tag_108:\n                /* \"#utility.yul\":1084:1147   */\n              swap2\n              pop\n                /* \"#utility.yul\":1039:1157   */\n              pop\n                /* \"#utility.yul\":690:1164   */\n              swap3\n              pop\n              swap3\n              swap1\n              pop\n              jump\t// out\n                /* \"#utility.yul\":1170:1296   */\n            tag_66:\n                /* \"#utility.yul\":1207:1214   */\n              0x00\n                /* \"#utility.yul\":1247:1289   */\n              0xffffffffffffffffffffffffffffffffffffffff\n                /* \"#utility.yul\":1240:1245   */\n              dup3\n                /* \"#utility.yul\":1236:1290   */\n              and\n                /* \"#utility.yul\":1225:1290   */\n              swap1\n              pop\n                /* \"#utility.yul\":1170:1296   */\n              swap2\n              swap1\n              pop\n              jump\t// out\n                /* \"#utility.yul\":1302:1398   */\n            tag_67:\n                /* \"#utility.yul\":1339:1346   */\n              0x00\n                /* \"#utility.yul\":1368:1392   */\n              tag_111\n                /* \"#utility.yul\":1386:1391   */\n              dup3\n                /* \"#utility.yul\":1368:1392   */\n              tag_66\n              jump\t// in\n            tag_111:\n                /* \"#utility.yul\":1357:1392   */\n              swap1\n              pop\n                /* \"#utility.yul\":1302:1398   */\n              swap2\n              swap1\n              pop\n              jump\t// out\n                /* \"#utility.yul\":1404:1522   */\n            tag_68:\n                /* \"#utility.yul\":1491:1515   */\n              tag_113\n                /* \"#utility.yul\":1509:1514   */\n              dup2\n                /* \"#utility.yul\":1491:1515   */\n              tag_67\n              jump\t// in\n            tag_113:\n                /* \"#utility.yul\":1486:1489   */\n              dup3\n                /* \"#utility.yul\":1479:1516   */\n              mstore\n                /* \"#utility.yul\":1404:1522   */\n              pop\n              pop\n              jump\t// out\n                /* \"#utility.yul\":1528:1627   */\n            tag_69:\n                /* \"#utility.yul\":1580:1586   */\n              0x00\n                /* \"#utility.yul\":1614:1619   */\n              dup2\n                /* \"#utility.yul\":1608:1620   */\n              mload\n                /* \"#utility.yul\":1598:1620   */\n              swap1\n              pop\n                /* \"#utility.yul\":1528:1627   */\n              swap2\n              swap1\n              pop\n              jump\t// out\n                /* \"#utility.yul\":1633:1802   */\n            tag_70:\n                /* \"#utility.yul\":1717:1728   */\n              0x00\n                /* \"#utility.yul\":1751:1757   */\n              dup3\n                /* \"#utility.yul\":1746:1749   */\n              dup3\n                /* \"#utility.yul\":1739:1758   */\n              mstore\n                /* \"#utility.yul\":1791:1795   */\n              0x20\n                /* \"#utility.yul\":1786:1789   */\n              dup3\n                /* \"#utility.yul\":1782:1796   */\n              add\n                /* \"#utility.yul\":1767:1796   */\n              swap1\n              pop\n                /* \"#utility.yul\":1633:1802   */\n              swap3\n              swap2\n              pop\n              pop\n              jump\t// out\n                /* \"#utility.yul\":1808:2115   */\n            tag_71:\n                /* \"#utility.yul\":1876:1877   */\n              0x00\n                /* \"#utility.yul\":1886:1999   */\n            tag_117:\n                /* \"#utility.yul\":1900:1906   */\n              dup4\n                /* \"#utility.yul\":1897:1898   */\n              dup2\n                /* \"#utility.yul\":1894:1907   */\n              lt\n                /* \"#utility.yul\":1886:1999   */\n              iszero\n              tag_119\n              jumpi\n                /* \"#utility.yul\":1985:1986   */\n              dup1\n                /* \"#utility.yul\":1980:1983   */\n              dup3\n                /* \"#utility.yul\":1976:1987   */\n              add\n                /* \"#utility.yul\":1970:1988   */\n              mload\n                /* \"#utility.yul\":1966:1967   */\n              dup2\n                /* \"#utility.yul\":1961:1964   */\n              dup5\n                /* \"#utility.yul\":1957:1968   */\n              add\n                /* \"#utility.yul\":1950:1989   */\n              mstore\n                /* \"#utility.yul\":1922:1924   */\n              0x20\n                /* \"#utility.yul\":1919:1920   */\n              dup2\n                /* \"#utility.yul\":1915:1925   */\n              add\n                /* \"#utility.yul\":1910:1925   */\n              swap1\n              pop\n                /* \"#utility.yul\":1886:1999   */\n              jump(tag_117)\n            tag_119:\n                /* \"#utility.yul\":2017:2023   */\n              dup4\n                /* \"#utility.yul\":2014:2015   */\n              dup2\n                /* \"#utility.yul\":2011:2024   */\n              gt\n                /* \"#utility.yul\":2008:2109   */\n              iszero\n              tag_120\n              jumpi\n                /* \"#utility.yul\":2097:2098   */\n              0x00\n                /* \"#utility.yul\":2088:2094   */\n              dup5\n                /* \"#utility.yul\":2083:2086   */\n              dup5\n                /* \"#utility.yul\":2079:2095   */\n              add\n                /* \"#utility.yul\":2072:2099   */\n              mstore\n                /* \"#utility.yul\":2008:2109   */\n            tag_120:\n                /* \"#utility.yul\":1857:2115   */\n              pop\n                /* \"#utility.yul\":1808:2115   */\n              pop\n              pop\n              pop\n              jump\t// out\n                /* \"#utility.yul\":2121:2223   */\n            tag_72:\n                /* \"#utility.yul\":2162:2168   */\n              0x00\n                /* \"#utility.yul\":2213:2215   */\n              0x1f\n                /* \"#utility.yul\":2209:2216   */\n              not\n                /* \"#utility.yul\":2204:2206   */\n              0x1f\n                /* \"#utility.yul\":2197:2202   */\n              dup4\n                /* \"#utility.yul\":2193:2207   */\n              add\n                /* \"#utility.yul\":2189:2217   */\n              and\n                /* \"#utility.yul\":2179:2217   */\n              swap1\n              pop\n                /* \"#utility.yul\":2121:2223   */\n              swap2\n              swap1\n              pop\n              jump\t// out\n                /* \"#utility.yul\":2229:2593   */\n            tag_73:\n                /* \"#utility.yul\":2317:2320   */\n              0x00\n                /* \"#utility.yul\":2345:2384   */\n              tag_123\n                /* \"#utility.yul\":2378:2383   */\n              dup3\n                /* \"#utility.yul\":2345:2384   */\n              tag_69\n              jump\t// in\n            tag_123:\n                /* \"#utility.yul\":2400:2471   */\n              tag_124\n                /* \"#utility.yul\":2464:2470   */\n              dup2\n                /* \"#utility.yul\":2459:2462   */\n              dup6\n                /* \"#utility.yul\":2400:2471   */\n              tag_70\n              jump\t// in\n            tag_124:\n                /* \"#utility.yul\":2393:2471   */\n              swap4\n              pop\n                /* \"#utility.yul\":2480:2532   */\n              tag_125\n                /* \"#utility.yul\":2525:2531   */\n              dup2\n                /* \"#utility.yul\":2520:2523   */\n              dup6\n                /* \"#utility.yul\":2513:2517   */\n              0x20\n                /* \"#utility.yul\":2506:2511   */\n              dup7\n                /* \"#utility.yul\":2502:2518   */\n              add\n                /* \"#utility.yul\":2480:2532   */\n              tag_71\n              jump\t// in\n            tag_125:\n                /* \"#utility.yul\":2557:2586   */\n              tag_126\n                /* \"#utility.yul\":2579:2585   */\n              dup2\n                /* \"#utility.yul\":2557:2586   */\n              tag_72\n              jump\t// in\n            tag_126:\n                /* \"#utility.yul\":2552:2555   */\n              dup5\n                /* \"#utility.yul\":2548:2587   */\n              add\n                /* \"#utility.yul\":2541:2587   */\n              swap2\n              pop\n                /* \"#utility.yul\":2321:2593   */\n              pop\n                /* \"#utility.yul\":2229:2593   */\n              swap3\n              swap2\n              pop\n              pop\n              jump\t// out\n                /* \"#utility.yul\":2599:2713   */\n            tag_74:\n                /* \"#utility.yul\":2666:2672   */\n              0x00\n                /* \"#utility.yul\":2700:2705   */\n              dup2\n                /* \"#utility.yul\":2694:2706   */\n              mload\n                /* \"#utility.yul\":2684:2706   */\n              swap1\n              pop\n                /* \"#utility.yul\":2599:2713   */\n              swap2\n              swap1\n              pop\n              jump\t// out\n                /* \"#utility.yul\":2719:2903   */\n            tag_75:\n                /* \"#utility.yul\":2818:2829   */\n              0x00\n                /* \"#utility.yul\":2852:2858   */\n              dup3\n                /* \"#utility.yul\":2847:2850   */\n              dup3\n                /* \"#utility.yul\":2840:2859   */\n              mstore\n                /* \"#utility.yul\":2892:2896   */\n              0x20\n                /* \"#utility.yul\":2887:2890   */\n              dup3\n                /* \"#utility.yul\":2883:2897   */\n              add\n                /* \"#utility.yul\":2868:2897   */\n              swap1\n              pop\n                /* \"#utility.yul\":2719:2903   */\n              swap3\n              swap2\n              pop\n              pop\n              jump\t// out\n                /* \"#utility.yul\":2909:3041   */\n            tag_76:\n                /* \"#utility.yul\":2976:2980   */\n              0x00\n                /* \"#utility.yul\":2999:3002   */\n              dup2\n                /* \"#utility.yul\":2991:3002   */\n              swap1\n              pop\n                /* \"#utility.yul\":3029:3033   */\n              0x20\n                /* \"#utility.yul\":3024:3027   */\n              dup3\n                /* \"#utility.yul\":3020:3034   */\n              add\n                /* \"#utility.yul\":3012:3034   */\n              swap1\n              pop\n                /* \"#utility.yul\":2909:3041   */\n              swap2\n              swap1\n              pop\n              jump\t// out\n                /* \"#utility.yul\":3047:3155   */\n            tag_77:\n                /* \"#utility.yul\":3124:3148   */\n              tag_131\n                /* \"#utility.yul\":3142:3147   */\n              dup2\n                /* \"#utility.yul\":3124:3148   */\n              tag_63\n              jump\t// in\n            tag_131:\n                /* \"#utility.yul\":3119:3122   */\n              dup3\n                /* \"#utility.yul\":3112:3149   */\n              mstore\n                /* \"#utility.yul\":3047:3155   */\n              pop\n              pop\n              jump\t// out\n                /* \"#utility.yul\":3161:3340   */\n            tag_78:\n                /* \"#utility.yul\":3230:3240   */\n              0x00\n                /* \"#utility.yul\":3251:3297   */\n              tag_133\n                /* \"#utility.yul\":3293:3296   */\n              dup4\n                /* \"#utility.yul\":3285:3291   */\n              dup4\n                /* \"#utility.yul\":3251:3297   */\n              tag_77\n              jump\t// in\n            tag_133:\n                /* \"#utility.yul\":3329:3333   */\n              0x20\n                /* \"#utility.yul\":3324:3327   */\n              dup4\n                /* \"#utility.yul\":3320:3334   */\n              add\n                /* \"#utility.yul\":3306:3334   */\n              swap1\n              pop\n                /* \"#utility.yul\":3161:3340   */\n              swap3\n              swap2\n              pop\n              pop\n              jump\t// out\n                /* \"#utility.yul\":3346:3459   */\n            tag_79:\n                /* \"#utility.yul\":3416:3420   */\n              0x00\n                /* \"#utility.yul\":3448:3452   */\n              0x20\n                /* \"#utility.yul\":3443:3446   */\n              dup3\n                /* \"#utility.yul\":3439:3453   */\n              add\n                /* \"#utility.yul\":3431:3453   */\n              swap1\n              pop\n                /* \"#utility.yul\":3346:3459   */\n              swap2\n              swap1\n              pop\n              jump\t// out\n                /* \"#utility.yul\":3495:4227   */\n            tag_80:\n                /* \"#utility.yul\":3614:3617   */\n              0x00\n                /* \"#utility.yul\":3643:3697   */\n              tag_136\n                /* \"#utility.yul\":3691:3696   */\n              dup3\n                /* \"#utility.yul\":3643:3697   */\n              tag_74\n              jump\t// in\n            tag_136:\n                /* \"#utility.yul\":3713:3799   */\n              tag_137\n                /* \"#utility.yul\":3792:3798   */\n              dup2\n                /* \"#utility.yul\":3787:3790   */\n              dup6\n                /* \"#utility.yul\":3713:3799   */\n              tag_75\n              jump\t// in\n            tag_137:\n                /* \"#utility.yul\":3706:3799   */\n              swap4\n              pop\n                /* \"#utility.yul\":3823:3879   */\n              tag_138\n                /* \"#utility.yul\":3873:3878   */\n              dup4\n                /* \"#utility.yul\":3823:3879   */\n              tag_76\n              jump\t// in\n            tag_138:\n                /* \"#utility.yul\":3902:3909   */\n              dup1\n                /* \"#utility.yul\":3933:3934   */\n              0x00\n                /* \"#utility.yul\":3918:4202   */\n            tag_139:\n                /* \"#utility.yul\":3943:3949   */\n              dup4\n                /* \"#utility.yul\":3940:3941   */\n              dup2\n                /* \"#utility.yul\":3937:3950   */\n              lt\n                /* \"#utility.yul\":3918:4202   */\n              iszero\n              tag_141\n              jumpi\n                /* \"#utility.yul\":4019:4025   */\n              dup2\n                /* \"#utility.yul\":4013:4026   */\n              mload\n                /* \"#utility.yul\":4046:4109   */\n              tag_142\n                /* \"#utility.yul\":4105:4108   */\n              dup9\n                /* \"#utility.yul\":4090:4103   */\n              dup3\n                /* \"#utility.yul\":4046:4109   */\n              tag_78\n              jump\t// in\n            tag_142:\n                /* \"#utility.yul\":4039:4109   */\n              swap8\n              pop\n                /* \"#utility.yul\":4132:4192   */\n              tag_143\n                /* \"#utility.yul\":4185:4191   */\n              dup4\n                /* \"#utility.yul\":4132:4192   */\n              tag_79\n              jump\t// in\n            tag_143:\n                /* \"#utility.yul\":4122:4192   */\n              swap3\n              pop\n                /* \"#utility.yul\":3978:4202   */\n              pop\n                /* \"#utility.yul\":3965:3966   */\n              0x01\n                /* \"#utility.yul\":3962:3963   */\n              dup2\n                /* \"#utility.yul\":3958:3967   */\n              add\n                /* \"#utility.yul\":3953:3967   */\n              swap1\n              pop\n                /* \"#utility.yul\":3918:4202   */\n              jump(tag_139)\n            tag_141:\n                /* \"#utility.yul\":3922:3936   */\n              pop\n                /* \"#utility.yul\":4218:4221   */\n              dup6\n                /* \"#utility.yul\":4211:4221   */\n              swap4\n              pop\n                /* \"#utility.yul\":3619:4227   */\n              pop\n              pop\n              pop\n                /* \"#utility.yul\":3495:4227   */\n              swap3\n              swap2\n              pop\n              pop\n              jump\t// out\n                /* \"#utility.yul\":4233:5179   */\n            tag_14:\n                /* \"#utility.yul\":4530:4534   */\n              0x00\n                /* \"#utility.yul\":4568:4571   */\n              0x80\n                /* \"#utility.yul\":4557:4566   */\n              dup3\n                /* \"#utility.yul\":4553:4572   */\n              add\n                /* \"#utility.yul\":4545:4572   */\n              swap1\n              pop\n                /* \"#utility.yul\":4582:4653   */\n              tag_145\n                /* \"#utility.yul\":4650:4651   */\n              0x00\n                /* \"#utility.yul\":4639:4648   */\n              dup4\n                /* \"#utility.yul\":4635:4652   */\n              add\n                /* \"#utility.yul\":4626:4632   */\n              dup8\n                /* \"#utility.yul\":4582:4653   */\n              tag_68\n              jump\t// in\n            tag_145:\n                /* \"#utility.yul\":4700:4709   */\n              dup2\n                /* \"#utility.yul\":4694:4698   */\n              dup2\n                /* \"#utility.yul\":4690:4710   */\n              sub\n                /* \"#utility.yul\":4685:4687   */\n              0x20\n                /* \"#utility.yul\":4674:4683   */\n              dup4\n                /* \"#utility.yul\":4670:4688   */\n              add\n                /* \"#utility.yul\":4663:4711   */\n              mstore\n                /* \"#utility.yul\":4728:4806   */\n              tag_146\n                /* \"#utility.yul\":4801:4805   */\n              dup2\n                /* \"#utility.yul\":4792:4798   */\n              dup7\n                /* \"#utility.yul\":4728:4806   */\n              tag_73\n              jump\t// in\n            tag_146:\n                /* \"#utility.yul\":4720:4806   */\n              swap1\n              pop\n                /* \"#utility.yul\":4853:4862   */\n              dup2\n                /* \"#utility.yul\":4847:4851   */\n              dup2\n                /* \"#utility.yul\":4843:4863   */\n              sub\n                /* \"#utility.yul\":4838:4840   */\n              0x40\n                /* \"#utility.yul\":4827:4836   */\n              dup4\n                /* \"#utility.yul\":4823:4841   */\n              add\n                /* \"#utility.yul\":4816:4864   */\n              mstore\n                /* \"#utility.yul\":4881:4989   */\n              tag_147\n                /* \"#utility.yul\":4984:4988   */\n              dup2\n                /* \"#utility.yul\":4975:4981   */\n              dup6\n                /* \"#utility.yul\":4881:4989   */\n              tag_80\n              jump\t// in\n            tag_147:\n                /* \"#utility.yul\":4873:4989   */\n              swap1\n              pop\n                /* \"#utility.yul\":5036:5045   */\n              dup2\n                /* \"#utility.yul\":5030:5034   */\n              dup2\n                /* \"#utility.yul\":5026:5046   */\n              sub\n                /* \"#utility.yul\":5021:5023   */\n              0x60\n                /* \"#utility.yul\":5010:5019   */\n              dup4\n                /* \"#utility.yul\":5006:5024   */\n              add\n                /* \"#utility.yul\":4999:5047   */\n              mstore\n                /* \"#utility.yul\":5064:5172   */\n              tag_148\n                /* \"#utility.yul\":5167:5171   */\n              dup2\n                /* \"#utility.yul\":5158:5164   */\n              dup5\n                /* \"#utility.yul\":5064:5172   */\n              tag_80\n              jump\t// in\n            tag_148:\n                /* \"#utility.yul\":5056:5172   */\n              swap1\n              pop\n                /* \"#utility.yul\":4233:5179   */\n              swap6\n              swap5\n              pop\n              pop\n              pop\n              pop\n              pop\n              jump\t// out\n                /* \"#utility.yul\":5185:5307   */\n            tag_81:\n                /* \"#utility.yul\":5258:5282   */\n              tag_150\n                /* \"#utility.yul\":5276:5281   */\n              dup2\n                /* \"#utility.yul\":5258:5282   */\n              tag_67\n              jump\t// in\n            tag_150:\n                /* \"#utility.yul\":5251:5256   */\n              dup2\n                /* \"#utility.yul\":5248:5283   */\n              eq\n                /* \"#utility.yul\":5238:5301   */\n              tag_151\n              jumpi\n                /* \"#utility.yul\":5297:5298   */\n              0x00\n                /* \"#utility.yul\":5294:5295   */\n              dup1\n                /* \"#utility.yul\":5287:5299   */\n              revert\n                /* \"#utility.yul\":5238:5301   */\n            tag_151:\n                /* \"#utility.yul\":5185:5307   */\n              pop\n              jump\t// out\n                /* \"#utility.yul\":5313:5452   */\n            tag_82:\n                /* \"#utility.yul\":5359:5364   */\n              0x00\n                /* \"#utility.yul\":5397:5403   */\n              dup2\n                /* \"#utility.yul\":5384:5404   */\n              calldataload\n                /* \"#utility.yul\":5375:5404   */\n              swap1\n              pop\n                /* \"#utility.yul\":5413:5446   */\n              tag_153\n                /* \"#utility.yul\":5440:5445   */\n              dup2\n                /* \"#utility.yul\":5413:5446   */\n              tag_81\n              jump\t// in\n            tag_153:\n                /* \"#utility.yul\":5313:5452   */\n              swap3\n              swap2\n              pop\n              pop\n              jump\t// out\n                /* \"#utility.yul\":5458:5787   */\n            tag_17:\n                /* \"#utility.yul\":5517:5523   */\n              0x00\n                /* \"#utility.yul\":5566:5568   */\n              0x20\n                /* \"#utility.yul\":5554:5563   */\n              dup3\n                /* \"#utility.yul\":5545:5552   */\n              dup5\n                /* \"#utility.yul\":5541:5564   */\n              sub\n                /* \"#utility.yul\":5537:5569   */\n              slt\n                /* \"#utility.yul\":5534:5653   */\n              iszero\n              tag_155\n              jumpi\n                /* \"#utility.yul\":5572:5651   */\n              tag_156\n              tag_61\n              jump\t// in\n            tag_156:\n                /* \"#utility.yul\":5534:5653   */\n            tag_155:\n                /* \"#utility.yul\":5692:5693   */\n              0x00\n                /* \"#utility.yul\":5717:5770   */\n              tag_157\n                /* \"#utility.yul\":5762:5769   */\n              dup5\n                /* \"#utility.yul\":5753:5759   */\n              dup3\n                /* \"#utility.yul\":5742:5751   */\n              dup6\n                /* \"#utility.yul\":5738:5760   */\n              add\n                /* \"#utility.yul\":5717:5770   */\n              tag_82\n              jump\t// in\n            tag_157:\n                /* \"#utility.yul\":5707:5770   */\n              swap2\n              pop\n                /* \"#utility.yul\":5663:5780   */\n              pop\n                /* \"#utility.yul\":5458:5787   */\n              swap3\n              swap2\n              pop\n              pop\n              jump\t// out\n                /* \"#utility.yul\":5793:5910   */\n            tag_83:\n                /* \"#utility.yul\":5902:5903   */\n              0x00\n                /* \"#utility.yul\":5899:5900   */\n              dup1\n                /* \"#utility.yul\":5892:5904   */\n              revert\n                /* \"#utility.yul\":5916:6033   */\n            tag_84:\n                /* \"#utility.yul\":6025:6026   */\n              0x00\n                /* \"#utility.yul\":6022:6023   */\n              dup1\n                /* \"#utility.yul\":6015:6027   */\n              revert\n                /* \"#utility.yul\":6039:6219   */\n            tag_85:\n                /* \"#utility.yul\":6087:6164   */\n              0x4e487b7100000000000000000000000000000000000000000000000000000000\n                /* \"#utility.yul\":6084:6085   */\n              0x00\n                /* \"#utility.yul\":6077:6165   */\n              mstore\n                /* \"#utility.yul\":6184:6188   */\n              0x41\n                /* \"#utility.yul\":6181:6182   */\n              0x04\n                /* \"#utility.yul\":6174:6189   */\n              mstore\n                /* \"#utility.yul\":6208:6212   */\n              0x24\n                /* \"#utility.yul\":6205:6206   */\n              0x00\n                /* \"#utility.yul\":6198:6213   */\n              revert\n                /* \"#utility.yul\":6225:6506   */\n            tag_86:\n                /* \"#utility.yul\":6308:6335   */\n              tag_162\n                /* \"#utility.yul\":6330:6334   */\n              dup3\n                /* \"#utility.yul\":6308:6335   */\n              tag_72\n              jump\t// in\n            tag_162:\n                /* \"#utility.yul\":6300:6306   */\n              dup2\n                /* \"#utility.yul\":6296:6336   */\n              add\n                /* \"#utility.yul\":6438:6444   */\n              dup2\n                /* \"#utility.yul\":6426:6436   */\n              dup2\n                /* \"#utility.yul\":6423:6445   */\n              lt\n                /* \"#utility.yul\":6402:6420   */\n              0xffffffffffffffff\n                /* \"#utility.yul\":6390:6400   */\n              dup3\n                /* \"#utility.yul\":6387:6421   */\n              gt\n                /* \"#utility.yul\":6384:6446   */\n              or\n                /* \"#utility.yul\":6381:6469   */\n              iszero\n              tag_163\n              jumpi\n                /* \"#utility.yul\":6449:6467   */\n              tag_164\n              tag_85\n              jump\t// in\n            tag_164:\n                /* \"#utility.yul\":6381:6469   */\n            tag_163:\n                /* \"#utility.yul\":6489:6499   */\n              dup1\n                /* \"#utility.yul\":6485:6487   */\n              0x40\n                /* \"#utility.yul\":6478:6500   */\n              mstore\n                /* \"#utility.yul\":6268:6506   */\n              pop\n                /* \"#utility.yul\":6225:6506   */\n              pop\n              pop\n              jump\t// out\n                /* \"#utility.yul\":6512:6641   */\n            tag_87:\n                /* \"#utility.yul\":6546:6552   */\n              0x00\n                /* \"#utility.yul\":6573:6593   */\n              tag_166\n              tag_60\n              jump\t// in\n            tag_166:\n                /* \"#utility.yul\":6563:6593   */\n              swap1\n              pop\n                /* \"#utility.yul\":6602:6635   */\n              tag_167\n                /* \"#utility.yul\":6630:6634   */\n              dup3\n                /* \"#utility.yul\":6622:6628   */\n              dup3\n                /* \"#utility.yul\":6602:6635   */\n              tag_86\n              jump\t// in\n            tag_167:\n                /* \"#utility.yul\":6512:6641   */\n              swap2\n              swap1\n              pop\n              jump\t// out\n                /* \"#utility.yul\":6647:6955   */\n            tag_88:\n                /* \"#utility.yul\":6709:6713   */\n              0x00\n                /* \"#utility.yul\":6799:6817   */\n              0xffffffffffffffff\n                /* \"#utility.yul\":6791:6797   */\n              dup3\n                /* \"#utility.yul\":6788:6818   */\n              gt\n                /* \"#utility.yul\":6785:6841   */\n              iszero\n              tag_169\n              jumpi\n                /* \"#utility.yul\":6821:6839   */\n              tag_170\n              tag_85\n              jump\t// in\n            tag_170:\n                /* \"#utility.yul\":6785:6841   */\n            tag_169:\n                /* \"#utility.yul\":6859:6888   */\n              tag_171\n                /* \"#utility.yul\":6881:6887   */\n              dup3\n                /* \"#utility.yul\":6859:6888   */\n              tag_72\n              jump\t// in\n            tag_171:\n                /* \"#utility.yul\":6851:6888   */\n              swap1\n              pop\n                /* \"#utility.yul\":6943:6947   */\n              0x20\n                /* \"#utility.yul\":6937:6941   */\n              dup2\n                /* \"#utility.yul\":6933:6948   */\n              add\n                /* \"#utility.yul\":6925:6948   */\n              swap1\n              pop\n                /* \"#utility.yul\":6647:6955   */\n              swap2\n              swap1\n              pop\n              jump\t// out\n                /* \"#utility.yul\":6961:7115   */\n            tag_89:\n                /* \"#utility.yul\":7045:7051   */\n              dup3\n                /* \"#utility.yul\":7040:7043   */\n              dup2\n                /* \"#utility.yul\":7035:7038   */\n              dup4\n                /* \"#utility.yul\":7022:7052   */\n              calldatacopy\n                /* \"#utility.yul\":7107:7108   */\n              0x00\n                /* \"#utility.yul\":7098:7104   */\n              dup4\n                /* \"#utility.yul\":7093:7096   */\n              dup4\n                /* \"#utility.yul\":7089:7105   */\n              add\n                /* \"#utility.yul\":7082:7109   */\n              mstore\n                /* \"#utility.yul\":6961:7115   */\n              pop\n              pop\n              pop\n              jump\t// out\n                /* \"#utility.yul\":7121:7533   */\n            tag_90:\n                /* \"#utility.yul\":7199:7204   */\n              0x00\n                /* \"#utility.yul\":7224:7290   */\n              tag_174\n                /* \"#utility.yul\":7240:7289   */\n              tag_175\n                /* \"#utility.yul\":7282:7288   */\n              dup5\n                /* \"#utility.yul\":7240:7289   */\n              tag_88\n              jump\t// in\n            tag_175:\n                /* \"#utility.yul\":7224:7290   */\n              tag_87\n              jump\t// in\n            tag_174:\n                /* \"#utility.yul\":7215:7290   */\n              swap1\n              pop\n                /* \"#utility.yul\":7313:7319   */\n              dup3\n                /* \"#utility.yul\":7306:7311   */\n              dup2\n                /* \"#utility.yul\":7299:7320   */\n              mstore\n                /* \"#utility.yul\":7351:7355   */\n              0x20\n                /* \"#utility.yul\":7344:7349   */\n              dup2\n                /* \"#utility.yul\":7340:7356   */\n              add\n                /* \"#utility.yul\":7389:7392   */\n              dup5\n                /* \"#utility.yul\":7380:7386   */\n              dup5\n                /* \"#utility.yul\":7375:7378   */\n              dup5\n                /* \"#utility.yul\":7371:7387   */\n              add\n                /* \"#utility.yul\":7368:7393   */\n              gt\n                /* \"#utility.yul\":7365:7477   */\n              iszero\n              tag_176\n              jumpi\n                /* \"#utility.yul\":7396:7475   */\n              tag_177\n              tag_84\n              jump\t// in\n            tag_177:\n                /* \"#utility.yul\":7365:7477   */\n            tag_176:\n                /* \"#utility.yul\":7486:7527   */\n              tag_178\n                /* \"#utility.yul\":7520:7526   */\n              dup5\n                /* \"#utility.yul\":7515:7518   */\n              dup3\n                /* \"#utility.yul\":7510:7513   */\n              dup6\n                /* \"#utility.yul\":7486:7527   */\n              tag_89\n              jump\t// in\n            tag_178:\n                /* \"#utility.yul\":7205:7533   */\n              pop\n                /* \"#utility.yul\":7121:7533   */\n              swap4\n              swap3\n              pop\n              pop\n              pop\n              jump\t// out\n                /* \"#utility.yul\":7553:7893   */\n            tag_91:\n                /* \"#utility.yul\":7609:7614   */\n              0x00\n                /* \"#utility.yul\":7658:7661   */\n              dup3\n                /* \"#utility.yul\":7651:7655   */\n              0x1f\n                /* \"#utility.yul\":7643:7649   */\n              dup4\n                /* \"#utility.yul\":7639:7656   */\n              add\n                /* \"#utility.yul\":7635:7662   */\n              slt\n                /* \"#utility.yul\":7625:7747   */\n              tag_180\n              jumpi\n                /* \"#utility.yul\":7666:7745   */\n              tag_181\n              tag_83\n              jump\t// in\n            tag_181:\n                /* \"#utility.yul\":7625:7747   */\n            tag_180:\n                /* \"#utility.yul\":7783:7789   */\n              dup2\n                /* \"#utility.yul\":7770:7790   */\n              calldataload\n                /* \"#utility.yul\":7808:7887   */\n              tag_182\n                /* \"#utility.yul\":7883:7886   */\n              dup5\n                /* \"#utility.yul\":7875:7881   */\n              dup3\n                /* \"#utility.yul\":7868:7872   */\n              0x20\n                /* \"#utility.yul\":7860:7866   */\n              dup7\n                /* \"#utility.yul\":7856:7873   */\n              add\n                /* \"#utility.yul\":7808:7887   */\n              tag_90\n              jump\t// in\n            tag_182:\n                /* \"#utility.yul\":7799:7887   */\n              swap2\n              pop\n                /* \"#utility.yul\":7615:7893   */\n              pop\n                /* \"#utility.yul\":7553:7893   */\n              swap3\n              swap2\n              pop\n              pop\n              jump\t// out\n                /* \"#utility.yul\":7899:8408   */\n            tag_21:\n                /* \"#utility.yul\":7968:7974   */\n              0x00\n                /* \"#utility.yul\":8017:8019   */\n              0x20\n                /* \"#utility.yul\":8005:8014   */\n              dup3\n                /* \"#utility.yul\":7996:8003   */\n              dup5\n                /* \"#utility.yul\":7992:8015   */\n              sub\n                /* \"#utility.yul\":7988:8020   */\n              slt\n                /* \"#utility.yul\":7985:8104   */\n              iszero\n              tag_184\n              jumpi\n                /* \"#utility.yul\":8023:8102   */\n              tag_185\n              tag_61\n              jump\t// in\n            tag_185:\n                /* \"#utility.yul\":7985:8104   */\n            tag_184:\n                /* \"#utility.yul\":8171:8172   */\n              0x00\n                /* \"#utility.yul\":8160:8169   */\n              dup3\n                /* \"#utility.yul\":8156:8173   */\n              add\n                /* \"#utility.yul\":8143:8174   */\n              calldataload\n                /* \"#utility.yul\":8201:8219   */\n              0xffffffffffffffff\n                /* \"#utility.yul\":8193:8199   */\n              dup2\n                /* \"#utility.yul\":8190:8220   */\n              gt\n                /* \"#utility.yul\":8187:8304   */\n              iszero\n              tag_186\n              jumpi\n                /* \"#utility.yul\":8223:8302   */\n              tag_187\n              tag_62\n              jump\t// in\n            tag_187:\n                /* \"#utility.yul\":8187:8304   */\n            tag_186:\n                /* \"#utility.yul\":8328:8391   */\n              tag_188\n                /* \"#utility.yul\":8383:8390   */\n              dup5\n                /* \"#utility.yul\":8374:8380   */\n              dup3\n                /* \"#utility.yul\":8363:8372   */\n              dup6\n                /* \"#utility.yul\":8359:8381   */\n              add\n                /* \"#utility.yul\":8328:8391   */\n              tag_91\n              jump\t// in\n            tag_188:\n                /* \"#utility.yul\":8318:8391   */\n              swap2\n              pop\n                /* \"#utility.yul\":8114:8401   */\n              pop\n                /* \"#utility.yul\":7899:8408   */\n              swap3\n              swap2\n              pop\n              pop\n              jump\t// out\n                /* \"#utility.yul\":8414:8594   */\n            tag_92:\n                /* \"#utility.yul\":8462:8539   */\n              0x4e487b7100000000000000000000000000000000000000000000000000000000\n                /* \"#utility.yul\":8459:8460   */\n              0x00\n                /* \"#utility.yul\":8452:8540   */\n              mstore\n                /* \"#utility.yul\":8559:8563   */\n              0x11\n                /* \"#utility.yul\":8556:8557   */\n              0x04\n                /* \"#utility.yul\":8549:8564   */\n              mstore\n                /* \"#utility.yul\":8583:8587   */\n              0x24\n                /* \"#utility.yul\":8580:8581   */\n              0x00\n                /* \"#utility.yul\":8573:8588   */\n              revert\n                /* \"#utility.yul\":8600:8833   */\n            tag_28:\n                /* \"#utility.yul\":8639:8642   */\n              0x00\n                /* \"#utility.yul\":8662:8686   */\n              tag_191\n                /* \"#utility.yul\":8680:8685   */\n              dup3\n                /* \"#utility.yul\":8662:8686   */\n              tag_63\n              jump\t// in\n            tag_191:\n                /* \"#utility.yul\":8653:8686   */\n              swap2\n              pop\n                /* \"#utility.yul\":8708:8774   */\n              0xffffffffffffffffffffffffffffffffffffffffffffffffffffffffffffffff\n                /* \"#utility.yul\":8701:8706   */\n              dup3\n                /* \"#utility.yul\":8698:8775   */\n              sub\n                /* \"#utility.yul\":8695:8798   */\n              tag_192\n              jumpi\n                /* \"#utility.yul\":8778:8796   */\n              tag_193\n              tag_92\n              jump\t// in\n            tag_193:\n                /* \"#utility.yul\":8695:8798   */\n            tag_192:\n                /* \"#utility.yul\":8825:8826   */\n              0x01\n                /* \"#utility.yul\":8818:8823   */\n              dup3\n                /* \"#utility.yul\":8814:8827   */\n              add\n                /* \"#utility.yul\":8807:8827   */\n              swap1\n              pop\n                /* \"#utility.yul\":8600:8833   */\n              swap2\n              swap1\n              pop\n              jump\t// out\n                /* \"#utility.yul\":8839:9019   */\n            tag_93:\n                /* \"#utility.yul\":8887:8964   */\n              0x4e487b7100000000000000000000000000000000000000000000000000000000\n                /* \"#utility.yul\":8884:8885   */\n              0x00\n                /* \"#utility.yul\":8877:8965   */\n              mstore\n                /* \"#utility.yul\":8984:8988   */\n              0x22\n                /* \"#utility.yul\":8981:8982   */\n              0x04\n                /* \"#utility.yul\":8974:8989   */\n              mstore\n                /* \"#utility.yul\":9008:9012   */\n              0x24\n                /* \"#utility.yul\":9005:9006   */\n              0x00\n                /* \"#utility.yul\":8998:9013   */\n              revert\n                /* \"#utility.yul\":9025:9345   */\n            tag_33:\n                /* \"#utility.yul\":9069:9075   */\n              0x00\n                /* \"#utility.yul\":9106:9107   */\n              0x02\n                /* \"#utility.yul\":9100:9104   */\n              dup3\n                /* \"#utility.yul\":9096:9108   */\n              div\n                /* \"#utility.yul\":9086:9108   */\n              swap1\n              pop\n                /* \"#utility.yul\":9153:9154   */\n              0x01\n                /* \"#utility.yul\":9147:9151   */\n              dup3\n                /* \"#utility.yul\":9143:9155   */\n              and\n                /* \"#utility.yul\":9174:9192   */\n              dup1\n                /* \"#utility.yul\":9164:9245   */\n              tag_196\n              jumpi\n                /* \"#utility.yul\":9230:9234   */\n              0x7f\n                /* \"#utility.yul\":9222:9228   */\n              dup3\n                /* \"#utility.yul\":9218:9235   */\n              and\n                /* \"#utility.yul\":9208:9235   */\n              swap2\n              pop\n                /* \"#utility.yul\":9164:9245   */\n            tag_196:\n                /* \"#utility.yul\":9292:9294   */\n              0x20\n                /* \"#utility.yul\":9284:9290   */\n              dup3\n                /* \"#utility.yul\":9281:9295   */\n              lt\n                /* \"#utility.yul\":9261:9279   */\n              dup2\n                /* \"#utility.yul\":9258:9296   */\n              sub\n                /* \"#utility.yul\":9255:9339   */\n              tag_197\n              jumpi\n                /* \"#utility.yul\":9311:9329   */\n              tag_198\n              tag_93\n              jump\t// in\n            tag_198:\n                /* \"#utility.yul\":9255:9339   */\n            tag_197:\n                /* \"#utility.yul\":9076:9345   */\n              pop\n                /* \"#utility.yul\":9025:9345   */\n              swap2\n              swap1\n              pop\n              jump\t// out\n\n            auxdata: 0xa26469706673582212204a8a6adb5b485c89affbe1f9eb5a9d641bec34a0b59b2292df3a297dfe19ea4064736f6c634300080d0033\n        }\n    }\n\n    auxdata: 0xa2646970667358221220779376c3a6d5dcaa509d135ac352ac07d347e899b7662ad9bae165c7d4e1c1c464736f6c634300080d0033\n}\n","bytecode":{"linkReferences":{},"object":"608060405234801561001057600080fd5b50610f28806100206000396000f3fe608060405234801561001057600080fd5b50600436106100415760003560e01c806329abdd99146100465780639381230e14610050578063df7b3dbb14610080575b600080fd5b61004e61009e565b005b61006a60048036038101906100659190610251565b61013c565b60405161007791906102bf565b60405180910390f35b61008861017b565b6040516100959190610398565b60405180910390f35b6000336040516100ad90610209565b6100b791906102bf565b604051809103906000f0801580156100d3573d6000803e3d6000fd5b5090506000819080600181540180825580915050600190039060005260206000200160009091909190916101000a81548173ffffffffffffffffffffffffffffffffffffffff021916908373ffffffffffffffffffffffffffffffffffffffff16021790555050565b6000818154811061014c57600080fd5b906000526020600020016000915054906101000a900473ffffffffffffffffffffffffffffffffffffffff1681565b606060008054806020026020016040519081016040528092919081815260200182805480156101ff57602002820191906000526020600020905b8160009054906101000a900473ffffffffffffffffffffffffffffffffffffffff1673ffffffffffffffffffffffffffffffffffffffff16815260200190600101908083116101b5575b5050505050905090565b610b38806103bb83390190565b600080fd5b6000819050919050565b61022e8161021b565b811461023957600080fd5b50565b60008135905061024b81610225565b92915050565b60006020828403121561026757610266610216565b5b60006102758482850161023c565b91505092915050565b600073ffffffffffffffffffffffffffffffffffffffff82169050919050565b60006102a98261027e565b9050919050565b6102b98161029e565b82525050565b60006020820190506102d460008301846102b0565b92915050565b600081519050919050565b600082825260208201905092915050565b6000819050602082019050919050565b61030f8161029e565b82525050565b60006103218383610306565b60208301905092915050565b6000602082019050919050565b6000610345826102da565b61034f81856102e5565b935061035a836102f6565b8060005b8381101561038b5781516103728882610315565b975061037d8361032d565b92505060018101905061035e565b5085935050505092915050565b600060208201905081810360008301526103b2818461033a565b90509291505056fe60806040526000600455600060085534801561001a57600080fd5b50604051610b38380380610b38833981810160405281019061003c91906100e5565b806000806101000a81548173ffffffffffffffffffffffffffffffffffffffff021916908373ffffffffffffffffffffffffffffffffffffffff16021790555050610112565b600080fd5b600073ffffffffffffffffffffffffffffffffffffffff82169050919050565b60006100b282610087565b9050919050565b6100c2816100a7565b81146100cd57600080fd5b50565b6000815190506100df816100b9565b92915050565b6000602082840312156100fb576100fa610082565b5b6000610109848285016100d0565b91505092915050565b610a17806101216000396000f3fe608060405234801561001057600080fd5b506004361061004c5760003560e01c806350e2304c146100515780635690314c1461006d578063a03fa7e31461008e578063d600747c146100aa575b600080fd5b61006b60048036038101906100669190610501565b6100c6565b005b61007561019b565b60405161008594939291906106d9565b60405180910390f35b6100a860048036038101906100a3919061075f565b610307565b005b6100c460048036038101906100bf91906108c1565b6103a2565b005b3373ffffffffffffffffffffffffffffffffffffffff1660008054906101000a900473ffffffffffffffffffffffffffffffffffffffff1673ffffffffffffffffffffffffffffffffffffffff161461011e57600080fd5b60006008541461012d57600080fd5b6004600081548092919061014090610939565b9190505550600282908060018154018082558091505060019003906000526020600020016000909190919091505560038190806001815401808255809150506001900390600052602060002001600090919091909150555050565b6000606080606060008054906101000a900473ffffffffffffffffffffffffffffffffffffffff166005600260038280546101d5906109b0565b80601f0160208091040260200160405190810160405280929190818152602001828054610201906109b0565b801561024e5780601f106102235761010080835404028352916020019161024e565b820191906000526020600020905b81548152906001019060200180831161023157829003601f168201915b50505050509250818054806020026020016040519081016040528092919081815260200182805480156102a057602002820191906000526020600020905b81548152602001906001019080831161028c575b50505050509150808054806020026020016040519081016040528092919081815260200182805480156102f257602002820191906000526020600020905b8154815260200190600101908083116102de575b50505050509050935093509350935090919293565b3373ffffffffffffffffffffffffffffffffffffffff1660008054906101000a900473ffffffffffffffffffffffffffffffffffffffff1673ffffffffffffffffffffffffffffffffffffffff161461035f57600080fd5b806000806101000a81548173ffffffffffffffffffffffffffffffffffffffff021916908373ffffffffffffffffffffffffffffffffffffffff16021790555050565b3373ffffffffffffffffffffffffffffffffffffffff1660008054906101000a900473ffffffffffffffffffffffffffffffffffffffff1673ffffffffffffffffffffffffffffffffffffffff16146103fa57600080fd5b8060059080519060200190610410929190610414565b5050565b828054610420906109b0565b90600052602060002090601f0160209004810192826104425760008555610489565b82601f1061045b57805160ff1916838001178555610489565b82800160010185558215610489579182015b8281111561048857825182559160200191906001019061046d565b5b509050610496919061049a565b5090565b5b808211156104b357600081600090555060010161049b565b5090565b6000604051905090565b600080fd5b600080fd5b6000819050919050565b6104de816104cb565b81146104e957600080fd5b50565b6000813590506104fb816104d5565b92915050565b60008060408385031215610518576105176104c1565b5b6000610526858286016104ec565b9250506020610537858286016104ec565b9150509250929050565b600073ffffffffffffffffffffffffffffffffffffffff82169050919050565b600061056c82610541565b9050919050565b61057c81610561565b82525050565b600081519050919050565b600082825260208201905092915050565b60005b838110156105bc5780820151818401526020810190506105a1565b838111156105cb576000848401525b50505050565b6000601f19601f8301169050919050565b60006105ed82610582565b6105f7818561058d565b935061060781856020860161059e565b610610816105d1565b840191505092915050565b600081519050919050565b600082825260208201905092915050565b6000819050602082019050919050565b610650816104cb565b82525050565b60006106628383610647565b60208301905092915050565b6000602082019050919050565b60006106868261061b565b6106908185610626565b935061069b83610637565b8060005b838110156106cc5781516106b38882610656565b97506106be8361066e565b92505060018101905061069f565b5085935050505092915050565b60006080820190506106ee6000830187610573565b818103602083015261070081866105e2565b90508181036040830152610714818561067b565b90508181036060830152610728818461067b565b905095945050505050565b61073c81610561565b811461074757600080fd5b50565b60008135905061075981610733565b92915050565b600060208284031215610775576107746104c1565b5b60006107838482850161074a565b91505092915050565b600080fd5b600080fd5b7f4e487b7100000000000000000000000000000000000000000000000000000000600052604160045260246000fd5b6107ce826105d1565b810181811067ffffffffffffffff821117156107ed576107ec610796565b5b80604052505050565b60006108006104b7565b905061080c82826107c5565b919050565b600067ffffffffffffffff82111561082c5761082b610796565b5b610835826105d1565b9050602081019050919050565b82818337600083830152505050565b600061086461085f84610811565b6107f6565b9050828152602081018484840111156108805761087f610791565b5b61088b848285610842565b509392505050565b600082601f8301126108a8576108a761078c565b5b81356108b8848260208601610851565b91505092915050565b6000602082840312156108d7576108d66104c1565b5b600082013567ffffffffffffffff8111156108f5576108f46104c6565b5b61090184828501610893565b91505092915050565b7f4e487b7100000000000000000000000000000000000000000000000000000000600052601160045260246000fd5b6000610944826104cb565b91507fffffffffffffffffffffffffffffffffffffffffffffffffffffffffffffffff82036109765761097561090a565b5b600182019050919050565b7f4e487b7100000000000000000000000000000000000000000000000000000000600052602260045260246000fd5b600060028204905060018216806109c857607f821691505b6020821081036109db576109da610981565b5b5091905056fea26469706673582212204a8a6adb5b485c89affbe1f9eb5a9d641bec34a0b59b2292df3a297dfe19ea4064736f6c634300080d0033a2646970667358221220779376c3a6d5dcaa509d135ac352ac07d347e899b7662ad9bae165c7d4e1c1c464736f6c634300080d0033","opcodes":"PUSH1 0x80 PUSH1 0x40 MSTORE CALLVALUE DUP1 ISZERO PUSH2 0x10 JUMPI PUSH1 0x0 DUP1 REVERT JUMPDEST POP PUSH2 0xF28 DUP1 PUSH2 0x20 PUSH1 0x0 CODECOPY PUSH1 0x0 RETURN INVALID PUSH1 0x80 PUSH1 0x40 MSTORE CALLVALUE DUP1 ISZERO PUSH2 0x10 JUMPI PUSH1 0x0 DUP1 REVERT JUMPDEST POP PUSH1 0x4 CALLDATASIZE LT PUSH2 0x41 JUMPI PUSH1 0x0 CALLDATALOAD PUSH1 0xE0 SHR DUP1 PUSH4 0x29ABDD99 EQ PUSH2 0x46 JUMPI DUP1 PUSH4 0x9381230E EQ PUSH2 0x50 JUMPI DUP1 PUSH4 0xDF7B3DBB EQ PUSH2 0x80 JUMPI JUMPDEST PUSH1 0x0 DUP1 REVERT JUMPDEST PUSH2 0x4E PUSH2 0x9E JUMP JUMPDEST STOP JUMPDEST PUSH2 0x6A PUSH1 0x4 DUP1 CALLDATASIZE SUB DUP2 ADD SWAP1 PUSH2 0x65 SWAP2 SWAP1 PUSH2 0x251 JUMP JUMPDEST PUSH2 0x13C JUMP JUMPDEST PUSH1 0x40 MLOAD PUSH2 0x77 SWAP2 SWAP1 PUSH2 0x2BF JUMP JUMPDEST PUSH1 0x40 MLOAD DUP1 SWAP2 SUB SWAP1 RETURN JUMPDEST PUSH2 0x88 PUSH2 0x17B JUMP JUMPDEST PUSH1 0x40 MLOAD PUSH2 0x95 SWAP2 SWAP1 PUSH2 0x398 JUMP JUMPDEST PUSH1 0x40 MLOAD DUP1 SWAP2 SUB SWAP1 RETURN JUMPDEST PUSH1 0x0 CALLER PUSH1 0x40 MLOAD PUSH2 0xAD SWAP1 PUSH2 0x209 JUMP JUMPDEST PUSH2 0xB7 SWAP2 SWAP1 PUSH2 0x2BF JUMP JUMPDEST PUSH1 0x40 MLOAD DUP1 SWAP2 SUB SWAP1 PUSH1 0x0 CREATE DUP1 ISZERO DUP1 ISZERO PUSH2 0xD3 JUMPI RETURNDATASIZE PUSH1 0x0 DUP1 RETURNDATACOPY RETURNDATASIZE PUSH1 0x0 REVERT JUMPDEST POP SWAP1 POP PUSH1 0x0 DUP2 SWAP1 DUP1 PUSH1 0x1 DUP2 SLOAD ADD DUP1 DUP3 SSTORE DUP1 SWAP2 POP POP PUSH1 0x1 SWAP1 SUB SWAP1 PUSH1 0x0 MSTORE PUSH1 0x20 PUSH1 0x0 KECCAK256 ADD PUSH1 0x0 SWAP1 SWAP2 SWAP1 SWAP2 SWAP1 SWAP2 PUSH2 0x100 EXP DUP2 SLOAD DUP2 PUSH20 0xFFFFFFFFFFFFFFFFFFFFFFFFFFFFFFFFFFFFFFFF MUL NOT AND SWAP1 DUP4 PUSH20 0xFFFFFFFFFFFFFFFFFFFFFFFFFFFFFFFFFFFFFFFF AND MUL OR SWAP1 SSTORE POP POP JUMP JUMPDEST PUSH1 0x0 DUP2 DUP2 SLOAD DUP2 LT PUSH2 0x14C JUMPI PUSH1 0x0 DUP1 REVERT JUMPDEST SWAP1 PUSH1 0x0 MSTORE PUSH1 0x20 PUSH1 0x0 KECCAK256 ADD PUSH1 0x0 SWAP2 POP SLOAD SWAP1 PUSH2 0x100 EXP SWAP1 DIV PUSH20 0xFFFFFFFFFFFFFFFFFFFFFFFFFFFFFFFFFFFFFFFF AND DUP2 JUMP JUMPDEST PUSH1 0x60 PUSH1 0x0 DUP1 SLOAD DUP1 PUSH1 0x20 MUL PUSH1 0x20 ADD PUSH1 0x40 MLOAD SWAP1 DUP2 ADD PUSH1 0x40 MSTORE DUP1 SWAP3 SWAP2 SWAP1 DUP2 DUP2 MSTORE PUSH1 0x20 ADD DUP3 DUP1 SLOAD DUP1 ISZERO PUSH2 0x1FF JUMPI PUSH1 0x20 MUL DUP3 ADD SWAP2 SWAP1 PUSH1 0x0 MSTORE PUSH1 0x20 PUSH1 0x0 KECCAK256 SWAP1 JUMPDEST DUP2 PUSH1 0x0 SWAP1 SLOAD SWAP1 PUSH2 0x100 EXP SWAP1 DIV PUSH20 0xFFFFFFFFFFFFFFFFFFFFFFFFFFFFFFFFFFFFFFFF AND PUSH20 0xFFFFFFFFFFFFFFFFFFFFFFFFFFFFFFFFFFFFFFFF AND DUP2 MSTORE PUSH1 0x20 ADD SWAP1 PUSH1 0x1 ADD SWAP1 DUP1 DUP4 GT PUSH2 0x1B5 JUMPI JUMPDEST POP POP POP POP POP SWAP1 POP SWAP1 JUMP JUMPDEST PUSH2 0xB38 DUP1 PUSH2 0x3BB DUP4 CODECOPY ADD SWAP1 JUMP JUMPDEST PUSH1 0x0 DUP1 REVERT JUMPDEST PUSH1 0x0 DUP2 SWAP1 POP SWAP2 SWAP1 POP JUMP JUMPDEST PUSH2 0x22E DUP2 PUSH2 0x21B JUMP JUMPDEST DUP2 EQ PUSH2 0x239 JUMPI PUSH1 0x0 DUP1 REVERT JUMPDEST POP JUMP JUMPDEST PUSH1 0x0 DUP2 CALLDATALOAD SWAP1 POP PUSH2 0x24B DUP2 PUSH2 0x225 JUMP JUMPDEST SWAP3 SWAP2 POP POP JUMP JUMPDEST PUSH1 0x0 PUSH1 0x20 DUP3 DUP5 SUB SLT ISZERO PUSH2 0x267 JUMPI PUSH2 0x266 PUSH2 0x216 JUMP JUMPDEST JUMPDEST PUSH1 0x0 PUSH2 0x275 DUP5 DUP3 DUP6 ADD PUSH2 0x23C JUMP JUMPDEST SWAP2 POP POP SWAP3 SWAP2 POP POP JUMP JUMPDEST PUSH1 0x0 PUSH20 0xFFFFFFFFFFFFFFFFFFFFFFFFFFFFFFFFFFFFFFFF DUP3 AND SWAP1 POP SWAP2 SWAP1 POP JUMP JUMPDEST PUSH1 0x0 PUSH2 0x2A9 DUP3 PUSH2 0x27E JUMP JUMPDEST SWAP1 POP SWAP2 SWAP1 POP JUMP JUMPDEST PUSH2 0x2B9 DUP2 PUSH2 0x29E JUMP JUMPDEST DUP3 MSTORE POP POP JUMP JUMPDEST PUSH1 0x0 PUSH1 0x20 DUP3 ADD SWAP1 POP PUSH2 0x2D4 PUSH1 0x0 DUP4 ADD DUP5 PUSH2 0x2B0 JUMP JUMPDEST SWAP3 SWAP2 POP POP JUMP JUMPDEST PUSH1 0x0 DUP2 MLOAD SWAP1 POP SWAP2 SWAP1 POP JUMP JUMPDEST PUSH1 0x0 DUP3 DUP3 MSTORE PUSH1 0x20 DUP3 ADD SWAP1 POP SWAP3 SWAP2 POP POP JUMP JUMPDEST PUSH1 0x0 DUP2 SWAP1 POP PUSH1 0x20 DUP3 ADD SWAP1 POP SWAP2 SWAP1 POP JUMP JUMPDEST PUSH2 0x30F DUP2 PUSH2 0x29E JUMP JUMPDEST DUP3 MSTORE POP POP JUMP JUMPDEST PUSH1 0x0 PUSH2 0x321 DUP4 DUP4 PUSH2 0x306 JUMP JUMPDEST PUSH1 0x20 DUP4 ADD SWAP1 POP SWAP3 SWAP2 POP POP JUMP JUMPDEST PUSH1 0x0 PUSH1 0x20 DUP3 ADD SWAP1 POP SWAP2 SWAP1 POP JUMP JUMPDEST PUSH1 0x0 PUSH2 0x345 DUP3 PUSH2 0x2DA JUMP JUMPDEST PUSH2 0x34F DUP2 DUP6 PUSH2 0x2E5 JUMP JUMPDEST SWAP4 POP PUSH2 0x35A DUP4 PUSH2 0x2F6 JUMP JUMPDEST DUP1 PUSH1 0x0 JUMPDEST DUP4 DUP2 LT ISZERO PUSH2 0x38B JUMPI DUP2 MLOAD PUSH2 0x372 DUP9 DUP3 PUSH2 0x315 JUMP JUMPDEST SWAP8 POP PUSH2 0x37D DUP4 PUSH2 0x32D JUMP JUMPDEST SWAP3 POP POP PUSH1 0x1 DUP2 ADD SWAP1 POP PUSH2 0x35E JUMP JUMPDEST POP DUP6 SWAP4 POP POP POP POP SWAP3 SWAP2 POP POP JUMP JUMPDEST PUSH1 0x0 PUSH1 0x20 DUP3 ADD SWAP1 POP DUP2 DUP2 SUB PUSH1 0x0 DUP4 ADD MSTORE PUSH2 0x3B2 DUP2 DUP5 PUSH2 0x33A JUMP JUMPDEST SWAP1 POP SWAP3 SWAP2 POP POP JUMP INVALID PUSH1 0x80 PUSH1 0x40 MSTORE PUSH1 0x0 PUSH1 0x4 SSTORE PUSH1 0x0 PUSH1 0x8 SSTORE CALLVALUE DUP1 ISZERO PUSH2 0x1A JUMPI PUSH1 0x0 DUP1 REVERT JUMPDEST POP PUSH1 0x40 MLOAD PUSH2 0xB38 CODESIZE SUB DUP1 PUSH2 0xB38 DUP4 CODECOPY DUP2 DUP2 ADD PUSH1 0x40 MSTORE DUP2 ADD SWAP1 PUSH2 0x3C SWAP2 SWAP1 PUSH2 0xE5 JUMP JUMPDEST DUP1 PUSH1 0x0 DUP1 PUSH2 0x100 EXP DUP2 SLOAD DUP2 PUSH20 0xFFFFFFFFFFFFFFFFFFFFFFFFFFFFFFFFFFFFFFFF MUL NOT AND SWAP1 DUP4 PUSH20 0xFFFFFFFFFFFFFFFFFFFFFFFFFFFFFFFFFFFFFFFF AND MUL OR SWAP1 SSTORE POP POP PUSH2 0x112 JUMP JUMPDEST PUSH1 0x0 DUP1 REVERT JUMPDEST PUSH1 0x0 PUSH20 0xFFFFFFFFFFFFFFFFFFFFFFFFFFFFFFFFFFFFFFFF DUP3 AND SWAP1 POP SWAP2 SWAP1 POP JUMP JUMPDEST PUSH1 0x0 PUSH2 0xB2 DUP3 PUSH2 0x87 JUMP JUMPDEST SWAP1 POP SWAP2 SWAP1 POP JUMP JUMPDEST PUSH2 0xC2 DUP2 PUSH2 0xA7 JUMP JUMPDEST DUP2 EQ PUSH2 0xCD JUMPI PUSH1 0x0 DUP1 REVERT JUMPDEST POP JUMP JUMPDEST PUSH1 0x0 DUP2 MLOAD SWAP1 POP PUSH2 0xDF DUP2 PUSH2 0xB9 JUMP JUMPDEST SWAP3 SWAP2 POP POP JUMP JUMPDEST PUSH1 0x0 PUSH1 0x20 DUP3 DUP5 SUB SLT ISZERO PUSH2 0xFB JUMPI PUSH2 0xFA PUSH2 0x82 JUMP JUMPDEST JUMPDEST PUSH1 0x0 PUSH2 0x109 DUP5 DUP3 DUP6 ADD PUSH2 0xD0 JUMP JUMPDEST SWAP2 POP POP SWAP3 SWAP2 POP POP JUMP JUMPDEST PUSH2 0xA17 DUP1 PUSH2 0x121 PUSH1 0x0 CODECOPY PUSH1 0x0 RETURN INVALID PUSH1 0x80 PUSH1 0x40 MSTORE CALLVALUE DUP1 ISZERO PUSH2 0x10 JUMPI PUSH1 0x0 DUP1 REVERT JUMPDEST POP PUSH1 0x4 CALLDATASIZE LT PUSH2 0x4C JUMPI PUSH1 0x0 CALLDATALOAD PUSH1 0xE0 SHR DUP1 PUSH4 0x50E2304C EQ PUSH2 0x51 JUMPI DUP1 PUSH4 0x5690314C EQ PUSH2 0x6D JUMPI DUP1 PUSH4 0xA03FA7E3 EQ PUSH2 0x8E JUMPI DUP1 PUSH4 0xD600747C EQ PUSH2 0xAA JUMPI JUMPDEST PUSH1 0x0 DUP1 REVERT JUMPDEST PUSH2 0x6B PUSH1 0x4 DUP1 CALLDATASIZE SUB DUP2 ADD SWAP1 PUSH2 0x66 SWAP2 SWAP1 PUSH2 0x501 JUMP JUMPDEST PUSH2 0xC6 JUMP JUMPDEST STOP JUMPDEST PUSH2 0x75 PUSH2 0x19B JUMP JUMPDEST PUSH1 0x40 MLOAD PUSH2 0x85 SWAP5 SWAP4 SWAP3 SWAP2 SWAP1 PUSH2 0x6D9 JUMP JUMPDEST PUSH1 0x40 MLOAD DUP1 SWAP2 SUB SWAP1 RETURN JUMPDEST PUSH2 0xA8 PUSH1 0x4 DUP1 CALLDATASIZE SUB DUP2 ADD SWAP1 PUSH2 0xA3 SWAP2 SWAP1 PUSH2 0x75F JUMP JUMPDEST PUSH2 0x307 JUMP JUMPDEST STOP JUMPDEST PUSH2 0xC4 PUSH1 0x4 DUP1 CALLDATASIZE SUB DUP2 ADD SWAP1 PUSH2 0xBF SWAP2 SWAP1 PUSH2 0x8C1 JUMP JUMPDEST PUSH2 0x3A2 JUMP JUMPDEST STOP JUMPDEST CALLER PUSH20 0xFFFFFFFFFFFFFFFFFFFFFFFFFFFFFFFFFFFFFFFF AND PUSH1 0x0 DUP1 SLOAD SWAP1 PUSH2 0x100 EXP SWAP1 DIV PUSH20 0xFFFFFFFFFFFFFFFFFFFFFFFFFFFFFFFFFFFFFFFF AND PUSH20 0xFFFFFFFFFFFFFFFFFFFFFFFFFFFFFFFFFFFFFFFF AND EQ PUSH2 0x11E JUMPI PUSH1 0x0 DUP1 REVERT JUMPDEST PUSH1 0x0 PUSH1 0x8 SLOAD EQ PUSH2 0x12D JUMPI PUSH1 0x0 DUP1 REVERT JUMPDEST PUSH1 0x4 PUSH1 0x0 DUP2 SLOAD DUP1 SWAP3 SWAP2 SWAP1 PUSH2 0x140 SWAP1 PUSH2 0x939 JUMP JUMPDEST SWAP2 SWAP1 POP SSTORE POP PUSH1 0x2 DUP3 SWAP1 DUP1 PUSH1 0x1 DUP2 SLOAD ADD DUP1 DUP3 SSTORE DUP1 SWAP2 POP POP PUSH1 0x1 SWAP1 SUB SWAP1 PUSH1 0x0 MSTORE PUSH1 0x20 PUSH1 0x0 KECCAK256 ADD PUSH1 0x0 SWAP1 SWAP2 SWAP1 SWAP2 SWAP1 SWAP2 POP SSTORE PUSH1 0x3 DUP2 SWAP1 DUP1 PUSH1 0x1 DUP2 SLOAD ADD DUP1 DUP3 SSTORE DUP1 SWAP2 POP POP PUSH1 0x1 SWAP1 SUB SWAP1 PUSH1 0x0 MSTORE PUSH1 0x20 PUSH1 0x0 KECCAK256 ADD PUSH1 0x0 SWAP1 SWAP2 SWAP1 SWAP2 SWAP1 SWAP2 POP SSTORE POP POP JUMP JUMPDEST PUSH1 0x0 PUSH1 0x60 DUP1 PUSH1 0x60 PUSH1 0x0 DUP1 SLOAD SWAP1 PUSH2 0x100 EXP SWAP1 DIV PUSH20 0xFFFFFFFFFFFFFFFFFFFFFFFFFFFFFFFFFFFFFFFF AND PUSH1 0x5 PUSH1 0x2 PUSH1 0x3 DUP3 DUP1 SLOAD PUSH2 0x1D5 SWAP1 PUSH2 0x9B0 JUMP JUMPDEST DUP1 PUSH1 0x1F ADD PUSH1 0x20 DUP1 SWAP2 DIV MUL PUSH1 0x20 ADD PUSH1 0x40 MLOAD SWAP1 DUP2 ADD PUSH1 0x40 MSTORE DUP1 SWAP3 SWAP2 SWAP1 DUP2 DUP2 MSTORE PUSH1 0x20 ADD DUP3 DUP1 SLOAD PUSH2 0x201 SWAP1 PUSH2 0x9B0 JUMP JUMPDEST DUP1 ISZERO PUSH2 0x24E JUMPI DUP1 PUSH1 0x1F LT PUSH2 0x223 JUMPI PUSH2 0x100 DUP1 DUP4 SLOAD DIV MUL DUP4 MSTORE SWAP2 PUSH1 0x20 ADD SWAP2 PUSH2 0x24E JUMP JUMPDEST DUP3 ADD SWAP2 SWAP1 PUSH1 0x0 MSTORE PUSH1 0x20 PUSH1 0x0 KECCAK256 SWAP1 JUMPDEST DUP2 SLOAD DUP2 MSTORE SWAP1 PUSH1 0x1 ADD SWAP1 PUSH1 0x20 ADD DUP1 DUP4 GT PUSH2 0x231 JUMPI DUP3 SWAP1 SUB PUSH1 0x1F AND DUP3 ADD SWAP2 JUMPDEST POP POP POP POP POP SWAP3 POP DUP2 DUP1 SLOAD DUP1 PUSH1 0x20 MUL PUSH1 0x20 ADD PUSH1 0x40 MLOAD SWAP1 DUP2 ADD PUSH1 0x40 MSTORE DUP1 SWAP3 SWAP2 SWAP1 DUP2 DUP2 MSTORE PUSH1 0x20 ADD DUP3 DUP1 SLOAD DUP1 ISZERO PUSH2 0x2A0 JUMPI PUSH1 0x20 MUL DUP3 ADD SWAP2 SWAP1 PUSH1 0x0 MSTORE PUSH1 0x20 PUSH1 0x0 KECCAK256 SWAP1 JUMPDEST DUP2 SLOAD DUP2 MSTORE PUSH1 0x20 ADD SWAP1 PUSH1 0x1 ADD SWAP1 DUP1 DUP4 GT PUSH2 0x28C JUMPI JUMPDEST POP POP POP POP POP SWAP2 POP DUP1 DUP1 SLOAD DUP1 PUSH1 0x20 MUL PUSH1 0x20 ADD PUSH1 0x40 MLOAD SWAP1 DUP2 ADD PUSH1 0x40 MSTORE DUP1 SWAP3 SWAP2 SWAP1 DUP2 DUP2 MSTORE PUSH1 0x20 ADD DUP3 DUP1 SLOAD DUP1 ISZERO PUSH2 0x2F2 JUMPI PUSH1 0x20 MUL DUP3 ADD SWAP2 SWAP1 PUSH1 0x0 MSTORE PUSH1 0x20 PUSH1 0x0 KECCAK256 SWAP1 JUMPDEST DUP2 SLOAD DUP2 MSTORE PUSH1 0x20 ADD SWAP1 PUSH1 0x1 ADD SWAP1 DUP1 DUP4 GT PUSH2 0x2DE JUMPI JUMPDEST POP POP POP POP POP SWAP1 POP SWAP4 POP SWAP4 POP SWAP4 POP SWAP4 POP SWAP1 SWAP2 SWAP3 SWAP4 JUMP JUMPDEST CALLER PUSH20 0xFFFFFFFFFFFFFFFFFFFFFFFFFFFFFFFFFFFFFFFF AND PUSH1 0x0 DUP1 SLOAD SWAP1 PUSH2 0x100 EXP SWAP1 DIV PUSH20 0xFFFFFFFFFFFFFFFFFFFFFFFFFFFFFFFFFFFFFFFF AND PUSH20 0xFFFFFFFFFFFFFFFFFFFFFFFFFFFFFFFFFFFFFFFF AND EQ PUSH2 0x35F JUMPI PUSH1 0x0 DUP1 REVERT JUMPDEST DUP1 PUSH1 0x0 DUP1 PUSH2 0x100 EXP DUP2 SLOAD DUP2 PUSH20 0xFFFFFFFFFFFFFFFFFFFFFFFFFFFFFFFFFFFFFFFF MUL NOT AND SWAP1 DUP4 PUSH20 0xFFFFFFFFFFFFFFFFFFFFFFFFFFFFFFFFFFFFFFFF AND MUL OR SWAP1 SSTORE POP POP JUMP JUMPDEST CALLER PUSH20 0xFFFFFFFFFFFFFFFFFFFFFFFFFFFFFFFFFFFFFFFF AND PUSH1 0x0 DUP1 SLOAD SWAP1 PUSH2 0x100 EXP SWAP1 DIV PUSH20 0xFFFFFFFFFFFFFFFFFFFFFFFFFFFFFFFFFFFFFFFF AND PUSH20 0xFFFFFFFFFFFFFFFFFFFFFFFFFFFFFFFFFFFFFFFF AND EQ PUSH2 0x3FA JUMPI PUSH1 0x0 DUP1 REVERT JUMPDEST DUP1 PUSH1 0x5 SWAP1 DUP1 MLOAD SWAP1 PUSH1 0x20 ADD SWAP1 PUSH2 0x410 SWAP3 SWAP2 SWAP1 PUSH2 0x414 JUMP JUMPDEST POP POP JUMP JUMPDEST DUP3 DUP1 SLOAD PUSH2 0x420 SWAP1 PUSH2 0x9B0 JUMP JUMPDEST SWAP1 PUSH1 0x0 MSTORE PUSH1 0x20 PUSH1 0x0 KECCAK256 SWAP1 PUSH1 0x1F ADD PUSH1 0x20 SWAP1 DIV DUP2 ADD SWAP3 DUP3 PUSH2 0x442 JUMPI PUSH1 0x0 DUP6 SSTORE PUSH2 0x489 JUMP JUMPDEST DUP3 PUSH1 0x1F LT PUSH2 0x45B JUMPI DUP1 MLOAD PUSH1 0xFF NOT AND DUP4 DUP1 ADD OR DUP6 SSTORE PUSH2 0x489 JUMP JUMPDEST DUP3 DUP1 ADD PUSH1 0x1 ADD DUP6 SSTORE DUP3 ISZERO PUSH2 0x489 JUMPI SWAP2 DUP3 ADD JUMPDEST DUP3 DUP2 GT ISZERO PUSH2 0x488 JUMPI DUP3 MLOAD DUP3 SSTORE SWAP2 PUSH1 0x20 ADD SWAP2 SWAP1 PUSH1 0x1 ADD SWAP1 PUSH2 0x46D JUMP JUMPDEST JUMPDEST POP SWAP1 POP PUSH2 0x496 SWAP2 SWAP1 PUSH2 0x49A JUMP JUMPDEST POP SWAP1 JUMP JUMPDEST JUMPDEST DUP1 DUP3 GT ISZERO PUSH2 0x4B3 JUMPI PUSH1 0x0 DUP2 PUSH1 0x0 SWAP1 SSTORE POP PUSH1 0x1 ADD PUSH2 0x49B JUMP JUMPDEST POP SWAP1 JUMP JUMPDEST PUSH1 0x0 PUSH1 0x40 MLOAD SWAP1 POP SWAP1 JUMP JUMPDEST PUSH1 0x0 DUP1 REVERT JUMPDEST PUSH1 0x0 DUP1 REVERT JUMPDEST PUSH1 0x0 DUP2 SWAP1 POP SWAP2 SWAP1 POP JUMP JUMPDEST PUSH2 0x4DE DUP2 PUSH2 0x4CB JUMP JUMPDEST DUP2 EQ PUSH2 0x4E9 JUMPI PUSH1 0x0 DUP1 REVERT JUMPDEST POP JUMP JUMPDEST PUSH1 0x0 DUP2 CALLDATALOAD SWAP1 POP PUSH2 0x4FB DUP2 PUSH2 0x4D5 JUMP JUMPDEST SWAP3 SWAP2 POP POP JUMP JUMPDEST PUSH1 0x0 DUP1 PUSH1 0x40 DUP4 DUP6 SUB SLT ISZERO PUSH2 0x518 JUMPI PUSH2 0x517 PUSH2 0x4C1 JUMP JUMPDEST JUMPDEST PUSH1 0x0 PUSH2 0x526 DUP6 DUP3 DUP7 ADD PUSH2 0x4EC JUMP JUMPDEST SWAP3 POP POP PUSH1 0x20 PUSH2 0x537 DUP6 DUP3 DUP7 ADD PUSH2 0x4EC JUMP JUMPDEST SWAP2 POP POP SWAP3 POP SWAP3 SWAP1 POP JUMP JUMPDEST PUSH1 0x0 PUSH20 0xFFFFFFFFFFFFFFFFFFFFFFFFFFFFFFFFFFFFFFFF DUP3 AND SWAP1 POP SWAP2 SWAP1 POP JUMP JUMPDEST PUSH1 0x0 PUSH2 0x56C DUP3 PUSH2 0x541 JUMP JUMPDEST SWAP1 POP SWAP2 SWAP1 POP JUMP JUMPDEST PUSH2 0x57C DUP2 PUSH2 0x561 JUMP JUMPDEST DUP3 MSTORE POP POP JUMP JUMPDEST PUSH1 0x0 DUP2 MLOAD SWAP1 POP SWAP2 SWAP1 POP JUMP JUMPDEST PUSH1 0x0 DUP3 DUP3 MSTORE PUSH1 0x20 DUP3 ADD SWAP1 POP SWAP3 SWAP2 POP POP JUMP JUMPDEST PUSH1 0x0 JUMPDEST DUP4 DUP2 LT ISZERO PUSH2 0x5BC JUMPI DUP1 DUP3 ADD MLOAD DUP2 DUP5 ADD MSTORE PUSH1 0x20 DUP2 ADD SWAP1 POP PUSH2 0x5A1 JUMP JUMPDEST DUP4 DUP2 GT ISZERO PUSH2 0x5CB JUMPI PUSH1 0x0 DUP5 DUP5 ADD MSTORE JUMPDEST POP POP POP POP JUMP JUMPDEST PUSH1 0x0 PUSH1 0x1F NOT PUSH1 0x1F DUP4 ADD AND SWAP1 POP SWAP2 SWAP1 POP JUMP JUMPDEST PUSH1 0x0 PUSH2 0x5ED DUP3 PUSH2 0x582 JUMP JUMPDEST PUSH2 0x5F7 DUP2 DUP6 PUSH2 0x58D JUMP JUMPDEST SWAP4 POP PUSH2 0x607 DUP2 DUP6 PUSH1 0x20 DUP7 ADD PUSH2 0x59E JUMP JUMPDEST PUSH2 0x610 DUP2 PUSH2 0x5D1 JUMP JUMPDEST DUP5 ADD SWAP2 POP POP SWAP3 SWAP2 POP POP JUMP JUMPDEST PUSH1 0x0 DUP2 MLOAD SWAP1 POP SWAP2 SWAP1 POP JUMP JUMPDEST PUSH1 0x0 DUP3 DUP3 MSTORE PUSH1 0x20 DUP3 ADD SWAP1 POP SWAP3 SWAP2 POP POP JUMP JUMPDEST PUSH1 0x0 DUP2 SWAP1 POP PUSH1 0x20 DUP3 ADD SWAP1 POP SWAP2 SWAP1 POP JUMP JUMPDEST PUSH2 0x650 DUP2 PUSH2 0x4CB JUMP JUMPDEST DUP3 MSTORE POP POP JUMP JUMPDEST PUSH1 0x0 PUSH2 0x662 DUP4 DUP4 PUSH2 0x647 JUMP JUMPDEST PUSH1 0x20 DUP4 ADD SWAP1 POP SWAP3 SWAP2 POP POP JUMP JUMPDEST PUSH1 0x0 PUSH1 0x20 DUP3 ADD SWAP1 POP SWAP2 SWAP1 POP JUMP JUMPDEST PUSH1 0x0 PUSH2 0x686 DUP3 PUSH2 0x61B JUMP JUMPDEST PUSH2 0x690 DUP2 DUP6 PUSH2 0x626 JUMP JUMPDEST SWAP4 POP PUSH2 0x69B DUP4 PUSH2 0x637 JUMP JUMPDEST DUP1 PUSH1 0x0 JUMPDEST DUP4 DUP2 LT ISZERO PUSH2 0x6CC JUMPI DUP2 MLOAD PUSH2 0x6B3 DUP9 DUP3 PUSH2 0x656 JUMP JUMPDEST SWAP8 POP PUSH2 0x6BE DUP4 PUSH2 0x66E JUMP JUMPDEST SWAP3 POP POP PUSH1 0x1 DUP2 ADD SWAP1 POP PUSH2 0x69F JUMP JUMPDEST POP DUP6 SWAP4 POP POP POP POP SWAP3 SWAP2 POP POP JUMP JUMPDEST PUSH1 0x0 PUSH1 0x80 DUP3 ADD SWAP1 POP PUSH2 0x6EE PUSH1 0x0 DUP4 ADD DUP8 PUSH2 0x573 JUMP JUMPDEST DUP2 DUP2 SUB PUSH1 0x20 DUP4 ADD MSTORE PUSH2 0x700 DUP2 DUP7 PUSH2 0x5E2 JUMP JUMPDEST SWAP1 POP DUP2 DUP2 SUB PUSH1 0x40 DUP4 ADD MSTORE PUSH2 0x714 DUP2 DUP6 PUSH2 0x67B JUMP JUMPDEST SWAP1 POP DUP2 DUP2 SUB PUSH1 0x60 DUP4 ADD MSTORE PUSH2 0x728 DUP2 DUP5 PUSH2 0x67B JUMP JUMPDEST SWAP1 POP SWAP6 SWAP5 POP POP POP POP POP JUMP JUMPDEST PUSH2 0x73C DUP2 PUSH2 0x561 JUMP JUMPDEST DUP2 EQ PUSH2 0x747 JUMPI PUSH1 0x0 DUP1 REVERT JUMPDEST POP JUMP JUMPDEST PUSH1 0x0 DUP2 CALLDATALOAD SWAP1 POP PUSH2 0x759 DUP2 PUSH2 0x733 JUMP JUMPDEST SWAP3 SWAP2 POP POP JUMP JUMPDEST PUSH1 0x0 PUSH1 0x20 DUP3 DUP5 SUB SLT ISZERO PUSH2 0x775 JUMPI PUSH2 0x774 PUSH2 0x4C1 JUMP JUMPDEST JUMPDEST PUSH1 0x0 PUSH2 0x783 DUP5 DUP3 DUP6 ADD PUSH2 0x74A JUMP JUMPDEST SWAP2 POP POP SWAP3 SWAP2 POP POP JUMP JUMPDEST PUSH1 0x0 DUP1 REVERT JUMPDEST PUSH1 0x0 DUP1 REVERT JUMPDEST PUSH32 0x4E487B7100000000000000000000000000000000000000000000000000000000 PUSH1 0x0 MSTORE PUSH1 0x41 PUSH1 0x4 MSTORE PUSH1 0x24 PUSH1 0x0 REVERT JUMPDEST PUSH2 0x7CE DUP3 PUSH2 0x5D1 JUMP JUMPDEST DUP2 ADD DUP2 DUP2 LT PUSH8 0xFFFFFFFFFFFFFFFF DUP3 GT OR ISZERO PUSH2 0x7ED JUMPI PUSH2 0x7EC PUSH2 0x796 JUMP JUMPDEST JUMPDEST DUP1 PUSH1 0x40 MSTORE POP POP POP JUMP JUMPDEST PUSH1 0x0 PUSH2 0x800 PUSH2 0x4B7 JUMP JUMPDEST SWAP1 POP PUSH2 0x80C DUP3 DUP3 PUSH2 0x7C5 JUMP JUMPDEST SWAP2 SWAP1 POP JUMP JUMPDEST PUSH1 0x0 PUSH8 0xFFFFFFFFFFFFFFFF DUP3 GT ISZERO PUSH2 0x82C JUMPI PUSH2 0x82B PUSH2 0x796 JUMP JUMPDEST JUMPDEST PUSH2 0x835 DUP3 PUSH2 0x5D1 JUMP JUMPDEST SWAP1 POP PUSH1 0x20 DUP2 ADD SWAP1 POP SWAP2 SWAP1 POP JUMP JUMPDEST DUP3 DUP2 DUP4 CALLDATACOPY PUSH1 0x0 DUP4 DUP4 ADD MSTORE POP POP POP JUMP JUMPDEST PUSH1 0x0 PUSH2 0x864 PUSH2 0x85F DUP5 PUSH2 0x811 JUMP JUMPDEST PUSH2 0x7F6 JUMP JUMPDEST SWAP1 POP DUP3 DUP2 MSTORE PUSH1 0x20 DUP2 ADD DUP5 DUP5 DUP5 ADD GT ISZERO PUSH2 0x880 JUMPI PUSH2 0x87F PUSH2 0x791 JUMP JUMPDEST JUMPDEST PUSH2 0x88B DUP5 DUP3 DUP6 PUSH2 0x842 JUMP JUMPDEST POP SWAP4 SWAP3 POP POP POP JUMP JUMPDEST PUSH1 0x0 DUP3 PUSH1 0x1F DUP4 ADD SLT PUSH2 0x8A8 JUMPI PUSH2 0x8A7 PUSH2 0x78C JUMP JUMPDEST JUMPDEST DUP2 CALLDATALOAD PUSH2 0x8B8 DUP5 DUP3 PUSH1 0x20 DUP7 ADD PUSH2 0x851 JUMP JUMPDEST SWAP2 POP POP SWAP3 SWAP2 POP POP JUMP JUMPDEST PUSH1 0x0 PUSH1 0x20 DUP3 DUP5 SUB SLT ISZERO PUSH2 0x8D7 JUMPI PUSH2 0x8D6 PUSH2 0x4C1 JUMP JUMPDEST JUMPDEST PUSH1 0x0 DUP3 ADD CALLDATALOAD PUSH8 0xFFFFFFFFFFFFFFFF DUP2 GT ISZERO PUSH2 0x8F5 JUMPI PUSH2 0x8F4 PUSH2 0x4C6 JUMP JUMPDEST JUMPDEST PUSH2 0x901 DUP5 DUP3 DUP6 ADD PUSH2 0x893 JUMP JUMPDEST SWAP2 POP POP SWAP3 SWAP2 POP POP JUMP JUMPDEST PUSH32 0x4E487B7100000000000000000000000000000000000000000000000000000000 PUSH1 0x0 MSTORE PUSH1 0x11 PUSH1 0x4 MSTORE PUSH1 0x24 PUSH1 0x0 REVERT JUMPDEST PUSH1 0x0 PUSH2 0x944 DUP3 PUSH2 0x4CB JUMP JUMPDEST SWAP2 POP PUSH32 0xFFFFFFFFFFFFFFFFFFFFFFFFFFFFFFFFFFFFFFFFFFFFFFFFFFFFFFFFFFFFFFFF DUP3 SUB PUSH2 0x976 JUMPI PUSH2 0x975 PUSH2 0x90A JUMP JUMPDEST JUMPDEST PUSH1 0x1 DUP3 ADD SWAP1 POP SWAP2 SWAP1 POP JUMP JUMPDEST PUSH32 0x4E487B7100000000000000000000000000000000000000000000000000000000 PUSH1 0x0 MSTORE PUSH1 0x22 PUSH1 0x4 MSTORE PUSH1 0x24 PUSH1 0x0 REVERT JUMPDEST PUSH1 0x0 PUSH1 0x2 DUP3 DIV SWAP1 POP PUSH1 0x1 DUP3 AND DUP1 PUSH2 0x9C8 JUMPI PUSH1 0x7F DUP3 AND SWAP2 POP JUMPDEST PUSH1 0x20 DUP3 LT DUP2 SUB PUSH2 0x9DB JUMPI PUSH2 0x9DA PUSH2 0x981 JUMP JUMPDEST JUMPDEST POP SWAP2 SWAP1 POP JUMP INVALID LOG2 PUSH5 0x6970667358 0x22 SLT KECCAK256 0x4A DUP11 PUSH11 0xDB5B485C89AFFBE1F9EB5A SWAP14 PUSH5 0x1BEC34A0B5 SWAP12 0x22 SWAP3 0xDF GASPRICE 0x29 PUSH30 0xFE19EA4064736F6C634300080D0033A2646970667358221220779376C3A6 0xD5 0xDC 0xAA POP SWAP14 SGT GAS 0xC3 MSTORE 0xAC SMOD 0xD3 SELFBALANCE 0xE8 SWAP10 0xB7 PUSH7 0x2AD9BAE165C7D4 0xE1 0xC1 0xC4 PUSH5 0x736F6C6343 STOP ADDMOD 0xD STOP CALLER "},"gasEstimates":{"creation":{"codeDepositCost":"776000","executionCost":"812","totalCost":"776812"},"external":{"createLand()":"infinite","deployedLands(uint256)":"4956","getDeployedLands()":"infinite"}},"methodIdentifiers":{"createLand()":"29abdd99","deployedLands(uint256)":"9381230e","getDeployedLands()":"df7b3dbb"}},"storageLayout":{"storage":[{"astId":4,"contract":"Landder:Landder","label":"deployedLands","offset":0,"slot":"0","type":"t_array(t_address)dyn_storage"}],"types":{"t_address":{"encoding":"inplace","label":"address","numberOfBytes":"20"},"t_array(t_address)dyn_storage":{"base":"t_address","encoding":"dynamic_array","label":"address[]","numberOfBytes":"32"}}},"userdoc":{"kind":"user","methods":{},"version":1}}