{
    "abi": [
        {
            "inputs": [],
            "stateMutability": "nonpayable",
            "type": "constructor"
        },
        {
            "inputs": [
                {
                    "internalType": "uint256",
                    "name": "new_reg_price",
                    "type": "uint256"
                }
            ],
            "name": "change_registration_price",
            "outputs": [],
            "stateMutability": "nonpayable",
            "type": "function"
        },
        {
            "inputs": [],
            "name": "createLand",
            "outputs": [],
            "stateMutability": "payable",
            "type": "function"
        },
        {
            "inputs": [
                {
                    "internalType": "uint256",
                    "name": "",
                    "type": "uint256"
                }
            ],
            "name": "deployedLands",
            "outputs": [
                {
                    "internalType": "address",
                    "name": "",
                    "type": "address"
                }
            ],
            "stateMutability": "view",
            "type": "function"
        },
        {
            "inputs": [],
            "name": "getDeployedLands",
            "outputs": [
                {
                    "internalType": "address[]",
                    "name": "",
                    "type": "address[]"
                }
            ],
            "stateMutability": "view",
            "type": "function"
        },
        {
            "inputs": [],
            "name": "landder_owner",
            "outputs": [
                {
                    "internalType": "address payable",
                    "name": "",
                    "type": "address"
                }
            ],
            "stateMutability": "view",
            "type": "function"
        }
    ],
    "devdoc": {
        "kind": "dev",
        "methods": {},
        "version": 1
    },
    "evm": {
        "assembly": "    /* \"Landder\":25:803  contract Landder{... */\n  mstore(0x40, 0x80)\n    /* \"Landder\":159:176  10000000000000000 */\n  0x2386f26fc10000\n    /* \"Landder\":125:176  uint256 land_registration_price = 10000000000000000 */\n  0x02\n  sstore\n    /* \"Landder\":183:248  constructor(){... */\n  callvalue\n  dup1\n  iszero\n  tag_1\n  jumpi\n  0x00\n  dup1\n  revert\ntag_1:\n  pop\n    /* \"Landder\":230:240  msg.sender */\n  caller\n    /* \"Landder\":206:219  landder_owner */\n  0x01\n  0x00\n    /* \"Landder\":206:241  landder_owner = payable(msg.sender) */\n  0x0100\n  exp\n  dup2\n  sload\n  dup2\n  0xffffffffffffffffffffffffffffffffffffffff\n  mul\n  not\n  and\n  swap1\n  dup4\n  0xffffffffffffffffffffffffffffffffffffffff\n  and\n  mul\n  or\n  swap1\n  sstore\n  pop\n    /* \"Landder\":25:803  contract Landder{... */\n  dataSize(sub_0)\n  dup1\n  dataOffset(sub_0)\n  0x00\n  codecopy\n  0x00\n  return\nstop\n\nsub_0: assembly {\n        /* \"Landder\":25:803  contract Landder{... */\n      mstore(0x40, 0x80)\n      jumpi(tag_1, lt(calldatasize, 0x04))\n      shr(0xe0, calldataload(0x00))\n      dup1\n      0x0bdd01c3\n      eq\n      tag_2\n      jumpi\n      dup1\n      0x29abdd99\n      eq\n      tag_3\n      jumpi\n      dup1\n      0x706793dd\n      eq\n      tag_4\n      jumpi\n      dup1\n      0x9381230e\n      eq\n      tag_5\n      jumpi\n      dup1\n      0xdf7b3dbb\n      eq\n      tag_6\n      jumpi\n    tag_1:\n      0x00\n      dup1\n      revert\n        /* \"Landder\":634:800  function change_registration_price(uint256 new_reg_price) public{... */\n    tag_2:\n      callvalue\n      dup1\n      iszero\n      tag_7\n      jumpi\n      0x00\n      dup1\n      revert\n    tag_7:\n      pop\n      tag_8\n      0x04\n      dup1\n      calldatasize\n      sub\n      dup2\n      add\n      swap1\n      tag_9\n      swap2\n      swap1\n      tag_10\n      jump\t// in\n    tag_9:\n      tag_11\n      jump\t// in\n    tag_8:\n      stop\n        /* \"Landder\":254:519  function createLand()  public payable{... */\n    tag_3:\n      tag_12\n      tag_13\n      jump\t// in\n    tag_12:\n      stop\n        /* \"Landder\":83:119  address payable public landder_owner */\n    tag_4:\n      callvalue\n      dup1\n      iszero\n      tag_14\n      jumpi\n      0x00\n      dup1\n      revert\n    tag_14:\n      pop\n      tag_15\n      tag_16\n      jump\t// in\n    tag_15:\n      mload(0x40)\n      tag_17\n      swap2\n      swap1\n      tag_18\n      jump\t// in\n    tag_17:\n      mload(0x40)\n      dup1\n      swap2\n      sub\n      swap1\n      return\n        /* \"Landder\":47:77  address[] public deployedLands */\n    tag_5:\n      callvalue\n      dup1\n      iszero\n      tag_19\n      jumpi\n      0x00\n      dup1\n      revert\n    tag_19:\n      pop\n      tag_20\n      0x04\n      dup1\n      calldatasize\n      sub\n      dup2\n      add\n      swap1\n      tag_21\n      swap2\n      swap1\n      tag_10\n      jump\t// in\n    tag_21:\n      tag_22\n      jump\t// in\n    tag_20:\n      mload(0x40)\n      tag_23\n      swap2\n      swap1\n      tag_24\n      jump\t// in\n    tag_23:\n      mload(0x40)\n      dup1\n      swap2\n      sub\n      swap1\n      return\n        /* \"Landder\":525:628  function getDeployedLands() public view returns(address[] memory){... */\n    tag_6:\n      callvalue\n      dup1\n      iszero\n      tag_25\n      jumpi\n      0x00\n      dup1\n      revert\n    tag_25:\n      pop\n      tag_26\n      tag_27\n      jump\t// in\n    tag_26:\n      mload(0x40)\n      tag_28\n      swap2\n      swap1\n      tag_29\n      jump\t// in\n    tag_28:\n      mload(0x40)\n      dup1\n      swap2\n      sub\n      swap1\n      return\n        /* \"Landder\":634:800  function change_registration_price(uint256 new_reg_price) public{... */\n    tag_11:\n        /* \"Landder\":730:743  landder_owner */\n      0x01\n      0x00\n      swap1\n      sload\n      swap1\n      0x0100\n      exp\n      swap1\n      div\n      0xffffffffffffffffffffffffffffffffffffffff\n      and\n        /* \"Landder\":716:743  msg.sender == landder_owner */\n      0xffffffffffffffffffffffffffffffffffffffff\n      and\n        /* \"Landder\":716:726  msg.sender */\n      caller\n        /* \"Landder\":716:743  msg.sender == landder_owner */\n      0xffffffffffffffffffffffffffffffffffffffff\n      and\n      eq\n        /* \"Landder\":708:744  require(msg.sender == landder_owner) */\n      tag_31\n      jumpi\n      0x00\n      dup1\n      revert\n    tag_31:\n        /* \"Landder\":780:793  new_reg_price */\n      dup1\n        /* \"Landder\":754:777  land_registration_price */\n      0x02\n        /* \"Landder\":754:793  land_registration_price = new_reg_price */\n      dup2\n      swap1\n      sstore\n      pop\n        /* \"Landder\":634:800  function change_registration_price(uint256 new_reg_price) public{... */\n      pop\n      jump\t// out\n        /* \"Landder\":254:519  function createLand()  public payable{... */\n    tag_13:\n        /* \"Landder\":322:345  land_registration_price */\n      sload(0x02)\n        /* \"Landder\":309:318  msg.value */\n      callvalue\n        /* \"Landder\":309:345  msg.value >= land_registration_price */\n      lt\n      iszero\n        /* \"Landder\":301:346  require(msg.value >= land_registration_price) */\n      tag_33\n      jumpi\n      0x00\n      dup1\n      revert\n    tag_33:\n        /* \"Landder\":370:385  address newLand */\n      0x00\n        /* \"Landder\":405:415  msg.sender */\n      caller\n        /* \"Landder\":417:430  landder_owner */\n      0x01\n      0x00\n      swap1\n      sload\n      swap1\n      0x0100\n      exp\n      swap1\n      div\n      0xffffffffffffffffffffffffffffffffffffffff\n      and\n        /* \"Landder\":396:431  new Land(msg.sender, landder_owner) */\n      mload(0x40)\n      tag_34\n      swap1\n      tag_35\n      jump\t// in\n    tag_34:\n      tag_36\n      swap3\n      swap2\n      swap1\n      tag_37\n      jump\t// in\n    tag_36:\n      mload(0x40)\n      dup1\n      swap2\n      sub\n      swap1\n      0x00\n      create\n      dup1\n      iszero\n      dup1\n      iszero\n      tag_38\n      jumpi\n      returndatasize\n      0x00\n      dup1\n      returndatacopy\n      revert(0x00, returndatasize)\n    tag_38:\n      pop\n        /* \"Landder\":370:432  address newLand = address(new Land(msg.sender, landder_owner)) */\n      swap1\n      pop\n        /* \"Landder\":442:455  landder_owner */\n      0x01\n      0x00\n      swap1\n      sload\n      swap1\n      0x0100\n      exp\n      swap1\n      div\n      0xffffffffffffffffffffffffffffffffffffffff\n      and\n        /* \"Landder\":442:464  landder_owner.transfer */\n      0xffffffffffffffffffffffffffffffffffffffff\n      and\n        /* \"Landder\":442:475  landder_owner.transfer(msg.value) */\n      0x08fc\n        /* \"Landder\":465:474  msg.value */\n      callvalue\n        /* \"Landder\":442:475  landder_owner.transfer(msg.value) */\n      swap1\n      dup2\n      iszero\n      mul\n      swap1\n      mload(0x40)\n      0x00\n      mload(0x40)\n      dup1\n      dup4\n      sub\n      dup2\n      dup6\n      dup9\n      dup9\n      call\n      swap4\n      pop\n      pop\n      pop\n      pop\n      iszero\n      dup1\n      iszero\n      tag_40\n      jumpi\n      returndatasize\n      0x00\n      dup1\n      returndatacopy\n      revert(0x00, returndatasize)\n    tag_40:\n      pop\n        /* \"Landder\":485:498  deployedLands */\n      0x00\n        /* \"Landder\":504:511  newLand */\n      dup2\n        /* \"Landder\":485:512  deployedLands.push(newLand) */\n      swap1\n      dup1\n      0x01\n      dup2\n      sload\n      add\n      dup1\n      dup3\n      sstore\n      dup1\n      swap2\n      pop\n      pop\n      0x01\n      swap1\n      sub\n      swap1\n      0x00\n      mstore\n      keccak256(0x00, 0x20)\n      add\n      0x00\n      swap1\n      swap2\n      swap1\n      swap2\n      swap1\n      swap2\n      0x0100\n      exp\n      dup2\n      sload\n      dup2\n      0xffffffffffffffffffffffffffffffffffffffff\n      mul\n      not\n      and\n      swap1\n      dup4\n      0xffffffffffffffffffffffffffffffffffffffff\n      and\n      mul\n      or\n      swap1\n      sstore\n      pop\n        /* \"Landder\":291:519  {... */\n      pop\n        /* \"Landder\":254:519  function createLand()  public payable{... */\n      jump\t// out\n        /* \"Landder\":83:119  address payable public landder_owner */\n    tag_16:\n      0x01\n      0x00\n      swap1\n      sload\n      swap1\n      0x0100\n      exp\n      swap1\n      div\n      0xffffffffffffffffffffffffffffffffffffffff\n      and\n      dup2\n      jump\t// out\n        /* \"Landder\":47:77  address[] public deployedLands */\n    tag_22:\n      0x00\n      dup2\n      dup2\n      sload\n      dup2\n      lt\n      tag_42\n      jumpi\n      0x00\n      dup1\n      revert\n    tag_42:\n      swap1\n      0x00\n      mstore\n      keccak256(0x00, 0x20)\n      add\n      0x00\n      swap2\n      pop\n      sload\n      swap1\n      0x0100\n      exp\n      swap1\n      div\n      0xffffffffffffffffffffffffffffffffffffffff\n      and\n      dup2\n      jump\t// out\n        /* \"Landder\":525:628  function getDeployedLands() public view returns(address[] memory){... */\n    tag_27:\n        /* \"Landder\":573:589  address[] memory */\n      0x60\n        /* \"Landder\":607:620  deployedLands */\n      0x00\n        /* \"Landder\":600:620  return deployedLands */\n      dup1\n      sload\n      dup1\n      0x20\n      mul\n      0x20\n      add\n      mload(0x40)\n      swap1\n      dup2\n      add\n      0x40\n      mstore\n      dup1\n      swap3\n      swap2\n      swap1\n      dup2\n      dup2\n      mstore\n      0x20\n      add\n      dup3\n      dup1\n      sload\n      dup1\n      iszero\n      tag_45\n      jumpi\n      0x20\n      mul\n      dup3\n      add\n      swap2\n      swap1\n      0x00\n      mstore\n      keccak256(0x00, 0x20)\n      swap1\n    tag_46:\n      dup2\n      0x00\n      swap1\n      sload\n      swap1\n      0x0100\n      exp\n      swap1\n      div\n      0xffffffffffffffffffffffffffffffffffffffff\n      and\n      0xffffffffffffffffffffffffffffffffffffffff\n      and\n      dup2\n      mstore\n      0x20\n      add\n      swap1\n      0x01\n      add\n      swap1\n      dup1\n      dup4\n      gt\n      tag_46\n      jumpi\n    tag_45:\n      pop\n      pop\n      pop\n      pop\n      pop\n      swap1\n      pop\n        /* \"Landder\":525:628  function getDeployedLands() public view returns(address[] memory){... */\n      swap1\n      jump\t// out\n    tag_35:\n      dataSize(sub_0)\n      dup1\n      dataOffset(sub_0)\n      dup4\n      codecopy\n      add\n      swap1\n      jump\t// out\n        /* \"#utility.yul\":88:205   */\n    tag_48:\n        /* \"#utility.yul\":197:198   */\n      0x00\n        /* \"#utility.yul\":194:195   */\n      dup1\n        /* \"#utility.yul\":187:199   */\n      revert\n        /* \"#utility.yul\":334:411   */\n    tag_50:\n        /* \"#utility.yul\":371:378   */\n      0x00\n        /* \"#utility.yul\":400:405   */\n      dup2\n        /* \"#utility.yul\":389:405   */\n      swap1\n      pop\n        /* \"#utility.yul\":334:411   */\n      swap2\n      swap1\n      pop\n      jump\t// out\n        /* \"#utility.yul\":417:539   */\n    tag_51:\n        /* \"#utility.yul\":490:514   */\n      tag_71\n        /* \"#utility.yul\":508:513   */\n      dup2\n        /* \"#utility.yul\":490:514   */\n      tag_50\n      jump\t// in\n    tag_71:\n        /* \"#utility.yul\":483:488   */\n      dup2\n        /* \"#utility.yul\":480:515   */\n      eq\n        /* \"#utility.yul\":470:533   */\n      tag_72\n      jumpi\n        /* \"#utility.yul\":529:530   */\n      0x00\n        /* \"#utility.yul\":526:527   */\n      dup1\n        /* \"#utility.yul\":519:531   */\n      revert\n        /* \"#utility.yul\":470:533   */\n    tag_72:\n        /* \"#utility.yul\":417:539   */\n      pop\n      jump\t// out\n        /* \"#utility.yul\":545:684   */\n    tag_52:\n        /* \"#utility.yul\":591:596   */\n      0x00\n        /* \"#utility.yul\":629:635   */\n      dup2\n        /* \"#utility.yul\":616:636   */\n      calldataload\n        /* \"#utility.yul\":607:636   */\n      swap1\n      pop\n        /* \"#utility.yul\":645:678   */\n      tag_74\n        /* \"#utility.yul\":672:677   */\n      dup2\n        /* \"#utility.yul\":645:678   */\n      tag_51\n      jump\t// in\n    tag_74:\n        /* \"#utility.yul\":545:684   */\n      swap3\n      swap2\n      pop\n      pop\n      jump\t// out\n        /* \"#utility.yul\":690:1019   */\n    tag_10:\n        /* \"#utility.yul\":749:755   */\n      0x00\n        /* \"#utility.yul\":798:800   */\n      0x20\n        /* \"#utility.yul\":786:795   */\n      dup3\n        /* \"#utility.yul\":777:784   */\n      dup5\n        /* \"#utility.yul\":773:796   */\n      sub\n        /* \"#utility.yul\":769:801   */\n      slt\n        /* \"#utility.yul\":766:885   */\n      iszero\n      tag_76\n      jumpi\n        /* \"#utility.yul\":804:883   */\n      tag_77\n      tag_48\n      jump\t// in\n    tag_77:\n        /* \"#utility.yul\":766:885   */\n    tag_76:\n        /* \"#utility.yul\":924:925   */\n      0x00\n        /* \"#utility.yul\":949:1002   */\n      tag_78\n        /* \"#utility.yul\":994:1001   */\n      dup5\n        /* \"#utility.yul\":985:991   */\n      dup3\n        /* \"#utility.yul\":974:983   */\n      dup6\n        /* \"#utility.yul\":970:992   */\n      add\n        /* \"#utility.yul\":949:1002   */\n      tag_52\n      jump\t// in\n    tag_78:\n        /* \"#utility.yul\":939:1002   */\n      swap2\n      pop\n        /* \"#utility.yul\":895:1012   */\n      pop\n        /* \"#utility.yul\":690:1019   */\n      swap3\n      swap2\n      pop\n      pop\n      jump\t// out\n        /* \"#utility.yul\":1025:1151   */\n    tag_53:\n        /* \"#utility.yul\":1062:1069   */\n      0x00\n        /* \"#utility.yul\":1102:1144   */\n      0xffffffffffffffffffffffffffffffffffffffff\n        /* \"#utility.yul\":1095:1100   */\n      dup3\n        /* \"#utility.yul\":1091:1145   */\n      and\n        /* \"#utility.yul\":1080:1145   */\n      swap1\n      pop\n        /* \"#utility.yul\":1025:1151   */\n      swap2\n      swap1\n      pop\n      jump\t// out\n        /* \"#utility.yul\":1157:1261   */\n    tag_54:\n        /* \"#utility.yul\":1202:1209   */\n      0x00\n        /* \"#utility.yul\":1231:1255   */\n      tag_81\n        /* \"#utility.yul\":1249:1254   */\n      dup3\n        /* \"#utility.yul\":1231:1255   */\n      tag_53\n      jump\t// in\n    tag_81:\n        /* \"#utility.yul\":1220:1255   */\n      swap1\n      pop\n        /* \"#utility.yul\":1157:1261   */\n      swap2\n      swap1\n      pop\n      jump\t// out\n        /* \"#utility.yul\":1267:1409   */\n    tag_55:\n        /* \"#utility.yul\":1370:1402   */\n      tag_83\n        /* \"#utility.yul\":1396:1401   */\n      dup2\n        /* \"#utility.yul\":1370:1402   */\n      tag_54\n      jump\t// in\n    tag_83:\n        /* \"#utility.yul\":1365:1368   */\n      dup3\n        /* \"#utility.yul\":1358:1403   */\n      mstore\n        /* \"#utility.yul\":1267:1409   */\n      pop\n      pop\n      jump\t// out\n        /* \"#utility.yul\":1415:1669   */\n    tag_18:\n        /* \"#utility.yul\":1524:1528   */\n      0x00\n        /* \"#utility.yul\":1562:1564   */\n      0x20\n        /* \"#utility.yul\":1551:1560   */\n      dup3\n        /* \"#utility.yul\":1547:1565   */\n      add\n        /* \"#utility.yul\":1539:1565   */\n      swap1\n      pop\n        /* \"#utility.yul\":1575:1662   */\n      tag_85\n        /* \"#utility.yul\":1659:1660   */\n      0x00\n        /* \"#utility.yul\":1648:1657   */\n      dup4\n        /* \"#utility.yul\":1644:1661   */\n      add\n        /* \"#utility.yul\":1635:1641   */\n      dup5\n        /* \"#utility.yul\":1575:1662   */\n      tag_55\n      jump\t// in\n    tag_85:\n        /* \"#utility.yul\":1415:1669   */\n      swap3\n      swap2\n      pop\n      pop\n      jump\t// out\n        /* \"#utility.yul\":1675:1771   */\n    tag_56:\n        /* \"#utility.yul\":1712:1719   */\n      0x00\n        /* \"#utility.yul\":1741:1765   */\n      tag_87\n        /* \"#utility.yul\":1759:1764   */\n      dup3\n        /* \"#utility.yul\":1741:1765   */\n      tag_53\n      jump\t// in\n    tag_87:\n        /* \"#utility.yul\":1730:1765   */\n      swap1\n      pop\n        /* \"#utility.yul\":1675:1771   */\n      swap2\n      swap1\n      pop\n      jump\t// out\n        /* \"#utility.yul\":1777:1895   */\n    tag_57:\n        /* \"#utility.yul\":1864:1888   */\n      tag_89\n        /* \"#utility.yul\":1882:1887   */\n      dup2\n        /* \"#utility.yul\":1864:1888   */\n      tag_56\n      jump\t// in\n    tag_89:\n        /* \"#utility.yul\":1859:1862   */\n      dup3\n        /* \"#utility.yul\":1852:1889   */\n      mstore\n        /* \"#utility.yul\":1777:1895   */\n      pop\n      pop\n      jump\t// out\n        /* \"#utility.yul\":1901:2123   */\n    tag_24:\n        /* \"#utility.yul\":1994:1998   */\n      0x00\n        /* \"#utility.yul\":2032:2034   */\n      0x20\n        /* \"#utility.yul\":2021:2030   */\n      dup3\n        /* \"#utility.yul\":2017:2035   */\n      add\n        /* \"#utility.yul\":2009:2035   */\n      swap1\n      pop\n        /* \"#utility.yul\":2045:2116   */\n      tag_91\n        /* \"#utility.yul\":2113:2114   */\n      0x00\n        /* \"#utility.yul\":2102:2111   */\n      dup4\n        /* \"#utility.yul\":2098:2115   */\n      add\n        /* \"#utility.yul\":2089:2095   */\n      dup5\n        /* \"#utility.yul\":2045:2116   */\n      tag_57\n      jump\t// in\n    tag_91:\n        /* \"#utility.yul\":1901:2123   */\n      swap3\n      swap2\n      pop\n      pop\n      jump\t// out\n        /* \"#utility.yul\":2129:2243   */\n    tag_58:\n        /* \"#utility.yul\":2196:2202   */\n      0x00\n        /* \"#utility.yul\":2230:2235   */\n      dup2\n        /* \"#utility.yul\":2224:2236   */\n      mload\n        /* \"#utility.yul\":2214:2236   */\n      swap1\n      pop\n        /* \"#utility.yul\":2129:2243   */\n      swap2\n      swap1\n      pop\n      jump\t// out\n        /* \"#utility.yul\":2249:2433   */\n    tag_59:\n        /* \"#utility.yul\":2348:2359   */\n      0x00\n        /* \"#utility.yul\":2382:2388   */\n      dup3\n        /* \"#utility.yul\":2377:2380   */\n      dup3\n        /* \"#utility.yul\":2370:2389   */\n      mstore\n        /* \"#utility.yul\":2422:2426   */\n      0x20\n        /* \"#utility.yul\":2417:2420   */\n      dup3\n        /* \"#utility.yul\":2413:2427   */\n      add\n        /* \"#utility.yul\":2398:2427   */\n      swap1\n      pop\n        /* \"#utility.yul\":2249:2433   */\n      swap3\n      swap2\n      pop\n      pop\n      jump\t// out\n        /* \"#utility.yul\":2439:2571   */\n    tag_60:\n        /* \"#utility.yul\":2506:2510   */\n      0x00\n        /* \"#utility.yul\":2529:2532   */\n      dup2\n        /* \"#utility.yul\":2521:2532   */\n      swap1\n      pop\n        /* \"#utility.yul\":2559:2563   */\n      0x20\n        /* \"#utility.yul\":2554:2557   */\n      dup3\n        /* \"#utility.yul\":2550:2564   */\n      add\n        /* \"#utility.yul\":2542:2564   */\n      swap1\n      pop\n        /* \"#utility.yul\":2439:2571   */\n      swap2\n      swap1\n      pop\n      jump\t// out\n        /* \"#utility.yul\":2577:2685   */\n    tag_61:\n        /* \"#utility.yul\":2654:2678   */\n      tag_96\n        /* \"#utility.yul\":2672:2677   */\n      dup2\n        /* \"#utility.yul\":2654:2678   */\n      tag_56\n      jump\t// in\n    tag_96:\n        /* \"#utility.yul\":2649:2652   */\n      dup3\n        /* \"#utility.yul\":2642:2679   */\n      mstore\n        /* \"#utility.yul\":2577:2685   */\n      pop\n      pop\n      jump\t// out\n        /* \"#utility.yul\":2691:2870   */\n    tag_62:\n        /* \"#utility.yul\":2760:2770   */\n      0x00\n        /* \"#utility.yul\":2781:2827   */\n      tag_98\n        /* \"#utility.yul\":2823:2826   */\n      dup4\n        /* \"#utility.yul\":2815:2821   */\n      dup4\n        /* \"#utility.yul\":2781:2827   */\n      tag_61\n      jump\t// in\n    tag_98:\n        /* \"#utility.yul\":2859:2863   */\n      0x20\n        /* \"#utility.yul\":2854:2857   */\n      dup4\n        /* \"#utility.yul\":2850:2864   */\n      add\n        /* \"#utility.yul\":2836:2864   */\n      swap1\n      pop\n        /* \"#utility.yul\":2691:2870   */\n      swap3\n      swap2\n      pop\n      pop\n      jump\t// out\n        /* \"#utility.yul\":2876:2989   */\n    tag_63:\n        /* \"#utility.yul\":2946:2950   */\n      0x00\n        /* \"#utility.yul\":2978:2982   */\n      0x20\n        /* \"#utility.yul\":2973:2976   */\n      dup3\n        /* \"#utility.yul\":2969:2983   */\n      add\n        /* \"#utility.yul\":2961:2983   */\n      swap1\n      pop\n        /* \"#utility.yul\":2876:2989   */\n      swap2\n      swap1\n      pop\n      jump\t// out\n        /* \"#utility.yul\":3025:3757   */\n    tag_64:\n        /* \"#utility.yul\":3144:3147   */\n      0x00\n        /* \"#utility.yul\":3173:3227   */\n      tag_101\n        /* \"#utility.yul\":3221:3226   */\n      dup3\n        /* \"#utility.yul\":3173:3227   */\n      tag_58\n      jump\t// in\n    tag_101:\n        /* \"#utility.yul\":3243:3329   */\n      tag_102\n        /* \"#utility.yul\":3322:3328   */\n      dup2\n        /* \"#utility.yul\":3317:3320   */\n      dup6\n        /* \"#utility.yul\":3243:3329   */\n      tag_59\n      jump\t// in\n    tag_102:\n        /* \"#utility.yul\":3236:3329   */\n      swap4\n      pop\n        /* \"#utility.yul\":3353:3409   */\n      tag_103\n        /* \"#utility.yul\":3403:3408   */\n      dup4\n        /* \"#utility.yul\":3353:3409   */\n      tag_60\n      jump\t// in\n    tag_103:\n        /* \"#utility.yul\":3432:3439   */\n      dup1\n        /* \"#utility.yul\":3463:3464   */\n      0x00\n        /* \"#utility.yul\":3448:3732   */\n    tag_104:\n        /* \"#utility.yul\":3473:3479   */\n      dup4\n        /* \"#utility.yul\":3470:3471   */\n      dup2\n        /* \"#utility.yul\":3467:3480   */\n      lt\n        /* \"#utility.yul\":3448:3732   */\n      iszero\n      tag_106\n      jumpi\n        /* \"#utility.yul\":3549:3555   */\n      dup2\n        /* \"#utility.yul\":3543:3556   */\n      mload\n        /* \"#utility.yul\":3576:3639   */\n      tag_107\n        /* \"#utility.yul\":3635:3638   */\n      dup9\n        /* \"#utility.yul\":3620:3633   */\n      dup3\n        /* \"#utility.yul\":3576:3639   */\n      tag_62\n      jump\t// in\n    tag_107:\n        /* \"#utility.yul\":3569:3639   */\n      swap8\n      pop\n        /* \"#utility.yul\":3662:3722   */\n      tag_108\n        /* \"#utility.yul\":3715:3721   */\n      dup4\n        /* \"#utility.yul\":3662:3722   */\n      tag_63\n      jump\t// in\n    tag_108:\n        /* \"#utility.yul\":3652:3722   */\n      swap3\n      pop\n        /* \"#utility.yul\":3508:3732   */\n      pop\n        /* \"#utility.yul\":3495:3496   */\n      0x01\n        /* \"#utility.yul\":3492:3493   */\n      dup2\n        /* \"#utility.yul\":3488:3497   */\n      add\n        /* \"#utility.yul\":3483:3497   */\n      swap1\n      pop\n        /* \"#utility.yul\":3448:3732   */\n      jump(tag_104)\n    tag_106:\n        /* \"#utility.yul\":3452:3466   */\n      pop\n        /* \"#utility.yul\":3748:3751   */\n      dup6\n        /* \"#utility.yul\":3741:3751   */\n      swap4\n      pop\n        /* \"#utility.yul\":3149:3757   */\n      pop\n      pop\n      pop\n        /* \"#utility.yul\":3025:3757   */\n      swap3\n      swap2\n      pop\n      pop\n      jump\t// out\n        /* \"#utility.yul\":3763:4136   */\n    tag_29:\n        /* \"#utility.yul\":3906:3910   */\n      0x00\n        /* \"#utility.yul\":3944:3946   */\n      0x20\n        /* \"#utility.yul\":3933:3942   */\n      dup3\n        /* \"#utility.yul\":3929:3947   */\n      add\n        /* \"#utility.yul\":3921:3947   */\n      swap1\n      pop\n        /* \"#utility.yul\":3993:4002   */\n      dup2\n        /* \"#utility.yul\":3987:3991   */\n      dup2\n        /* \"#utility.yul\":3983:4003   */\n      sub\n        /* \"#utility.yul\":3979:3980   */\n      0x00\n        /* \"#utility.yul\":3968:3977   */\n      dup4\n        /* \"#utility.yul\":3964:3981   */\n      add\n        /* \"#utility.yul\":3957:4004   */\n      mstore\n        /* \"#utility.yul\":4021:4129   */\n      tag_110\n        /* \"#utility.yul\":4124:4128   */\n      dup2\n        /* \"#utility.yul\":4115:4121   */\n      dup5\n        /* \"#utility.yul\":4021:4129   */\n      tag_64\n      jump\t// in\n    tag_110:\n        /* \"#utility.yul\":4013:4129   */\n      swap1\n      pop\n        /* \"#utility.yul\":3763:4136   */\n      swap3\n      swap2\n      pop\n      pop\n      jump\t// out\n        /* \"#utility.yul\":4142:4506   */\n    tag_37:\n        /* \"#utility.yul\":4279:4283   */\n      0x00\n        /* \"#utility.yul\":4317:4319   */\n      0x40\n        /* \"#utility.yul\":4306:4315   */\n      dup3\n        /* \"#utility.yul\":4302:4320   */\n      add\n        /* \"#utility.yul\":4294:4320   */\n      swap1\n      pop\n        /* \"#utility.yul\":4330:4401   */\n      tag_112\n        /* \"#utility.yul\":4398:4399   */\n      0x00\n        /* \"#utility.yul\":4387:4396   */\n      dup4\n        /* \"#utility.yul\":4383:4400   */\n      add\n        /* \"#utility.yul\":4374:4380   */\n      dup6\n        /* \"#utility.yul\":4330:4401   */\n      tag_57\n      jump\t// in\n    tag_112:\n        /* \"#utility.yul\":4411:4499   */\n      tag_113\n        /* \"#utility.yul\":4495:4497   */\n      0x20\n        /* \"#utility.yul\":4484:4493   */\n      dup4\n        /* \"#utility.yul\":4480:4498   */\n      add\n        /* \"#utility.yul\":4471:4477   */\n      dup5\n        /* \"#utility.yul\":4411:4499   */\n      tag_55\n      jump\t// in\n    tag_113:\n        /* \"#utility.yul\":4142:4506   */\n      swap4\n      swap3\n      pop\n      pop\n      pop\n      jump\t// out\n    stop\n\n    sub_0: assembly {\n            /* \"Landder\":805:2134  contract Land{... */\n          mstore(0x40, 0x80)\n            /* \"Landder\":960:961  0 */\n          0x00\n            /* \"Landder\":938:961  uint conner_numbers = 0 */\n          0x04\n          sstore\n            /* \"Landder\":1095:1096  0 */\n          0x00\n            /* \"Landder\":1068:1096  uint registration_status = 0 */\n          0x08\n          sstore\n            /* \"Landder\":1174:1190  2500000000000000 */\n          0x08e1bc9bf04000\n            /* \"Landder\":1136:1190  uint256 landmark_registration_price = 2500000000000000 */\n          0x0a\n          sstore\n            /* \"Landder\":1280:1412  constructor(address the_owner,address payable landder_owner) {... */\n          callvalue\n          dup1\n          iszero\n          tag_1\n          jumpi\n          0x00\n          dup1\n          revert\n        tag_1:\n          pop\n          mload(0x40)\n          sub(codesize, bytecodeSize)\n          dup1\n          bytecodeSize\n          dup4\n          codecopy\n          dup2\n          dup2\n          add\n          0x40\n          mstore\n          dup2\n          add\n          swap1\n          tag_2\n          swap2\n          swap1\n          tag_3\n          jump\t// in\n        tag_2:\n            /* \"Landder\":1359:1368  the_owner */\n          dup2\n            /* \"Landder\":1351:1356  owner */\n          0x00\n          dup1\n            /* \"Landder\":1351:1368  owner = the_owner */\n          0x0100\n          exp\n          dup2\n          sload\n          dup2\n          0xffffffffffffffffffffffffffffffffffffffff\n          mul\n          not\n          and\n          swap1\n          dup4\n          0xffffffffffffffffffffffffffffffffffffffff\n          and\n          mul\n          or\n          swap1\n          sstore\n          pop\n            /* \"Landder\":1393:1405  lander_owner */\n          0x09\n          0x00\n          swap1\n          sload\n          swap1\n          0x0100\n          exp\n          swap1\n          div\n          0xffffffffffffffffffffffffffffffffffffffff\n          and\n            /* \"Landder\":1378:1390  lander_owner */\n          0x09\n          0x00\n            /* \"Landder\":1378:1405  lander_owner = lander_owner */\n          0x0100\n          exp\n          dup2\n          sload\n          dup2\n          0xffffffffffffffffffffffffffffffffffffffff\n          mul\n          not\n          and\n          swap1\n          dup4\n          0xffffffffffffffffffffffffffffffffffffffff\n          and\n          mul\n          or\n          swap1\n          sstore\n          pop\n            /* \"Landder\":1280:1412  constructor(address the_owner,address payable landder_owner) {... */\n          pop\n          pop\n            /* \"Landder\":805:2134  contract Land{... */\n          jump(tag_6)\n            /* \"#utility.yul\":88:205   */\n        tag_8:\n            /* \"#utility.yul\":197:198   */\n          0x00\n            /* \"#utility.yul\":194:195   */\n          dup1\n            /* \"#utility.yul\":187:199   */\n          revert\n            /* \"#utility.yul\":334:460   */\n        tag_10:\n            /* \"#utility.yul\":371:378   */\n          0x00\n            /* \"#utility.yul\":411:453   */\n          0xffffffffffffffffffffffffffffffffffffffff\n            /* \"#utility.yul\":404:409   */\n          dup3\n            /* \"#utility.yul\":400:454   */\n          and\n            /* \"#utility.yul\":389:454   */\n          swap1\n          pop\n            /* \"#utility.yul\":334:460   */\n          swap2\n          swap1\n          pop\n          jump\t// out\n            /* \"#utility.yul\":466:562   */\n        tag_11:\n            /* \"#utility.yul\":503:510   */\n          0x00\n            /* \"#utility.yul\":532:556   */\n          tag_23\n            /* \"#utility.yul\":550:555   */\n          dup3\n            /* \"#utility.yul\":532:556   */\n          tag_10\n          jump\t// in\n        tag_23:\n            /* \"#utility.yul\":521:556   */\n          swap1\n          pop\n            /* \"#utility.yul\":466:562   */\n          swap2\n          swap1\n          pop\n          jump\t// out\n            /* \"#utility.yul\":568:690   */\n        tag_12:\n            /* \"#utility.yul\":641:665   */\n          tag_25\n            /* \"#utility.yul\":659:664   */\n          dup2\n            /* \"#utility.yul\":641:665   */\n          tag_11\n          jump\t// in\n        tag_25:\n            /* \"#utility.yul\":634:639   */\n          dup2\n            /* \"#utility.yul\":631:666   */\n          eq\n            /* \"#utility.yul\":621:684   */\n          tag_26\n          jumpi\n            /* \"#utility.yul\":680:681   */\n          0x00\n            /* \"#utility.yul\":677:678   */\n          dup1\n            /* \"#utility.yul\":670:682   */\n          revert\n            /* \"#utility.yul\":621:684   */\n        tag_26:\n            /* \"#utility.yul\":568:690   */\n          pop\n          jump\t// out\n            /* \"#utility.yul\":696:839   */\n        tag_13:\n            /* \"#utility.yul\":753:758   */\n          0x00\n            /* \"#utility.yul\":784:790   */\n          dup2\n            /* \"#utility.yul\":778:791   */\n          mload\n            /* \"#utility.yul\":769:791   */\n          swap1\n          pop\n            /* \"#utility.yul\":800:833   */\n          tag_28\n            /* \"#utility.yul\":827:832   */\n          dup2\n            /* \"#utility.yul\":800:833   */\n          tag_12\n          jump\t// in\n        tag_28:\n            /* \"#utility.yul\":696:839   */\n          swap3\n          swap2\n          pop\n          pop\n          jump\t// out\n            /* \"#utility.yul\":845:949   */\n        tag_14:\n            /* \"#utility.yul\":890:897   */\n          0x00\n            /* \"#utility.yul\":919:943   */\n          tag_30\n            /* \"#utility.yul\":937:942   */\n          dup3\n            /* \"#utility.yul\":919:943   */\n          tag_10\n          jump\t// in\n        tag_30:\n            /* \"#utility.yul\":908:943   */\n          swap1\n          pop\n            /* \"#utility.yul\":845:949   */\n          swap2\n          swap1\n          pop\n          jump\t// out\n            /* \"#utility.yul\":955:1093   */\n        tag_15:\n            /* \"#utility.yul\":1036:1068   */\n          tag_32\n            /* \"#utility.yul\":1062:1067   */\n          dup2\n            /* \"#utility.yul\":1036:1068   */\n          tag_14\n          jump\t// in\n        tag_32:\n            /* \"#utility.yul\":1029:1034   */\n          dup2\n            /* \"#utility.yul\":1026:1069   */\n          eq\n            /* \"#utility.yul\":1016:1087   */\n          tag_33\n          jumpi\n            /* \"#utility.yul\":1083:1084   */\n          0x00\n            /* \"#utility.yul\":1080:1081   */\n          dup1\n            /* \"#utility.yul\":1073:1085   */\n          revert\n            /* \"#utility.yul\":1016:1087   */\n        tag_33:\n            /* \"#utility.yul\":955:1093   */\n          pop\n          jump\t// out\n            /* \"#utility.yul\":1099:1258   */\n        tag_16:\n            /* \"#utility.yul\":1164:1169   */\n          0x00\n            /* \"#utility.yul\":1195:1201   */\n          dup2\n            /* \"#utility.yul\":1189:1202   */\n          mload\n            /* \"#utility.yul\":1180:1202   */\n          swap1\n          pop\n            /* \"#utility.yul\":1211:1252   */\n          tag_35\n            /* \"#utility.yul\":1246:1251   */\n          dup2\n            /* \"#utility.yul\":1211:1252   */\n          tag_15\n          jump\t// in\n        tag_35:\n            /* \"#utility.yul\":1099:1258   */\n          swap3\n          swap2\n          pop\n          pop\n          jump\t// out\n            /* \"#utility.yul\":1264:1787   */\n        tag_3:\n            /* \"#utility.yul\":1351:1357   */\n          0x00\n            /* \"#utility.yul\":1359:1365   */\n          dup1\n            /* \"#utility.yul\":1408:1410   */\n          0x40\n            /* \"#utility.yul\":1396:1405   */\n          dup4\n            /* \"#utility.yul\":1387:1394   */\n          dup6\n            /* \"#utility.yul\":1383:1406   */\n          sub\n            /* \"#utility.yul\":1379:1411   */\n          slt\n            /* \"#utility.yul\":1376:1495   */\n          iszero\n          tag_37\n          jumpi\n            /* \"#utility.yul\":1414:1493   */\n          tag_38\n          tag_8\n          jump\t// in\n        tag_38:\n            /* \"#utility.yul\":1376:1495   */\n        tag_37:\n            /* \"#utility.yul\":1534:1535   */\n          0x00\n            /* \"#utility.yul\":1559:1623   */\n          tag_39\n            /* \"#utility.yul\":1615:1622   */\n          dup6\n            /* \"#utility.yul\":1606:1612   */\n          dup3\n            /* \"#utility.yul\":1595:1604   */\n          dup7\n            /* \"#utility.yul\":1591:1613   */\n          add\n            /* \"#utility.yul\":1559:1623   */\n          tag_13\n          jump\t// in\n        tag_39:\n            /* \"#utility.yul\":1549:1623   */\n          swap3\n          pop\n            /* \"#utility.yul\":1505:1633   */\n          pop\n            /* \"#utility.yul\":1672:1674   */\n          0x20\n            /* \"#utility.yul\":1698:1770   */\n          tag_40\n            /* \"#utility.yul\":1762:1769   */\n          dup6\n            /* \"#utility.yul\":1753:1759   */\n          dup3\n            /* \"#utility.yul\":1742:1751   */\n          dup7\n            /* \"#utility.yul\":1738:1760   */\n          add\n            /* \"#utility.yul\":1698:1770   */\n          tag_16\n          jump\t// in\n        tag_40:\n            /* \"#utility.yul\":1688:1770   */\n          swap2\n          pop\n            /* \"#utility.yul\":1643:1780   */\n          pop\n            /* \"#utility.yul\":1264:1787   */\n          swap3\n          pop\n          swap3\n          swap1\n          pop\n          jump\t// out\n            /* \"Landder\":805:2134  contract Land{... */\n        tag_6:\n          dataSize(sub_0)\n          dup1\n          dataOffset(sub_0)\n          0x00\n          codecopy\n          0x00\n          return\n        stop\n\n        sub_0: assembly {\n                /* \"Landder\":805:2134  contract Land{... */\n              mstore(0x40, 0x80)\n              jumpi(tag_1, lt(calldatasize, 0x04))\n              shr(0xe0, calldataload(0x00))\n              dup1\n              0x5690314c\n              eq\n              tag_2\n              jumpi\n              dup1\n              0x8da5cb5b\n              eq\n              tag_3\n              jumpi\n              dup1\n              0x910c6576\n              eq\n              tag_4\n              jumpi\n              dup1\n              0xa03fa7e3\n              eq\n              tag_5\n              jumpi\n              dup1\n              0xd600747c\n              eq\n              tag_6\n              jumpi\n            tag_1:\n              0x00\n              dup1\n              revert\n                /* \"Landder\":1973:2132  function getLand() public view returns(address, string memory, uint[] memory, uint[] memory){... */\n            tag_2:\n              callvalue\n              dup1\n              iszero\n              tag_7\n              jumpi\n              0x00\n              dup1\n              revert\n            tag_7:\n              pop\n              tag_8\n              tag_9\n              jump\t// in\n            tag_8:\n              mload(0x40)\n              tag_10\n              swap5\n              swap4\n              swap3\n              swap2\n              swap1\n              tag_11\n              jump\t// in\n            tag_10:\n              mload(0x40)\n              dup1\n              swap2\n              sub\n              swap1\n              return\n                /* \"Landder\":824:844  address public owner */\n            tag_3:\n              callvalue\n              dup1\n              iszero\n              tag_12\n              jumpi\n              0x00\n              dup1\n              revert\n            tag_12:\n              pop\n              tag_13\n              tag_14\n              jump\t// in\n            tag_13:\n              mload(0x40)\n              tag_15\n              swap2\n              swap1\n              tag_16\n              jump\t// in\n            tag_15:\n              mload(0x40)\n              dup1\n              swap2\n              sub\n              swap1\n              return\n                /* \"Landder\":1418:1760  function addLandMark(uint latitude, uint longitude) public payable restricted{... */\n            tag_4:\n              tag_17\n              0x04\n              dup1\n              calldatasize\n              sub\n              dup2\n              add\n              swap1\n              tag_18\n              swap2\n              swap1\n              tag_19\n              jump\t// in\n            tag_18:\n              tag_20\n              jump\t// in\n            tag_17:\n              stop\n                /* \"Landder\":1877:1967  function transferTo(address new_owner) public restricted{... */\n            tag_5:\n              callvalue\n              dup1\n              iszero\n              tag_21\n              jumpi\n              0x00\n              dup1\n              revert\n            tag_21:\n              pop\n              tag_22\n              0x04\n              dup1\n              calldatasize\n              sub\n              dup2\n              add\n              swap1\n              tag_23\n              swap2\n              swap1\n              tag_24\n              jump\t// in\n            tag_23:\n              tag_25\n              jump\t// in\n            tag_22:\n              stop\n                /* \"Landder\":1766:1871  function addLegalDoc(string memory ipfs_doc_id) public restricted{... */\n            tag_6:\n              callvalue\n              dup1\n              iszero\n              tag_26\n              jumpi\n              0x00\n              dup1\n              revert\n            tag_26:\n              pop\n              tag_27\n              0x04\n              dup1\n              calldatasize\n              sub\n              dup2\n              add\n              swap1\n              tag_28\n              swap2\n              swap1\n              tag_29\n              jump\t// in\n            tag_28:\n              tag_30\n              jump\t// in\n            tag_27:\n              stop\n                /* \"Landder\":1973:2132  function getLand() public view returns(address, string memory, uint[] memory, uint[] memory){... */\n            tag_9:\n                /* \"Landder\":2012:2019  address */\n              0x00\n                /* \"Landder\":2021:2034  string memory */\n              0x60\n                /* \"Landder\":2036:2049  uint[] memory */\n              dup1\n                /* \"Landder\":2051:2064  uint[] memory */\n              0x60\n                /* \"Landder\":2083:2088  owner */\n              0x00\n              dup1\n              sload\n              swap1\n              0x0100\n              exp\n              swap1\n              div\n              0xffffffffffffffffffffffffffffffffffffffff\n              and\n                /* \"Landder\":2090:2099  legal_doc */\n              0x05\n                /* \"Landder\":2101:2111  latitudes_ */\n              0x02\n                /* \"Landder\":2113:2124  longitudes_ */\n              0x03\n                /* \"Landder\":2075:2125  return (owner, legal_doc, latitudes_, longitudes_) */\n              dup3\n              dup1\n              sload\n              tag_32\n              swap1\n              tag_33\n              jump\t// in\n            tag_32:\n              dup1\n              0x1f\n              add\n              0x20\n              dup1\n              swap2\n              div\n              mul\n              0x20\n              add\n              mload(0x40)\n              swap1\n              dup2\n              add\n              0x40\n              mstore\n              dup1\n              swap3\n              swap2\n              swap1\n              dup2\n              dup2\n              mstore\n              0x20\n              add\n              dup3\n              dup1\n              sload\n              tag_34\n              swap1\n              tag_33\n              jump\t// in\n            tag_34:\n              dup1\n              iszero\n              tag_35\n              jumpi\n              dup1\n              0x1f\n              lt\n              tag_36\n              jumpi\n              0x0100\n              dup1\n              dup4\n              sload\n              div\n              mul\n              dup4\n              mstore\n              swap2\n              0x20\n              add\n              swap2\n              jump(tag_35)\n            tag_36:\n              dup3\n              add\n              swap2\n              swap1\n              0x00\n              mstore\n              keccak256(0x00, 0x20)\n              swap1\n            tag_37:\n              dup2\n              sload\n              dup2\n              mstore\n              swap1\n              0x01\n              add\n              swap1\n              0x20\n              add\n              dup1\n              dup4\n              gt\n              tag_37\n              jumpi\n              dup3\n              swap1\n              sub\n              0x1f\n              and\n              dup3\n              add\n              swap2\n            tag_35:\n              pop\n              pop\n              pop\n              pop\n              pop\n              swap3\n              pop\n              dup2\n              dup1\n              sload\n              dup1\n              0x20\n              mul\n              0x20\n              add\n              mload(0x40)\n              swap1\n              dup2\n              add\n              0x40\n              mstore\n              dup1\n              swap3\n              swap2\n              swap1\n              dup2\n              dup2\n              mstore\n              0x20\n              add\n              dup3\n              dup1\n              sload\n              dup1\n              iszero\n              tag_38\n              jumpi\n              0x20\n              mul\n              dup3\n              add\n              swap2\n              swap1\n              0x00\n              mstore\n              keccak256(0x00, 0x20)\n              swap1\n            tag_39:\n              dup2\n              sload\n              dup2\n              mstore\n              0x20\n              add\n              swap1\n              0x01\n              add\n              swap1\n              dup1\n              dup4\n              gt\n              tag_39\n              jumpi\n            tag_38:\n              pop\n              pop\n              pop\n              pop\n              pop\n              swap2\n              pop\n              dup1\n              dup1\n              sload\n              dup1\n              0x20\n              mul\n              0x20\n              add\n              mload(0x40)\n              swap1\n              dup2\n              add\n              0x40\n              mstore\n              dup1\n              swap3\n              swap2\n              swap1\n              dup2\n              dup2\n              mstore\n              0x20\n              add\n              dup3\n              dup1\n              sload\n              dup1\n              iszero\n              tag_40\n              jumpi\n              0x20\n              mul\n              dup3\n              add\n              swap2\n              swap1\n              0x00\n              mstore\n              keccak256(0x00, 0x20)\n              swap1\n            tag_41:\n              dup2\n              sload\n              dup2\n              mstore\n              0x20\n              add\n              swap1\n              0x01\n              add\n              swap1\n              dup1\n              dup4\n              gt\n              tag_41\n              jumpi\n            tag_40:\n              pop\n              pop\n              pop\n              pop\n              pop\n              swap1\n              pop\n              swap4\n              pop\n              swap4\n              pop\n              swap4\n              pop\n              swap4\n              pop\n                /* \"Landder\":1973:2132  function getLand() public view returns(address, string memory, uint[] memory, uint[] memory){... */\n              swap1\n              swap2\n              swap3\n              swap4\n              jump\t// out\n                /* \"Landder\":824:844  address public owner */\n            tag_14:\n              0x00\n              dup1\n              sload\n              swap1\n              0x0100\n              exp\n              swap1\n              div\n              0xffffffffffffffffffffffffffffffffffffffff\n              and\n              dup2\n              jump\t// out\n                /* \"Landder\":1418:1760  function addLandMark(uint latitude, uint longitude) public payable restricted{... */\n            tag_20:\n                /* \"Landder\":1245:1255  msg.sender */\n              caller\n                /* \"Landder\":1236:1255  owner == msg.sender */\n              0xffffffffffffffffffffffffffffffffffffffff\n              and\n                /* \"Landder\":1236:1241  owner */\n              0x00\n              dup1\n              sload\n              swap1\n              0x0100\n              exp\n              swap1\n              div\n              0xffffffffffffffffffffffffffffffffffffffff\n              and\n                /* \"Landder\":1236:1255  owner == msg.sender */\n              0xffffffffffffffffffffffffffffffffffffffff\n              and\n              eq\n                /* \"Landder\":1228:1256  require(owner == msg.sender) */\n              tag_43\n              jumpi\n              0x00\n              dup1\n              revert\n            tag_43:\n                /* \"Landder\":1526:1553  landmark_registration_price */\n              sload(0x0a)\n                /* \"Landder\":1513:1522  msg.value */\n              callvalue\n                /* \"Landder\":1513:1553  msg.value >= landmark_registration_price */\n              lt\n              iszero\n                /* \"Landder\":1505:1554  require(msg.value >= landmark_registration_price) */\n              tag_45\n              jumpi\n              0x00\n              dup1\n              revert\n            tag_45:\n                /* \"Landder\":1611:1612  0 */\n              0x00\n                /* \"Landder\":1588:1607  registration_status */\n              sload(0x08)\n                /* \"Landder\":1588:1612  registration_status == 0 */\n              eq\n                /* \"Landder\":1580:1613  require(registration_status == 0) */\n              tag_46\n              jumpi\n              0x00\n              dup1\n              revert\n            tag_46:\n                /* \"Landder\":1623:1635  lander_owner */\n              0x09\n              0x00\n              swap1\n              sload\n              swap1\n              0x0100\n              exp\n              swap1\n              div\n              0xffffffffffffffffffffffffffffffffffffffff\n              and\n                /* \"Landder\":1623:1644  lander_owner.transfer */\n              0xffffffffffffffffffffffffffffffffffffffff\n              and\n                /* \"Landder\":1623:1655  lander_owner.transfer(msg.value) */\n              0x08fc\n                /* \"Landder\":1645:1654  msg.value */\n              callvalue\n                /* \"Landder\":1623:1655  lander_owner.transfer(msg.value) */\n              swap1\n              dup2\n              iszero\n              mul\n              swap1\n              mload(0x40)\n              0x00\n              mload(0x40)\n              dup1\n              dup4\n              sub\n              dup2\n              dup6\n              dup9\n              dup9\n              call\n              swap4\n              pop\n              pop\n              pop\n              pop\n              iszero\n              dup1\n              iszero\n              tag_48\n              jumpi\n              returndatasize\n              0x00\n              dup1\n              returndatacopy\n              revert(0x00, returndatasize)\n            tag_48:\n              pop\n                /* \"Landder\":1665:1679  conner_numbers */\n              0x04\n              0x00\n                /* \"Landder\":1665:1681  conner_numbers++ */\n              dup2\n              sload\n              dup1\n              swap3\n              swap2\n              swap1\n              tag_49\n              swap1\n              tag_50\n              jump\t// in\n            tag_49:\n              swap2\n              swap1\n              pop\n              sstore\n              pop\n                /* \"Landder\":1691:1701  latitudes_ */\n              0x02\n                /* \"Landder\":1707:1715  latitude */\n              dup3\n                /* \"Landder\":1691:1716  latitudes_.push(latitude) */\n              swap1\n              dup1\n              0x01\n              dup2\n              sload\n              add\n              dup1\n              dup3\n              sstore\n              dup1\n              swap2\n              pop\n              pop\n              0x01\n              swap1\n              sub\n              swap1\n              0x00\n              mstore\n              keccak256(0x00, 0x20)\n              add\n              0x00\n              swap1\n              swap2\n              swap1\n              swap2\n              swap1\n              swap2\n              pop\n              sstore\n                /* \"Landder\":1726:1737  longitudes_ */\n              0x03\n                /* \"Landder\":1743:1752  longitude */\n              dup2\n                /* \"Landder\":1726:1753  longitudes_.push(longitude) */\n              swap1\n              dup1\n              0x01\n              dup2\n              sload\n              add\n              dup1\n              dup3\n              sstore\n              dup1\n              swap2\n              pop\n              pop\n              0x01\n              swap1\n              sub\n              swap1\n              0x00\n              mstore\n              keccak256(0x00, 0x20)\n              add\n              0x00\n              swap1\n              swap2\n              swap1\n              swap2\n              swap1\n              swap2\n              pop\n              sstore\n                /* \"Landder\":1418:1760  function addLandMark(uint latitude, uint longitude) public payable restricted{... */\n              pop\n              pop\n              jump\t// out\n                /* \"Landder\":1877:1967  function transferTo(address new_owner) public restricted{... */\n            tag_25:\n                /* \"Landder\":1245:1255  msg.sender */\n              caller\n                /* \"Landder\":1236:1255  owner == msg.sender */\n              0xffffffffffffffffffffffffffffffffffffffff\n              and\n                /* \"Landder\":1236:1241  owner */\n              0x00\n              dup1\n              sload\n              swap1\n              0x0100\n              exp\n              swap1\n              div\n              0xffffffffffffffffffffffffffffffffffffffff\n              and\n                /* \"Landder\":1236:1255  owner == msg.sender */\n              0xffffffffffffffffffffffffffffffffffffffff\n              and\n              eq\n                /* \"Landder\":1228:1256  require(owner == msg.sender) */\n              tag_54\n              jumpi\n              0x00\n              dup1\n              revert\n            tag_54:\n                /* \"Landder\":1951:1960  new_owner */\n              dup1\n                /* \"Landder\":1943:1948  owner */\n              0x00\n              dup1\n                /* \"Landder\":1943:1960  owner = new_owner */\n              0x0100\n              exp\n              dup2\n              sload\n              dup2\n              0xffffffffffffffffffffffffffffffffffffffff\n              mul\n              not\n              and\n              swap1\n              dup4\n              0xffffffffffffffffffffffffffffffffffffffff\n              and\n              mul\n              or\n              swap1\n              sstore\n              pop\n                /* \"Landder\":1877:1967  function transferTo(address new_owner) public restricted{... */\n              pop\n              jump\t// out\n                /* \"Landder\":1766:1871  function addLegalDoc(string memory ipfs_doc_id) public restricted{... */\n            tag_30:\n                /* \"Landder\":1245:1255  msg.sender */\n              caller\n                /* \"Landder\":1236:1255  owner == msg.sender */\n              0xffffffffffffffffffffffffffffffffffffffff\n              and\n                /* \"Landder\":1236:1241  owner */\n              0x00\n              dup1\n              sload\n              swap1\n              0x0100\n              exp\n              swap1\n              div\n              0xffffffffffffffffffffffffffffffffffffffff\n              and\n                /* \"Landder\":1236:1255  owner == msg.sender */\n              0xffffffffffffffffffffffffffffffffffffffff\n              and\n              eq\n                /* \"Landder\":1228:1256  require(owner == msg.sender) */\n              tag_57\n              jumpi\n              0x00\n              dup1\n              revert\n            tag_57:\n                /* \"Landder\":1853:1864  ipfs_doc_id */\n              dup1\n                /* \"Landder\":1841:1850  legal_doc */\n              0x05\n                /* \"Landder\":1841:1864  legal_doc = ipfs_doc_id */\n              swap1\n              dup1\n              mload\n              swap1\n              0x20\n              add\n              swap1\n              tag_59\n              swap3\n              swap2\n              swap1\n              tag_60\n              jump\t// in\n            tag_59:\n              pop\n                /* \"Landder\":1766:1871  function addLegalDoc(string memory ipfs_doc_id) public restricted{... */\n              pop\n              jump\t// out\n            tag_60:\n              dup3\n              dup1\n              sload\n              tag_61\n              swap1\n              tag_33\n              jump\t// in\n            tag_61:\n              swap1\n              0x00\n              mstore\n              keccak256(0x00, 0x20)\n              swap1\n              0x1f\n              add\n              0x20\n              swap1\n              div\n              dup2\n              add\n              swap3\n              dup3\n              tag_63\n              jumpi\n              0x00\n              dup6\n              sstore\n              jump(tag_62)\n            tag_63:\n              dup3\n              0x1f\n              lt\n              tag_64\n              jumpi\n              dup1\n              mload\n              not(0xff)\n              and\n              dup4\n              dup1\n              add\n              or\n              dup6\n              sstore\n              jump(tag_62)\n            tag_64:\n              dup3\n              dup1\n              add\n              0x01\n              add\n              dup6\n              sstore\n              dup3\n              iszero\n              tag_62\n              jumpi\n              swap2\n              dup3\n              add\n            tag_65:\n              dup3\n              dup2\n              gt\n              iszero\n              tag_66\n              jumpi\n              dup3\n              mload\n              dup3\n              sstore\n              swap2\n              0x20\n              add\n              swap2\n              swap1\n              0x01\n              add\n              swap1\n              jump(tag_65)\n            tag_66:\n            tag_62:\n              pop\n              swap1\n              pop\n              tag_67\n              swap2\n              swap1\n              tag_68\n              jump\t// in\n            tag_67:\n              pop\n              swap1\n              jump\t// out\n            tag_68:\n            tag_69:\n              dup1\n              dup3\n              gt\n              iszero\n              tag_70\n              jumpi\n              0x00\n              dup2\n              0x00\n              swap1\n              sstore\n              pop\n              0x01\n              add\n              jump(tag_69)\n            tag_70:\n              pop\n              swap1\n              jump\t// out\n                /* \"#utility.yul\":7:133   */\n            tag_71:\n                /* \"#utility.yul\":44:51   */\n              0x00\n                /* \"#utility.yul\":84:126   */\n              0xffffffffffffffffffffffffffffffffffffffff\n                /* \"#utility.yul\":77:82   */\n              dup3\n                /* \"#utility.yul\":73:127   */\n              and\n                /* \"#utility.yul\":62:127   */\n              swap1\n              pop\n                /* \"#utility.yul\":7:133   */\n              swap2\n              swap1\n              pop\n              jump\t// out\n                /* \"#utility.yul\":139:235   */\n            tag_72:\n                /* \"#utility.yul\":176:183   */\n              0x00\n                /* \"#utility.yul\":205:229   */\n              tag_108\n                /* \"#utility.yul\":223:228   */\n              dup3\n                /* \"#utility.yul\":205:229   */\n              tag_71\n              jump\t// in\n            tag_108:\n                /* \"#utility.yul\":194:229   */\n              swap1\n              pop\n                /* \"#utility.yul\":139:235   */\n              swap2\n              swap1\n              pop\n              jump\t// out\n                /* \"#utility.yul\":241:359   */\n            tag_73:\n                /* \"#utility.yul\":328:352   */\n              tag_110\n                /* \"#utility.yul\":346:351   */\n              dup2\n                /* \"#utility.yul\":328:352   */\n              tag_72\n              jump\t// in\n            tag_110:\n                /* \"#utility.yul\":323:326   */\n              dup3\n                /* \"#utility.yul\":316:353   */\n              mstore\n                /* \"#utility.yul\":241:359   */\n              pop\n              pop\n              jump\t// out\n                /* \"#utility.yul\":365:464   */\n            tag_74:\n                /* \"#utility.yul\":417:423   */\n              0x00\n                /* \"#utility.yul\":451:456   */\n              dup2\n                /* \"#utility.yul\":445:457   */\n              mload\n                /* \"#utility.yul\":435:457   */\n              swap1\n              pop\n                /* \"#utility.yul\":365:464   */\n              swap2\n              swap1\n              pop\n              jump\t// out\n                /* \"#utility.yul\":470:639   */\n            tag_75:\n                /* \"#utility.yul\":554:565   */\n              0x00\n                /* \"#utility.yul\":588:594   */\n              dup3\n                /* \"#utility.yul\":583:586   */\n              dup3\n                /* \"#utility.yul\":576:595   */\n              mstore\n                /* \"#utility.yul\":628:632   */\n              0x20\n                /* \"#utility.yul\":623:626   */\n              dup3\n                /* \"#utility.yul\":619:633   */\n              add\n                /* \"#utility.yul\":604:633   */\n              swap1\n              pop\n                /* \"#utility.yul\":470:639   */\n              swap3\n              swap2\n              pop\n              pop\n              jump\t// out\n                /* \"#utility.yul\":645:952   */\n            tag_76:\n                /* \"#utility.yul\":713:714   */\n              0x00\n                /* \"#utility.yul\":723:836   */\n            tag_114:\n                /* \"#utility.yul\":737:743   */\n              dup4\n                /* \"#utility.yul\":734:735   */\n              dup2\n                /* \"#utility.yul\":731:744   */\n              lt\n                /* \"#utility.yul\":723:836   */\n              iszero\n              tag_116\n              jumpi\n                /* \"#utility.yul\":822:823   */\n              dup1\n                /* \"#utility.yul\":817:820   */\n              dup3\n                /* \"#utility.yul\":813:824   */\n              add\n                /* \"#utility.yul\":807:825   */\n              mload\n                /* \"#utility.yul\":803:804   */\n              dup2\n                /* \"#utility.yul\":798:801   */\n              dup5\n                /* \"#utility.yul\":794:805   */\n              add\n                /* \"#utility.yul\":787:826   */\n              mstore\n                /* \"#utility.yul\":759:761   */\n              0x20\n                /* \"#utility.yul\":756:757   */\n              dup2\n                /* \"#utility.yul\":752:762   */\n              add\n                /* \"#utility.yul\":747:762   */\n              swap1\n              pop\n                /* \"#utility.yul\":723:836   */\n              jump(tag_114)\n            tag_116:\n                /* \"#utility.yul\":854:860   */\n              dup4\n                /* \"#utility.yul\":851:852   */\n              dup2\n                /* \"#utility.yul\":848:861   */\n              gt\n                /* \"#utility.yul\":845:946   */\n              iszero\n              tag_117\n              jumpi\n                /* \"#utility.yul\":934:935   */\n              0x00\n                /* \"#utility.yul\":925:931   */\n              dup5\n                /* \"#utility.yul\":920:923   */\n              dup5\n                /* \"#utility.yul\":916:932   */\n              add\n                /* \"#utility.yul\":909:936   */\n              mstore\n                /* \"#utility.yul\":845:946   */\n            tag_117:\n                /* \"#utility.yul\":694:952   */\n              pop\n                /* \"#utility.yul\":645:952   */\n              pop\n              pop\n              pop\n              jump\t// out\n                /* \"#utility.yul\":958:1060   */\n            tag_77:\n                /* \"#utility.yul\":999:1005   */\n              0x00\n                /* \"#utility.yul\":1050:1052   */\n              0x1f\n                /* \"#utility.yul\":1046:1053   */\n              not\n                /* \"#utility.yul\":1041:1043   */\n              0x1f\n                /* \"#utility.yul\":1034:1039   */\n              dup4\n                /* \"#utility.yul\":1030:1044   */\n              add\n                /* \"#utility.yul\":1026:1054   */\n              and\n                /* \"#utility.yul\":1016:1054   */\n              swap1\n              pop\n                /* \"#utility.yul\":958:1060   */\n              swap2\n              swap1\n              pop\n              jump\t// out\n                /* \"#utility.yul\":1066:1430   */\n            tag_78:\n                /* \"#utility.yul\":1154:1157   */\n              0x00\n                /* \"#utility.yul\":1182:1221   */\n              tag_120\n                /* \"#utility.yul\":1215:1220   */\n              dup3\n                /* \"#utility.yul\":1182:1221   */\n              tag_74\n              jump\t// in\n            tag_120:\n                /* \"#utility.yul\":1237:1308   */\n              tag_121\n                /* \"#utility.yul\":1301:1307   */\n              dup2\n                /* \"#utility.yul\":1296:1299   */\n              dup6\n                /* \"#utility.yul\":1237:1308   */\n              tag_75\n              jump\t// in\n            tag_121:\n                /* \"#utility.yul\":1230:1308   */\n              swap4\n              pop\n                /* \"#utility.yul\":1317:1369   */\n              tag_122\n                /* \"#utility.yul\":1362:1368   */\n              dup2\n                /* \"#utility.yul\":1357:1360   */\n              dup6\n                /* \"#utility.yul\":1350:1354   */\n              0x20\n                /* \"#utility.yul\":1343:1348   */\n              dup7\n                /* \"#utility.yul\":1339:1355   */\n              add\n                /* \"#utility.yul\":1317:1369   */\n              tag_76\n              jump\t// in\n            tag_122:\n                /* \"#utility.yul\":1394:1423   */\n              tag_123\n                /* \"#utility.yul\":1416:1422   */\n              dup2\n                /* \"#utility.yul\":1394:1423   */\n              tag_77\n              jump\t// in\n            tag_123:\n                /* \"#utility.yul\":1389:1392   */\n              dup5\n                /* \"#utility.yul\":1385:1424   */\n              add\n                /* \"#utility.yul\":1378:1424   */\n              swap2\n              pop\n                /* \"#utility.yul\":1158:1430   */\n              pop\n                /* \"#utility.yul\":1066:1430   */\n              swap3\n              swap2\n              pop\n              pop\n              jump\t// out\n                /* \"#utility.yul\":1436:1550   */\n            tag_79:\n                /* \"#utility.yul\":1503:1509   */\n              0x00\n                /* \"#utility.yul\":1537:1542   */\n              dup2\n                /* \"#utility.yul\":1531:1543   */\n              mload\n                /* \"#utility.yul\":1521:1543   */\n              swap1\n              pop\n                /* \"#utility.yul\":1436:1550   */\n              swap2\n              swap1\n              pop\n              jump\t// out\n                /* \"#utility.yul\":1556:1740   */\n            tag_80:\n                /* \"#utility.yul\":1655:1666   */\n              0x00\n                /* \"#utility.yul\":1689:1695   */\n              dup3\n                /* \"#utility.yul\":1684:1687   */\n              dup3\n                /* \"#utility.yul\":1677:1696   */\n              mstore\n                /* \"#utility.yul\":1729:1733   */\n              0x20\n                /* \"#utility.yul\":1724:1727   */\n              dup3\n                /* \"#utility.yul\":1720:1734   */\n              add\n                /* \"#utility.yul\":1705:1734   */\n              swap1\n              pop\n                /* \"#utility.yul\":1556:1740   */\n              swap3\n              swap2\n              pop\n              pop\n              jump\t// out\n                /* \"#utility.yul\":1746:1878   */\n            tag_81:\n                /* \"#utility.yul\":1813:1817   */\n              0x00\n                /* \"#utility.yul\":1836:1839   */\n              dup2\n                /* \"#utility.yul\":1828:1839   */\n              swap1\n              pop\n                /* \"#utility.yul\":1866:1870   */\n              0x20\n                /* \"#utility.yul\":1861:1864   */\n              dup3\n                /* \"#utility.yul\":1857:1871   */\n              add\n                /* \"#utility.yul\":1849:1871   */\n              swap1\n              pop\n                /* \"#utility.yul\":1746:1878   */\n              swap2\n              swap1\n              pop\n              jump\t// out\n                /* \"#utility.yul\":1884:1961   */\n            tag_82:\n                /* \"#utility.yul\":1921:1928   */\n              0x00\n                /* \"#utility.yul\":1950:1955   */\n              dup2\n                /* \"#utility.yul\":1939:1955   */\n              swap1\n              pop\n                /* \"#utility.yul\":1884:1961   */\n              swap2\n              swap1\n              pop\n              jump\t// out\n                /* \"#utility.yul\":1967:2075   */\n            tag_83:\n                /* \"#utility.yul\":2044:2068   */\n              tag_129\n                /* \"#utility.yul\":2062:2067   */\n              dup2\n                /* \"#utility.yul\":2044:2068   */\n              tag_82\n              jump\t// in\n            tag_129:\n                /* \"#utility.yul\":2039:2042   */\n              dup3\n                /* \"#utility.yul\":2032:2069   */\n              mstore\n                /* \"#utility.yul\":1967:2075   */\n              pop\n              pop\n              jump\t// out\n                /* \"#utility.yul\":2081:2260   */\n            tag_84:\n                /* \"#utility.yul\":2150:2160   */\n              0x00\n                /* \"#utility.yul\":2171:2217   */\n              tag_131\n                /* \"#utility.yul\":2213:2216   */\n              dup4\n                /* \"#utility.yul\":2205:2211   */\n              dup4\n                /* \"#utility.yul\":2171:2217   */\n              tag_83\n              jump\t// in\n            tag_131:\n                /* \"#utility.yul\":2249:2253   */\n              0x20\n                /* \"#utility.yul\":2244:2247   */\n              dup4\n                /* \"#utility.yul\":2240:2254   */\n              add\n                /* \"#utility.yul\":2226:2254   */\n              swap1\n              pop\n                /* \"#utility.yul\":2081:2260   */\n              swap3\n              swap2\n              pop\n              pop\n              jump\t// out\n                /* \"#utility.yul\":2266:2379   */\n            tag_85:\n                /* \"#utility.yul\":2336:2340   */\n              0x00\n                /* \"#utility.yul\":2368:2372   */\n              0x20\n                /* \"#utility.yul\":2363:2366   */\n              dup3\n                /* \"#utility.yul\":2359:2373   */\n              add\n                /* \"#utility.yul\":2351:2373   */\n              swap1\n              pop\n                /* \"#utility.yul\":2266:2379   */\n              swap2\n              swap1\n              pop\n              jump\t// out\n                /* \"#utility.yul\":2415:3147   */\n            tag_86:\n                /* \"#utility.yul\":2534:2537   */\n              0x00\n                /* \"#utility.yul\":2563:2617   */\n              tag_134\n                /* \"#utility.yul\":2611:2616   */\n              dup3\n                /* \"#utility.yul\":2563:2617   */\n              tag_79\n              jump\t// in\n            tag_134:\n                /* \"#utility.yul\":2633:2719   */\n              tag_135\n                /* \"#utility.yul\":2712:2718   */\n              dup2\n                /* \"#utility.yul\":2707:2710   */\n              dup6\n                /* \"#utility.yul\":2633:2719   */\n              tag_80\n              jump\t// in\n            tag_135:\n                /* \"#utility.yul\":2626:2719   */\n              swap4\n              pop\n                /* \"#utility.yul\":2743:2799   */\n              tag_136\n                /* \"#utility.yul\":2793:2798   */\n              dup4\n                /* \"#utility.yul\":2743:2799   */\n              tag_81\n              jump\t// in\n            tag_136:\n                /* \"#utility.yul\":2822:2829   */\n              dup1\n                /* \"#utility.yul\":2853:2854   */\n              0x00\n                /* \"#utility.yul\":2838:3122   */\n            tag_137:\n                /* \"#utility.yul\":2863:2869   */\n              dup4\n                /* \"#utility.yul\":2860:2861   */\n              dup2\n                /* \"#utility.yul\":2857:2870   */\n              lt\n                /* \"#utility.yul\":2838:3122   */\n              iszero\n              tag_139\n              jumpi\n                /* \"#utility.yul\":2939:2945   */\n              dup2\n                /* \"#utility.yul\":2933:2946   */\n              mload\n                /* \"#utility.yul\":2966:3029   */\n              tag_140\n                /* \"#utility.yul\":3025:3028   */\n              dup9\n                /* \"#utility.yul\":3010:3023   */\n              dup3\n                /* \"#utility.yul\":2966:3029   */\n              tag_84\n              jump\t// in\n            tag_140:\n                /* \"#utility.yul\":2959:3029   */\n              swap8\n              pop\n                /* \"#utility.yul\":3052:3112   */\n              tag_141\n                /* \"#utility.yul\":3105:3111   */\n              dup4\n                /* \"#utility.yul\":3052:3112   */\n              tag_85\n              jump\t// in\n            tag_141:\n                /* \"#utility.yul\":3042:3112   */\n              swap3\n              pop\n                /* \"#utility.yul\":2898:3122   */\n              pop\n                /* \"#utility.yul\":2885:2886   */\n              0x01\n                /* \"#utility.yul\":2882:2883   */\n              dup2\n                /* \"#utility.yul\":2878:2887   */\n              add\n                /* \"#utility.yul\":2873:2887   */\n              swap1\n              pop\n                /* \"#utility.yul\":2838:3122   */\n              jump(tag_137)\n            tag_139:\n                /* \"#utility.yul\":2842:2856   */\n              pop\n                /* \"#utility.yul\":3138:3141   */\n              dup6\n                /* \"#utility.yul\":3131:3141   */\n              swap4\n              pop\n                /* \"#utility.yul\":2539:3147   */\n              pop\n              pop\n              pop\n                /* \"#utility.yul\":2415:3147   */\n              swap3\n              swap2\n              pop\n              pop\n              jump\t// out\n                /* \"#utility.yul\":3153:4099   */\n            tag_11:\n                /* \"#utility.yul\":3450:3454   */\n              0x00\n                /* \"#utility.yul\":3488:3491   */\n              0x80\n                /* \"#utility.yul\":3477:3486   */\n              dup3\n                /* \"#utility.yul\":3473:3492   */\n              add\n                /* \"#utility.yul\":3465:3492   */\n              swap1\n              pop\n                /* \"#utility.yul\":3502:3573   */\n              tag_143\n                /* \"#utility.yul\":3570:3571   */\n              0x00\n                /* \"#utility.yul\":3559:3568   */\n              dup4\n                /* \"#utility.yul\":3555:3572   */\n              add\n                /* \"#utility.yul\":3546:3552   */\n              dup8\n                /* \"#utility.yul\":3502:3573   */\n              tag_73\n              jump\t// in\n            tag_143:\n                /* \"#utility.yul\":3620:3629   */\n              dup2\n                /* \"#utility.yul\":3614:3618   */\n              dup2\n                /* \"#utility.yul\":3610:3630   */\n              sub\n                /* \"#utility.yul\":3605:3607   */\n              0x20\n                /* \"#utility.yul\":3594:3603   */\n              dup4\n                /* \"#utility.yul\":3590:3608   */\n              add\n                /* \"#utility.yul\":3583:3631   */\n              mstore\n                /* \"#utility.yul\":3648:3726   */\n              tag_144\n                /* \"#utility.yul\":3721:3725   */\n              dup2\n                /* \"#utility.yul\":3712:3718   */\n              dup7\n                /* \"#utility.yul\":3648:3726   */\n              tag_78\n              jump\t// in\n            tag_144:\n                /* \"#utility.yul\":3640:3726   */\n              swap1\n              pop\n                /* \"#utility.yul\":3773:3782   */\n              dup2\n                /* \"#utility.yul\":3767:3771   */\n              dup2\n                /* \"#utility.yul\":3763:3783   */\n              sub\n                /* \"#utility.yul\":3758:3760   */\n              0x40\n                /* \"#utility.yul\":3747:3756   */\n              dup4\n                /* \"#utility.yul\":3743:3761   */\n              add\n                /* \"#utility.yul\":3736:3784   */\n              mstore\n                /* \"#utility.yul\":3801:3909   */\n              tag_145\n                /* \"#utility.yul\":3904:3908   */\n              dup2\n                /* \"#utility.yul\":3895:3901   */\n              dup6\n                /* \"#utility.yul\":3801:3909   */\n              tag_86\n              jump\t// in\n            tag_145:\n                /* \"#utility.yul\":3793:3909   */\n              swap1\n              pop\n                /* \"#utility.yul\":3956:3965   */\n              dup2\n                /* \"#utility.yul\":3950:3954   */\n              dup2\n                /* \"#utility.yul\":3946:3966   */\n              sub\n                /* \"#utility.yul\":3941:3943   */\n              0x60\n                /* \"#utility.yul\":3930:3939   */\n              dup4\n                /* \"#utility.yul\":3926:3944   */\n              add\n                /* \"#utility.yul\":3919:3967   */\n              mstore\n                /* \"#utility.yul\":3984:4092   */\n              tag_146\n                /* \"#utility.yul\":4087:4091   */\n              dup2\n                /* \"#utility.yul\":4078:4084   */\n              dup5\n                /* \"#utility.yul\":3984:4092   */\n              tag_86\n              jump\t// in\n            tag_146:\n                /* \"#utility.yul\":3976:4092   */\n              swap1\n              pop\n                /* \"#utility.yul\":3153:4099   */\n              swap6\n              swap5\n              pop\n              pop\n              pop\n              pop\n              pop\n              jump\t// out\n                /* \"#utility.yul\":4105:4327   */\n            tag_16:\n                /* \"#utility.yul\":4198:4202   */\n              0x00\n                /* \"#utility.yul\":4236:4238   */\n              0x20\n                /* \"#utility.yul\":4225:4234   */\n              dup3\n                /* \"#utility.yul\":4221:4239   */\n              add\n                /* \"#utility.yul\":4213:4239   */\n              swap1\n              pop\n                /* \"#utility.yul\":4249:4320   */\n              tag_148\n                /* \"#utility.yul\":4317:4318   */\n              0x00\n                /* \"#utility.yul\":4306:4315   */\n              dup4\n                /* \"#utility.yul\":4302:4319   */\n              add\n                /* \"#utility.yul\":4293:4299   */\n              dup5\n                /* \"#utility.yul\":4249:4320   */\n              tag_73\n              jump\t// in\n            tag_148:\n                /* \"#utility.yul\":4105:4327   */\n              swap3\n              swap2\n              pop\n              pop\n              jump\t// out\n                /* \"#utility.yul\":4333:4408   */\n            tag_87:\n                /* \"#utility.yul\":4366:4372   */\n              0x00\n                /* \"#utility.yul\":4399:4401   */\n              0x40\n                /* \"#utility.yul\":4393:4402   */\n              mload\n                /* \"#utility.yul\":4383:4402   */\n              swap1\n              pop\n                /* \"#utility.yul\":4333:4408   */\n              swap1\n              jump\t// out\n                /* \"#utility.yul\":4414:4531   */\n            tag_88:\n                /* \"#utility.yul\":4523:4524   */\n              0x00\n                /* \"#utility.yul\":4520:4521   */\n              dup1\n                /* \"#utility.yul\":4513:4525   */\n              revert\n                /* \"#utility.yul\":4537:4654   */\n            tag_89:\n                /* \"#utility.yul\":4646:4647   */\n              0x00\n                /* \"#utility.yul\":4643:4644   */\n              dup1\n                /* \"#utility.yul\":4636:4648   */\n              revert\n                /* \"#utility.yul\":4660:4782   */\n            tag_90:\n                /* \"#utility.yul\":4733:4757   */\n              tag_153\n                /* \"#utility.yul\":4751:4756   */\n              dup2\n                /* \"#utility.yul\":4733:4757   */\n              tag_82\n              jump\t// in\n            tag_153:\n                /* \"#utility.yul\":4726:4731   */\n              dup2\n                /* \"#utility.yul\":4723:4758   */\n              eq\n                /* \"#utility.yul\":4713:4776   */\n              tag_154\n              jumpi\n                /* \"#utility.yul\":4772:4773   */\n              0x00\n                /* \"#utility.yul\":4769:4770   */\n              dup1\n                /* \"#utility.yul\":4762:4774   */\n              revert\n                /* \"#utility.yul\":4713:4776   */\n            tag_154:\n                /* \"#utility.yul\":4660:4782   */\n              pop\n              jump\t// out\n                /* \"#utility.yul\":4788:4927   */\n            tag_91:\n                /* \"#utility.yul\":4834:4839   */\n              0x00\n                /* \"#utility.yul\":4872:4878   */\n              dup2\n                /* \"#utility.yul\":4859:4879   */\n              calldataload\n                /* \"#utility.yul\":4850:4879   */\n              swap1\n              pop\n                /* \"#utility.yul\":4888:4921   */\n              tag_156\n                /* \"#utility.yul\":4915:4920   */\n              dup2\n                /* \"#utility.yul\":4888:4921   */\n              tag_90\n              jump\t// in\n            tag_156:\n                /* \"#utility.yul\":4788:4927   */\n              swap3\n              swap2\n              pop\n              pop\n              jump\t// out\n                /* \"#utility.yul\":4933:5407   */\n            tag_19:\n                /* \"#utility.yul\":5001:5007   */\n              0x00\n                /* \"#utility.yul\":5009:5015   */\n              dup1\n                /* \"#utility.yul\":5058:5060   */\n              0x40\n                /* \"#utility.yul\":5046:5055   */\n              dup4\n                /* \"#utility.yul\":5037:5044   */\n              dup6\n                /* \"#utility.yul\":5033:5056   */\n              sub\n                /* \"#utility.yul\":5029:5061   */\n              slt\n                /* \"#utility.yul\":5026:5145   */\n              iszero\n              tag_158\n              jumpi\n                /* \"#utility.yul\":5064:5143   */\n              tag_159\n              tag_88\n              jump\t// in\n            tag_159:\n                /* \"#utility.yul\":5026:5145   */\n            tag_158:\n                /* \"#utility.yul\":5184:5185   */\n              0x00\n                /* \"#utility.yul\":5209:5262   */\n              tag_160\n                /* \"#utility.yul\":5254:5261   */\n              dup6\n                /* \"#utility.yul\":5245:5251   */\n              dup3\n                /* \"#utility.yul\":5234:5243   */\n              dup7\n                /* \"#utility.yul\":5230:5252   */\n              add\n                /* \"#utility.yul\":5209:5262   */\n              tag_91\n              jump\t// in\n            tag_160:\n                /* \"#utility.yul\":5199:5262   */\n              swap3\n              pop\n                /* \"#utility.yul\":5155:5272   */\n              pop\n                /* \"#utility.yul\":5311:5313   */\n              0x20\n                /* \"#utility.yul\":5337:5390   */\n              tag_161\n                /* \"#utility.yul\":5382:5389   */\n              dup6\n                /* \"#utility.yul\":5373:5379   */\n              dup3\n                /* \"#utility.yul\":5362:5371   */\n              dup7\n                /* \"#utility.yul\":5358:5380   */\n              add\n                /* \"#utility.yul\":5337:5390   */\n              tag_91\n              jump\t// in\n            tag_161:\n                /* \"#utility.yul\":5327:5390   */\n              swap2\n              pop\n                /* \"#utility.yul\":5282:5400   */\n              pop\n                /* \"#utility.yul\":4933:5407   */\n              swap3\n              pop\n              swap3\n              swap1\n              pop\n              jump\t// out\n                /* \"#utility.yul\":5413:5535   */\n            tag_92:\n                /* \"#utility.yul\":5486:5510   */\n              tag_163\n                /* \"#utility.yul\":5504:5509   */\n              dup2\n                /* \"#utility.yul\":5486:5510   */\n              tag_72\n              jump\t// in\n            tag_163:\n                /* \"#utility.yul\":5479:5484   */\n              dup2\n                /* \"#utility.yul\":5476:5511   */\n              eq\n                /* \"#utility.yul\":5466:5529   */\n              tag_164\n              jumpi\n                /* \"#utility.yul\":5525:5526   */\n              0x00\n                /* \"#utility.yul\":5522:5523   */\n              dup1\n                /* \"#utility.yul\":5515:5527   */\n              revert\n                /* \"#utility.yul\":5466:5529   */\n            tag_164:\n                /* \"#utility.yul\":5413:5535   */\n              pop\n              jump\t// out\n                /* \"#utility.yul\":5541:5680   */\n            tag_93:\n                /* \"#utility.yul\":5587:5592   */\n              0x00\n                /* \"#utility.yul\":5625:5631   */\n              dup2\n                /* \"#utility.yul\":5612:5632   */\n              calldataload\n                /* \"#utility.yul\":5603:5632   */\n              swap1\n              pop\n                /* \"#utility.yul\":5641:5674   */\n              tag_166\n                /* \"#utility.yul\":5668:5673   */\n              dup2\n                /* \"#utility.yul\":5641:5674   */\n              tag_92\n              jump\t// in\n            tag_166:\n                /* \"#utility.yul\":5541:5680   */\n              swap3\n              swap2\n              pop\n              pop\n              jump\t// out\n                /* \"#utility.yul\":5686:6015   */\n            tag_24:\n                /* \"#utility.yul\":5745:5751   */\n              0x00\n                /* \"#utility.yul\":5794:5796   */\n              0x20\n                /* \"#utility.yul\":5782:5791   */\n              dup3\n                /* \"#utility.yul\":5773:5780   */\n              dup5\n                /* \"#utility.yul\":5769:5792   */\n              sub\n                /* \"#utility.yul\":5765:5797   */\n              slt\n                /* \"#utility.yul\":5762:5881   */\n              iszero\n              tag_168\n              jumpi\n                /* \"#utility.yul\":5800:5879   */\n              tag_169\n              tag_88\n              jump\t// in\n            tag_169:\n                /* \"#utility.yul\":5762:5881   */\n            tag_168:\n                /* \"#utility.yul\":5920:5921   */\n              0x00\n                /* \"#utility.yul\":5945:5998   */\n              tag_170\n                /* \"#utility.yul\":5990:5997   */\n              dup5\n                /* \"#utility.yul\":5981:5987   */\n              dup3\n                /* \"#utility.yul\":5970:5979   */\n              dup6\n                /* \"#utility.yul\":5966:5988   */\n              add\n                /* \"#utility.yul\":5945:5998   */\n              tag_93\n              jump\t// in\n            tag_170:\n                /* \"#utility.yul\":5935:5998   */\n              swap2\n              pop\n                /* \"#utility.yul\":5891:6008   */\n              pop\n                /* \"#utility.yul\":5686:6015   */\n              swap3\n              swap2\n              pop\n              pop\n              jump\t// out\n                /* \"#utility.yul\":6021:6138   */\n            tag_94:\n                /* \"#utility.yul\":6130:6131   */\n              0x00\n                /* \"#utility.yul\":6127:6128   */\n              dup1\n                /* \"#utility.yul\":6120:6132   */\n              revert\n                /* \"#utility.yul\":6144:6261   */\n            tag_95:\n                /* \"#utility.yul\":6253:6254   */\n              0x00\n                /* \"#utility.yul\":6250:6251   */\n              dup1\n                /* \"#utility.yul\":6243:6255   */\n              revert\n                /* \"#utility.yul\":6267:6447   */\n            tag_96:\n                /* \"#utility.yul\":6315:6392   */\n              0x4e487b7100000000000000000000000000000000000000000000000000000000\n                /* \"#utility.yul\":6312:6313   */\n              0x00\n                /* \"#utility.yul\":6305:6393   */\n              mstore\n                /* \"#utility.yul\":6412:6416   */\n              0x41\n                /* \"#utility.yul\":6409:6410   */\n              0x04\n                /* \"#utility.yul\":6402:6417   */\n              mstore\n                /* \"#utility.yul\":6436:6440   */\n              0x24\n                /* \"#utility.yul\":6433:6434   */\n              0x00\n                /* \"#utility.yul\":6426:6441   */\n              revert\n                /* \"#utility.yul\":6453:6734   */\n            tag_97:\n                /* \"#utility.yul\":6536:6563   */\n              tag_175\n                /* \"#utility.yul\":6558:6562   */\n              dup3\n                /* \"#utility.yul\":6536:6563   */\n              tag_77\n              jump\t// in\n            tag_175:\n                /* \"#utility.yul\":6528:6534   */\n              dup2\n                /* \"#utility.yul\":6524:6564   */\n              add\n                /* \"#utility.yul\":6666:6672   */\n              dup2\n                /* \"#utility.yul\":6654:6664   */\n              dup2\n                /* \"#utility.yul\":6651:6673   */\n              lt\n                /* \"#utility.yul\":6630:6648   */\n              0xffffffffffffffff\n                /* \"#utility.yul\":6618:6628   */\n              dup3\n                /* \"#utility.yul\":6615:6649   */\n              gt\n                /* \"#utility.yul\":6612:6674   */\n              or\n                /* \"#utility.yul\":6609:6697   */\n              iszero\n              tag_176\n              jumpi\n                /* \"#utility.yul\":6677:6695   */\n              tag_177\n              tag_96\n              jump\t// in\n            tag_177:\n                /* \"#utility.yul\":6609:6697   */\n            tag_176:\n                /* \"#utility.yul\":6717:6727   */\n              dup1\n                /* \"#utility.yul\":6713:6715   */\n              0x40\n                /* \"#utility.yul\":6706:6728   */\n              mstore\n                /* \"#utility.yul\":6496:6734   */\n              pop\n                /* \"#utility.yul\":6453:6734   */\n              pop\n              pop\n              jump\t// out\n                /* \"#utility.yul\":6740:6869   */\n            tag_98:\n                /* \"#utility.yul\":6774:6780   */\n              0x00\n                /* \"#utility.yul\":6801:6821   */\n              tag_179\n              tag_87\n              jump\t// in\n            tag_179:\n                /* \"#utility.yul\":6791:6821   */\n              swap1\n              pop\n                /* \"#utility.yul\":6830:6863   */\n              tag_180\n                /* \"#utility.yul\":6858:6862   */\n              dup3\n                /* \"#utility.yul\":6850:6856   */\n              dup3\n                /* \"#utility.yul\":6830:6863   */\n              tag_97\n              jump\t// in\n            tag_180:\n                /* \"#utility.yul\":6740:6869   */\n              swap2\n              swap1\n              pop\n              jump\t// out\n                /* \"#utility.yul\":6875:7183   */\n            tag_99:\n                /* \"#utility.yul\":6937:6941   */\n              0x00\n                /* \"#utility.yul\":7027:7045   */\n              0xffffffffffffffff\n                /* \"#utility.yul\":7019:7025   */\n              dup3\n                /* \"#utility.yul\":7016:7046   */\n              gt\n                /* \"#utility.yul\":7013:7069   */\n              iszero\n              tag_182\n              jumpi\n                /* \"#utility.yul\":7049:7067   */\n              tag_183\n              tag_96\n              jump\t// in\n            tag_183:\n                /* \"#utility.yul\":7013:7069   */\n            tag_182:\n                /* \"#utility.yul\":7087:7116   */\n              tag_184\n                /* \"#utility.yul\":7109:7115   */\n              dup3\n                /* \"#utility.yul\":7087:7116   */\n              tag_77\n              jump\t// in\n            tag_184:\n                /* \"#utility.yul\":7079:7116   */\n              swap1\n              pop\n                /* \"#utility.yul\":7171:7175   */\n              0x20\n                /* \"#utility.yul\":7165:7169   */\n              dup2\n                /* \"#utility.yul\":7161:7176   */\n              add\n                /* \"#utility.yul\":7153:7176   */\n              swap1\n              pop\n                /* \"#utility.yul\":6875:7183   */\n              swap2\n              swap1\n              pop\n              jump\t// out\n                /* \"#utility.yul\":7189:7343   */\n            tag_100:\n                /* \"#utility.yul\":7273:7279   */\n              dup3\n                /* \"#utility.yul\":7268:7271   */\n              dup2\n                /* \"#utility.yul\":7263:7266   */\n              dup4\n                /* \"#utility.yul\":7250:7280   */\n              calldatacopy\n                /* \"#utility.yul\":7335:7336   */\n              0x00\n                /* \"#utility.yul\":7326:7332   */\n              dup4\n                /* \"#utility.yul\":7321:7324   */\n              dup4\n                /* \"#utility.yul\":7317:7333   */\n              add\n                /* \"#utility.yul\":7310:7337   */\n              mstore\n                /* \"#utility.yul\":7189:7343   */\n              pop\n              pop\n              pop\n              jump\t// out\n                /* \"#utility.yul\":7349:7761   */\n            tag_101:\n                /* \"#utility.yul\":7427:7432   */\n              0x00\n                /* \"#utility.yul\":7452:7518   */\n              tag_187\n                /* \"#utility.yul\":7468:7517   */\n              tag_188\n                /* \"#utility.yul\":7510:7516   */\n              dup5\n                /* \"#utility.yul\":7468:7517   */\n              tag_99\n              jump\t// in\n            tag_188:\n                /* \"#utility.yul\":7452:7518   */\n              tag_98\n              jump\t// in\n            tag_187:\n                /* \"#utility.yul\":7443:7518   */\n              swap1\n              pop\n                /* \"#utility.yul\":7541:7547   */\n              dup3\n                /* \"#utility.yul\":7534:7539   */\n              dup2\n                /* \"#utility.yul\":7527:7548   */\n              mstore\n                /* \"#utility.yul\":7579:7583   */\n              0x20\n                /* \"#utility.yul\":7572:7577   */\n              dup2\n                /* \"#utility.yul\":7568:7584   */\n              add\n                /* \"#utility.yul\":7617:7620   */\n              dup5\n                /* \"#utility.yul\":7608:7614   */\n              dup5\n                /* \"#utility.yul\":7603:7606   */\n              dup5\n                /* \"#utility.yul\":7599:7615   */\n              add\n                /* \"#utility.yul\":7596:7621   */\n              gt\n                /* \"#utility.yul\":7593:7705   */\n              iszero\n              tag_189\n              jumpi\n                /* \"#utility.yul\":7624:7703   */\n              tag_190\n              tag_95\n              jump\t// in\n            tag_190:\n                /* \"#utility.yul\":7593:7705   */\n            tag_189:\n                /* \"#utility.yul\":7714:7755   */\n              tag_191\n                /* \"#utility.yul\":7748:7754   */\n              dup5\n                /* \"#utility.yul\":7743:7746   */\n              dup3\n                /* \"#utility.yul\":7738:7741   */\n              dup6\n                /* \"#utility.yul\":7714:7755   */\n              tag_100\n              jump\t// in\n            tag_191:\n                /* \"#utility.yul\":7433:7761   */\n              pop\n                /* \"#utility.yul\":7349:7761   */\n              swap4\n              swap3\n              pop\n              pop\n              pop\n              jump\t// out\n                /* \"#utility.yul\":7781:8121   */\n            tag_102:\n                /* \"#utility.yul\":7837:7842   */\n              0x00\n                /* \"#utility.yul\":7886:7889   */\n              dup3\n                /* \"#utility.yul\":7879:7883   */\n              0x1f\n                /* \"#utility.yul\":7871:7877   */\n              dup4\n                /* \"#utility.yul\":7867:7884   */\n              add\n                /* \"#utility.yul\":7863:7890   */\n              slt\n                /* \"#utility.yul\":7853:7975   */\n              tag_193\n              jumpi\n                /* \"#utility.yul\":7894:7973   */\n              tag_194\n              tag_94\n              jump\t// in\n            tag_194:\n                /* \"#utility.yul\":7853:7975   */\n            tag_193:\n                /* \"#utility.yul\":8011:8017   */\n              dup2\n                /* \"#utility.yul\":7998:8018   */\n              calldataload\n                /* \"#utility.yul\":8036:8115   */\n              tag_195\n                /* \"#utility.yul\":8111:8114   */\n              dup5\n                /* \"#utility.yul\":8103:8109   */\n              dup3\n                /* \"#utility.yul\":8096:8100   */\n              0x20\n                /* \"#utility.yul\":8088:8094   */\n              dup7\n                /* \"#utility.yul\":8084:8101   */\n              add\n                /* \"#utility.yul\":8036:8115   */\n              tag_101\n              jump\t// in\n            tag_195:\n                /* \"#utility.yul\":8027:8115   */\n              swap2\n              pop\n                /* \"#utility.yul\":7843:8121   */\n              pop\n                /* \"#utility.yul\":7781:8121   */\n              swap3\n              swap2\n              pop\n              pop\n              jump\t// out\n                /* \"#utility.yul\":8127:8636   */\n            tag_29:\n                /* \"#utility.yul\":8196:8202   */\n              0x00\n                /* \"#utility.yul\":8245:8247   */\n              0x20\n                /* \"#utility.yul\":8233:8242   */\n              dup3\n                /* \"#utility.yul\":8224:8231   */\n              dup5\n                /* \"#utility.yul\":8220:8243   */\n              sub\n                /* \"#utility.yul\":8216:8248   */\n              slt\n                /* \"#utility.yul\":8213:8332   */\n              iszero\n              tag_197\n              jumpi\n                /* \"#utility.yul\":8251:8330   */\n              tag_198\n              tag_88\n              jump\t// in\n            tag_198:\n                /* \"#utility.yul\":8213:8332   */\n            tag_197:\n                /* \"#utility.yul\":8399:8400   */\n              0x00\n                /* \"#utility.yul\":8388:8397   */\n              dup3\n                /* \"#utility.yul\":8384:8401   */\n              add\n                /* \"#utility.yul\":8371:8402   */\n              calldataload\n                /* \"#utility.yul\":8429:8447   */\n              0xffffffffffffffff\n                /* \"#utility.yul\":8421:8427   */\n              dup2\n                /* \"#utility.yul\":8418:8448   */\n              gt\n                /* \"#utility.yul\":8415:8532   */\n              iszero\n              tag_199\n              jumpi\n                /* \"#utility.yul\":8451:8530   */\n              tag_200\n              tag_89\n              jump\t// in\n            tag_200:\n                /* \"#utility.yul\":8415:8532   */\n            tag_199:\n                /* \"#utility.yul\":8556:8619   */\n              tag_201\n                /* \"#utility.yul\":8611:8618   */\n              dup5\n                /* \"#utility.yul\":8602:8608   */\n              dup3\n                /* \"#utility.yul\":8591:8600   */\n              dup6\n                /* \"#utility.yul\":8587:8609   */\n              add\n                /* \"#utility.yul\":8556:8619   */\n              tag_102\n              jump\t// in\n            tag_201:\n                /* \"#utility.yul\":8546:8619   */\n              swap2\n              pop\n                /* \"#utility.yul\":8342:8629   */\n              pop\n                /* \"#utility.yul\":8127:8636   */\n              swap3\n              swap2\n              pop\n              pop\n              jump\t// out\n                /* \"#utility.yul\":8642:8822   */\n            tag_103:\n                /* \"#utility.yul\":8690:8767   */\n              0x4e487b7100000000000000000000000000000000000000000000000000000000\n                /* \"#utility.yul\":8687:8688   */\n              0x00\n                /* \"#utility.yul\":8680:8768   */\n              mstore\n                /* \"#utility.yul\":8787:8791   */\n              0x22\n                /* \"#utility.yul\":8784:8785   */\n              0x04\n                /* \"#utility.yul\":8777:8792   */\n              mstore\n                /* \"#utility.yul\":8811:8815   */\n              0x24\n                /* \"#utility.yul\":8808:8809   */\n              0x00\n                /* \"#utility.yul\":8801:8816   */\n              revert\n                /* \"#utility.yul\":8828:9148   */\n            tag_33:\n                /* \"#utility.yul\":8872:8878   */\n              0x00\n                /* \"#utility.yul\":8909:8910   */\n              0x02\n                /* \"#utility.yul\":8903:8907   */\n              dup3\n                /* \"#utility.yul\":8899:8911   */\n              div\n                /* \"#utility.yul\":8889:8911   */\n              swap1\n              pop\n                /* \"#utility.yul\":8956:8957   */\n              0x01\n                /* \"#utility.yul\":8950:8954   */\n              dup3\n                /* \"#utility.yul\":8946:8958   */\n              and\n                /* \"#utility.yul\":8977:8995   */\n              dup1\n                /* \"#utility.yul\":8967:9048   */\n              tag_204\n              jumpi\n                /* \"#utility.yul\":9033:9037   */\n              0x7f\n                /* \"#utility.yul\":9025:9031   */\n              dup3\n                /* \"#utility.yul\":9021:9038   */\n              and\n                /* \"#utility.yul\":9011:9038   */\n              swap2\n              pop\n                /* \"#utility.yul\":8967:9048   */\n            tag_204:\n                /* \"#utility.yul\":9095:9097   */\n              0x20\n                /* \"#utility.yul\":9087:9093   */\n              dup3\n                /* \"#utility.yul\":9084:9098   */\n              lt\n                /* \"#utility.yul\":9064:9082   */\n              dup2\n                /* \"#utility.yul\":9061:9099   */\n              sub\n                /* \"#utility.yul\":9058:9142   */\n              tag_205\n              jumpi\n                /* \"#utility.yul\":9114:9132   */\n              tag_206\n              tag_103\n              jump\t// in\n            tag_206:\n                /* \"#utility.yul\":9058:9142   */\n            tag_205:\n                /* \"#utility.yul\":8879:9148   */\n              pop\n                /* \"#utility.yul\":8828:9148   */\n              swap2\n              swap1\n              pop\n              jump\t// out\n                /* \"#utility.yul\":9154:9334   */\n            tag_104:\n                /* \"#utility.yul\":9202:9279   */\n              0x4e487b7100000000000000000000000000000000000000000000000000000000\n                /* \"#utility.yul\":9199:9200   */\n              0x00\n                /* \"#utility.yul\":9192:9280   */\n              mstore\n                /* \"#utility.yul\":9299:9303   */\n              0x11\n                /* \"#utility.yul\":9296:9297   */\n              0x04\n                /* \"#utility.yul\":9289:9304   */\n              mstore\n                /* \"#utility.yul\":9323:9327   */\n              0x24\n                /* \"#utility.yul\":9320:9321   */\n              0x00\n                /* \"#utility.yul\":9313:9328   */\n              revert\n                /* \"#utility.yul\":9340:9573   */\n            tag_50:\n                /* \"#utility.yul\":9379:9382   */\n              0x00\n                /* \"#utility.yul\":9402:9426   */\n              tag_209\n                /* \"#utility.yul\":9420:9425   */\n              dup3\n                /* \"#utility.yul\":9402:9426   */\n              tag_82\n              jump\t// in\n            tag_209:\n                /* \"#utility.yul\":9393:9426   */\n              swap2\n              pop\n                /* \"#utility.yul\":9448:9514   */\n              0xffffffffffffffffffffffffffffffffffffffffffffffffffffffffffffffff\n                /* \"#utility.yul\":9441:9446   */\n              dup3\n                /* \"#utility.yul\":9438:9515   */\n              sub\n                /* \"#utility.yul\":9435:9538   */\n              tag_210\n              jumpi\n                /* \"#utility.yul\":9518:9536   */\n              tag_211\n              tag_104\n              jump\t// in\n            tag_211:\n                /* \"#utility.yul\":9435:9538   */\n            tag_210:\n                /* \"#utility.yul\":9565:9566   */\n              0x01\n                /* \"#utility.yul\":9558:9563   */\n              dup3\n                /* \"#utility.yul\":9554:9567   */\n              add\n                /* \"#utility.yul\":9547:9567   */\n              swap1\n              pop\n                /* \"#utility.yul\":9340:9573   */\n              swap2\n              swap1\n              pop\n              jump\t// out\n\n            auxdata: 0xa264697066735822122096ed6d707863eb60529ee6821a7db272c307ff9b85f4a6423802c3af76f7b5b064736f6c634300080d0033\n        }\n    }\n\n    auxdata: 0xa2646970667358221220af848695c78e762a0d0d6aa1e2f1026c05a25d6336e368c3484fb9930044e88464736f6c634300080d0033\n}\n",
        "bytecode": {
            "linkReferences": {},
            "object": "6080604052662386f26fc1000060025534801561001b57600080fd5b5033600160006101000a81548173ffffffffffffffffffffffffffffffffffffffff021916908373ffffffffffffffffffffffffffffffffffffffff16021790555061130d8061006c6000396000f3fe60806040526004361061004a5760003560e01c80630bdd01c31461004f57806329abdd9914610078578063706793dd146100825780639381230e146100ad578063df7b3dbb146100ea575b600080fd5b34801561005b57600080fd5b50610076600480360381019061007191906103ee565b610115565b005b610080610179565b005b34801561008e57600080fd5b506100976102b3565b6040516100a4919061045c565b60405180910390f35b3480156100b957600080fd5b506100d460048036038101906100cf91906103ee565b6102d9565b6040516100e19190610498565b60405180910390f35b3480156100f657600080fd5b506100ff610318565b60405161010c9190610571565b60405180910390f35b600160009054906101000a900473ffffffffffffffffffffffffffffffffffffffff1673ffffffffffffffffffffffffffffffffffffffff163373ffffffffffffffffffffffffffffffffffffffff161461016f57600080fd5b8060028190555050565b60025434101561018857600080fd5b600033600160009054906101000a900473ffffffffffffffffffffffffffffffffffffffff166040516101ba906103a6565b6101c5929190610593565b604051809103906000f0801580156101e1573d6000803e3d6000fd5b509050600160009054906101000a900473ffffffffffffffffffffffffffffffffffffffff1673ffffffffffffffffffffffffffffffffffffffff166108fc349081150290604051600060405180830381858888f1935050505015801561024c573d6000803e3d6000fd5b506000819080600181540180825580915050600190039060005260206000200160009091909190916101000a81548173ffffffffffffffffffffffffffffffffffffffff021916908373ffffffffffffffffffffffffffffffffffffffff16021790555050565b600160009054906101000a900473ffffffffffffffffffffffffffffffffffffffff1681565b600081815481106102e957600080fd5b906000526020600020016000915054906101000a900473ffffffffffffffffffffffffffffffffffffffff1681565b6060600080548060200260200160405190810160405280929190818152602001828054801561039c57602002820191906000526020600020905b8160009054906101000a900473ffffffffffffffffffffffffffffffffffffffff1673ffffffffffffffffffffffffffffffffffffffff1681526020019060010190808311610352575b5050505050905090565b610d1b806105bd83390190565b600080fd5b6000819050919050565b6103cb816103b8565b81146103d657600080fd5b50565b6000813590506103e8816103c2565b92915050565b600060208284031215610404576104036103b3565b5b6000610412848285016103d9565b91505092915050565b600073ffffffffffffffffffffffffffffffffffffffff82169050919050565b60006104468261041b565b9050919050565b6104568161043b565b82525050565b6000602082019050610471600083018461044d565b92915050565b60006104828261041b565b9050919050565b61049281610477565b82525050565b60006020820190506104ad6000830184610489565b92915050565b600081519050919050565b600082825260208201905092915050565b6000819050602082019050919050565b6104e881610477565b82525050565b60006104fa83836104df565b60208301905092915050565b6000602082019050919050565b600061051e826104b3565b61052881856104be565b9350610533836104cf565b8060005b8381101561056457815161054b88826104ee565b975061055683610506565b925050600181019050610537565b5085935050505092915050565b6000602082019050818103600083015261058b8184610513565b905092915050565b60006040820190506105a86000830185610489565b6105b5602083018461044d565b939250505056fe6080604052600060045560006008556608e1bc9bf04000600a553480156200002657600080fd5b5060405162000d1b38038062000d1b83398181016040528101906200004c9190620001a6565b816000806101000a81548173ffffffffffffffffffffffffffffffffffffffff021916908373ffffffffffffffffffffffffffffffffffffffff160217905550600960009054906101000a900473ffffffffffffffffffffffffffffffffffffffff16600960006101000a81548173ffffffffffffffffffffffffffffffffffffffff021916908373ffffffffffffffffffffffffffffffffffffffff1602179055505050620001ed565b600080fd5b600073ffffffffffffffffffffffffffffffffffffffff82169050919050565b60006200012982620000fc565b9050919050565b6200013b816200011c565b81146200014757600080fd5b50565b6000815190506200015b8162000130565b92915050565b60006200016e82620000fc565b9050919050565b620001808162000161565b81146200018c57600080fd5b50565b600081519050620001a08162000175565b92915050565b60008060408385031215620001c057620001bf620000f7565b5b6000620001d0858286016200014a565b9250506020620001e3858286016200018f565b9150509250929050565b610b1e80620001fd6000396000f3fe60806040526004361061004a5760003560e01c80635690314c1461004f5780638da5cb5b1461007d578063910c6576146100a8578063a03fa7e3146100c4578063d600747c146100ed575b600080fd5b34801561005b57600080fd5b50610064610116565b6040516100749493929190610745565b60405180910390f35b34801561008957600080fd5b50610092610282565b60405161009f919061079f565b60405180910390f35b6100c260048036038101906100bd91906107fa565b6102a6565b005b3480156100d057600080fd5b506100eb60048036038101906100e69190610866565b6103f3565b005b3480156100f957600080fd5b50610114600480360381019061010f91906109c8565b61048e565b005b6000606080606060008054906101000a900473ffffffffffffffffffffffffffffffffffffffff1660056002600382805461015090610a40565b80601f016020809104026020016040519081016040528092919081815260200182805461017c90610a40565b80156101c95780601f1061019e576101008083540402835291602001916101c9565b820191906000526020600020905b8154815290600101906020018083116101ac57829003601f168201915b505050505092508180548060200260200160405190810160405280929190818152602001828054801561021b57602002820191906000526020600020905b815481526020019060010190808311610207575b505050505091508080548060200260200160405190810160405280929190818152602001828054801561026d57602002820191906000526020600020905b815481526020019060010190808311610259575b50505050509050935093509350935090919293565b60008054906101000a900473ffffffffffffffffffffffffffffffffffffffff1681565b3373ffffffffffffffffffffffffffffffffffffffff1660008054906101000a900473ffffffffffffffffffffffffffffffffffffffff1673ffffffffffffffffffffffffffffffffffffffff16146102fe57600080fd5b600a5434101561030d57600080fd5b60006008541461031c57600080fd5b600960009054906101000a900473ffffffffffffffffffffffffffffffffffffffff1673ffffffffffffffffffffffffffffffffffffffff166108fc349081150290604051600060405180830381858888f19350505050158015610384573d6000803e3d6000fd5b506004600081548092919061039890610aa0565b9190505550600282908060018154018082558091505060019003906000526020600020016000909190919091505560038190806001815401808255809150506001900390600052602060002001600090919091909150555050565b3373ffffffffffffffffffffffffffffffffffffffff1660008054906101000a900473ffffffffffffffffffffffffffffffffffffffff1673ffffffffffffffffffffffffffffffffffffffff161461044b57600080fd5b806000806101000a81548173ffffffffffffffffffffffffffffffffffffffff021916908373ffffffffffffffffffffffffffffffffffffffff16021790555050565b3373ffffffffffffffffffffffffffffffffffffffff1660008054906101000a900473ffffffffffffffffffffffffffffffffffffffff1673ffffffffffffffffffffffffffffffffffffffff16146104e657600080fd5b80600590805190602001906104fc929190610500565b5050565b82805461050c90610a40565b90600052602060002090601f01602090048101928261052e5760008555610575565b82601f1061054757805160ff1916838001178555610575565b82800160010185558215610575579182015b82811115610574578251825591602001919060010190610559565b5b5090506105829190610586565b5090565b5b8082111561059f576000816000905550600101610587565b5090565b600073ffffffffffffffffffffffffffffffffffffffff82169050919050565b60006105ce826105a3565b9050919050565b6105de816105c3565b82525050565b600081519050919050565b600082825260208201905092915050565b60005b8381101561061e578082015181840152602081019050610603565b8381111561062d576000848401525b50505050565b6000601f19601f8301169050919050565b600061064f826105e4565b61065981856105ef565b9350610669818560208601610600565b61067281610633565b840191505092915050565b600081519050919050565b600082825260208201905092915050565b6000819050602082019050919050565b6000819050919050565b6106bc816106a9565b82525050565b60006106ce83836106b3565b60208301905092915050565b6000602082019050919050565b60006106f28261067d565b6106fc8185610688565b935061070783610699565b8060005b8381101561073857815161071f88826106c2565b975061072a836106da565b92505060018101905061070b565b5085935050505092915050565b600060808201905061075a60008301876105d5565b818103602083015261076c8186610644565b9050818103604083015261078081856106e7565b9050818103606083015261079481846106e7565b905095945050505050565b60006020820190506107b460008301846105d5565b92915050565b6000604051905090565b600080fd5b600080fd5b6107d7816106a9565b81146107e257600080fd5b50565b6000813590506107f4816107ce565b92915050565b60008060408385031215610811576108106107c4565b5b600061081f858286016107e5565b9250506020610830858286016107e5565b9150509250929050565b610843816105c3565b811461084e57600080fd5b50565b6000813590506108608161083a565b92915050565b60006020828403121561087c5761087b6107c4565b5b600061088a84828501610851565b91505092915050565b600080fd5b600080fd5b7f4e487b7100000000000000000000000000000000000000000000000000000000600052604160045260246000fd5b6108d582610633565b810181811067ffffffffffffffff821117156108f4576108f361089d565b5b80604052505050565b60006109076107ba565b905061091382826108cc565b919050565b600067ffffffffffffffff8211156109335761093261089d565b5b61093c82610633565b9050602081019050919050565b82818337600083830152505050565b600061096b61096684610918565b6108fd565b90508281526020810184848401111561098757610986610898565b5b610992848285610949565b509392505050565b600082601f8301126109af576109ae610893565b5b81356109bf848260208601610958565b91505092915050565b6000602082840312156109de576109dd6107c4565b5b600082013567ffffffffffffffff8111156109fc576109fb6107c9565b5b610a088482850161099a565b91505092915050565b7f4e487b7100000000000000000000000000000000000000000000000000000000600052602260045260246000fd5b60006002820490506001821680610a5857607f821691505b602082108103610a6b57610a6a610a11565b5b50919050565b7f4e487b7100000000000000000000000000000000000000000000000000000000600052601160045260246000fd5b6000610aab826106a9565b91507fffffffffffffffffffffffffffffffffffffffffffffffffffffffffffffffff8203610add57610adc610a71565b5b60018201905091905056fea264697066735822122096ed6d707863eb60529ee6821a7db272c307ff9b85f4a6423802c3af76f7b5b064736f6c634300080d0033a2646970667358221220af848695c78e762a0d0d6aa1e2f1026c05a25d6336e368c3484fb9930044e88464736f6c634300080d0033",
            "opcodes": "PUSH1 0x80 PUSH1 0x40 MSTORE PUSH7 0x2386F26FC10000 PUSH1 0x2 SSTORE CALLVALUE DUP1 ISZERO PUSH2 0x1B JUMPI PUSH1 0x0 DUP1 REVERT JUMPDEST POP CALLER PUSH1 0x1 PUSH1 0x0 PUSH2 0x100 EXP DUP2 SLOAD DUP2 PUSH20 0xFFFFFFFFFFFFFFFFFFFFFFFFFFFFFFFFFFFFFFFF MUL NOT AND SWAP1 DUP4 PUSH20 0xFFFFFFFFFFFFFFFFFFFFFFFFFFFFFFFFFFFFFFFF AND MUL OR SWAP1 SSTORE POP PUSH2 0x130D DUP1 PUSH2 0x6C PUSH1 0x0 CODECOPY PUSH1 0x0 RETURN INVALID PUSH1 0x80 PUSH1 0x40 MSTORE PUSH1 0x4 CALLDATASIZE LT PUSH2 0x4A JUMPI PUSH1 0x0 CALLDATALOAD PUSH1 0xE0 SHR DUP1 PUSH4 0xBDD01C3 EQ PUSH2 0x4F JUMPI DUP1 PUSH4 0x29ABDD99 EQ PUSH2 0x78 JUMPI DUP1 PUSH4 0x706793DD EQ PUSH2 0x82 JUMPI DUP1 PUSH4 0x9381230E EQ PUSH2 0xAD JUMPI DUP1 PUSH4 0xDF7B3DBB EQ PUSH2 0xEA JUMPI JUMPDEST PUSH1 0x0 DUP1 REVERT JUMPDEST CALLVALUE DUP1 ISZERO PUSH2 0x5B JUMPI PUSH1 0x0 DUP1 REVERT JUMPDEST POP PUSH2 0x76 PUSH1 0x4 DUP1 CALLDATASIZE SUB DUP2 ADD SWAP1 PUSH2 0x71 SWAP2 SWAP1 PUSH2 0x3EE JUMP JUMPDEST PUSH2 0x115 JUMP JUMPDEST STOP JUMPDEST PUSH2 0x80 PUSH2 0x179 JUMP JUMPDEST STOP JUMPDEST CALLVALUE DUP1 ISZERO PUSH2 0x8E JUMPI PUSH1 0x0 DUP1 REVERT JUMPDEST POP PUSH2 0x97 PUSH2 0x2B3 JUMP JUMPDEST PUSH1 0x40 MLOAD PUSH2 0xA4 SWAP2 SWAP1 PUSH2 0x45C JUMP JUMPDEST PUSH1 0x40 MLOAD DUP1 SWAP2 SUB SWAP1 RETURN JUMPDEST CALLVALUE DUP1 ISZERO PUSH2 0xB9 JUMPI PUSH1 0x0 DUP1 REVERT JUMPDEST POP PUSH2 0xD4 PUSH1 0x4 DUP1 CALLDATASIZE SUB DUP2 ADD SWAP1 PUSH2 0xCF SWAP2 SWAP1 PUSH2 0x3EE JUMP JUMPDEST PUSH2 0x2D9 JUMP JUMPDEST PUSH1 0x40 MLOAD PUSH2 0xE1 SWAP2 SWAP1 PUSH2 0x498 JUMP JUMPDEST PUSH1 0x40 MLOAD DUP1 SWAP2 SUB SWAP1 RETURN JUMPDEST CALLVALUE DUP1 ISZERO PUSH2 0xF6 JUMPI PUSH1 0x0 DUP1 REVERT JUMPDEST POP PUSH2 0xFF PUSH2 0x318 JUMP JUMPDEST PUSH1 0x40 MLOAD PUSH2 0x10C SWAP2 SWAP1 PUSH2 0x571 JUMP JUMPDEST PUSH1 0x40 MLOAD DUP1 SWAP2 SUB SWAP1 RETURN JUMPDEST PUSH1 0x1 PUSH1 0x0 SWAP1 SLOAD SWAP1 PUSH2 0x100 EXP SWAP1 DIV PUSH20 0xFFFFFFFFFFFFFFFFFFFFFFFFFFFFFFFFFFFFFFFF AND PUSH20 0xFFFFFFFFFFFFFFFFFFFFFFFFFFFFFFFFFFFFFFFF AND CALLER PUSH20 0xFFFFFFFFFFFFFFFFFFFFFFFFFFFFFFFFFFFFFFFF AND EQ PUSH2 0x16F JUMPI PUSH1 0x0 DUP1 REVERT JUMPDEST DUP1 PUSH1 0x2 DUP2 SWAP1 SSTORE POP POP JUMP JUMPDEST PUSH1 0x2 SLOAD CALLVALUE LT ISZERO PUSH2 0x188 JUMPI PUSH1 0x0 DUP1 REVERT JUMPDEST PUSH1 0x0 CALLER PUSH1 0x1 PUSH1 0x0 SWAP1 SLOAD SWAP1 PUSH2 0x100 EXP SWAP1 DIV PUSH20 0xFFFFFFFFFFFFFFFFFFFFFFFFFFFFFFFFFFFFFFFF AND PUSH1 0x40 MLOAD PUSH2 0x1BA SWAP1 PUSH2 0x3A6 JUMP JUMPDEST PUSH2 0x1C5 SWAP3 SWAP2 SWAP1 PUSH2 0x593 JUMP JUMPDEST PUSH1 0x40 MLOAD DUP1 SWAP2 SUB SWAP1 PUSH1 0x0 CREATE DUP1 ISZERO DUP1 ISZERO PUSH2 0x1E1 JUMPI RETURNDATASIZE PUSH1 0x0 DUP1 RETURNDATACOPY RETURNDATASIZE PUSH1 0x0 REVERT JUMPDEST POP SWAP1 POP PUSH1 0x1 PUSH1 0x0 SWAP1 SLOAD SWAP1 PUSH2 0x100 EXP SWAP1 DIV PUSH20 0xFFFFFFFFFFFFFFFFFFFFFFFFFFFFFFFFFFFFFFFF AND PUSH20 0xFFFFFFFFFFFFFFFFFFFFFFFFFFFFFFFFFFFFFFFF AND PUSH2 0x8FC CALLVALUE SWAP1 DUP2 ISZERO MUL SWAP1 PUSH1 0x40 MLOAD PUSH1 0x0 PUSH1 0x40 MLOAD DUP1 DUP4 SUB DUP2 DUP6 DUP9 DUP9 CALL SWAP4 POP POP POP POP ISZERO DUP1 ISZERO PUSH2 0x24C JUMPI RETURNDATASIZE PUSH1 0x0 DUP1 RETURNDATACOPY RETURNDATASIZE PUSH1 0x0 REVERT JUMPDEST POP PUSH1 0x0 DUP2 SWAP1 DUP1 PUSH1 0x1 DUP2 SLOAD ADD DUP1 DUP3 SSTORE DUP1 SWAP2 POP POP PUSH1 0x1 SWAP1 SUB SWAP1 PUSH1 0x0 MSTORE PUSH1 0x20 PUSH1 0x0 KECCAK256 ADD PUSH1 0x0 SWAP1 SWAP2 SWAP1 SWAP2 SWAP1 SWAP2 PUSH2 0x100 EXP DUP2 SLOAD DUP2 PUSH20 0xFFFFFFFFFFFFFFFFFFFFFFFFFFFFFFFFFFFFFFFF MUL NOT AND SWAP1 DUP4 PUSH20 0xFFFFFFFFFFFFFFFFFFFFFFFFFFFFFFFFFFFFFFFF AND MUL OR SWAP1 SSTORE POP POP JUMP JUMPDEST PUSH1 0x1 PUSH1 0x0 SWAP1 SLOAD SWAP1 PUSH2 0x100 EXP SWAP1 DIV PUSH20 0xFFFFFFFFFFFFFFFFFFFFFFFFFFFFFFFFFFFFFFFF AND DUP2 JUMP JUMPDEST PUSH1 0x0 DUP2 DUP2 SLOAD DUP2 LT PUSH2 0x2E9 JUMPI PUSH1 0x0 DUP1 REVERT JUMPDEST SWAP1 PUSH1 0x0 MSTORE PUSH1 0x20 PUSH1 0x0 KECCAK256 ADD PUSH1 0x0 SWAP2 POP SLOAD SWAP1 PUSH2 0x100 EXP SWAP1 DIV PUSH20 0xFFFFFFFFFFFFFFFFFFFFFFFFFFFFFFFFFFFFFFFF AND DUP2 JUMP JUMPDEST PUSH1 0x60 PUSH1 0x0 DUP1 SLOAD DUP1 PUSH1 0x20 MUL PUSH1 0x20 ADD PUSH1 0x40 MLOAD SWAP1 DUP2 ADD PUSH1 0x40 MSTORE DUP1 SWAP3 SWAP2 SWAP1 DUP2 DUP2 MSTORE PUSH1 0x20 ADD DUP3 DUP1 SLOAD DUP1 ISZERO PUSH2 0x39C JUMPI PUSH1 0x20 MUL DUP3 ADD SWAP2 SWAP1 PUSH1 0x0 MSTORE PUSH1 0x20 PUSH1 0x0 KECCAK256 SWAP1 JUMPDEST DUP2 PUSH1 0x0 SWAP1 SLOAD SWAP1 PUSH2 0x100 EXP SWAP1 DIV PUSH20 0xFFFFFFFFFFFFFFFFFFFFFFFFFFFFFFFFFFFFFFFF AND PUSH20 0xFFFFFFFFFFFFFFFFFFFFFFFFFFFFFFFFFFFFFFFF AND DUP2 MSTORE PUSH1 0x20 ADD SWAP1 PUSH1 0x1 ADD SWAP1 DUP1 DUP4 GT PUSH2 0x352 JUMPI JUMPDEST POP POP POP POP POP SWAP1 POP SWAP1 JUMP JUMPDEST PUSH2 0xD1B DUP1 PUSH2 0x5BD DUP4 CODECOPY ADD SWAP1 JUMP JUMPDEST PUSH1 0x0 DUP1 REVERT JUMPDEST PUSH1 0x0 DUP2 SWAP1 POP SWAP2 SWAP1 POP JUMP JUMPDEST PUSH2 0x3CB DUP2 PUSH2 0x3B8 JUMP JUMPDEST DUP2 EQ PUSH2 0x3D6 JUMPI PUSH1 0x0 DUP1 REVERT JUMPDEST POP JUMP JUMPDEST PUSH1 0x0 DUP2 CALLDATALOAD SWAP1 POP PUSH2 0x3E8 DUP2 PUSH2 0x3C2 JUMP JUMPDEST SWAP3 SWAP2 POP POP JUMP JUMPDEST PUSH1 0x0 PUSH1 0x20 DUP3 DUP5 SUB SLT ISZERO PUSH2 0x404 JUMPI PUSH2 0x403 PUSH2 0x3B3 JUMP JUMPDEST JUMPDEST PUSH1 0x0 PUSH2 0x412 DUP5 DUP3 DUP6 ADD PUSH2 0x3D9 JUMP JUMPDEST SWAP2 POP POP SWAP3 SWAP2 POP POP JUMP JUMPDEST PUSH1 0x0 PUSH20 0xFFFFFFFFFFFFFFFFFFFFFFFFFFFFFFFFFFFFFFFF DUP3 AND SWAP1 POP SWAP2 SWAP1 POP JUMP JUMPDEST PUSH1 0x0 PUSH2 0x446 DUP3 PUSH2 0x41B JUMP JUMPDEST SWAP1 POP SWAP2 SWAP1 POP JUMP JUMPDEST PUSH2 0x456 DUP2 PUSH2 0x43B JUMP JUMPDEST DUP3 MSTORE POP POP JUMP JUMPDEST PUSH1 0x0 PUSH1 0x20 DUP3 ADD SWAP1 POP PUSH2 0x471 PUSH1 0x0 DUP4 ADD DUP5 PUSH2 0x44D JUMP JUMPDEST SWAP3 SWAP2 POP POP JUMP JUMPDEST PUSH1 0x0 PUSH2 0x482 DUP3 PUSH2 0x41B JUMP JUMPDEST SWAP1 POP SWAP2 SWAP1 POP JUMP JUMPDEST PUSH2 0x492 DUP2 PUSH2 0x477 JUMP JUMPDEST DUP3 MSTORE POP POP JUMP JUMPDEST PUSH1 0x0 PUSH1 0x20 DUP3 ADD SWAP1 POP PUSH2 0x4AD PUSH1 0x0 DUP4 ADD DUP5 PUSH2 0x489 JUMP JUMPDEST SWAP3 SWAP2 POP POP JUMP JUMPDEST PUSH1 0x0 DUP2 MLOAD SWAP1 POP SWAP2 SWAP1 POP JUMP JUMPDEST PUSH1 0x0 DUP3 DUP3 MSTORE PUSH1 0x20 DUP3 ADD SWAP1 POP SWAP3 SWAP2 POP POP JUMP JUMPDEST PUSH1 0x0 DUP2 SWAP1 POP PUSH1 0x20 DUP3 ADD SWAP1 POP SWAP2 SWAP1 POP JUMP JUMPDEST PUSH2 0x4E8 DUP2 PUSH2 0x477 JUMP JUMPDEST DUP3 MSTORE POP POP JUMP JUMPDEST PUSH1 0x0 PUSH2 0x4FA DUP4 DUP4 PUSH2 0x4DF JUMP JUMPDEST PUSH1 0x20 DUP4 ADD SWAP1 POP SWAP3 SWAP2 POP POP JUMP JUMPDEST PUSH1 0x0 PUSH1 0x20 DUP3 ADD SWAP1 POP SWAP2 SWAP1 POP JUMP JUMPDEST PUSH1 0x0 PUSH2 0x51E DUP3 PUSH2 0x4B3 JUMP JUMPDEST PUSH2 0x528 DUP2 DUP6 PUSH2 0x4BE JUMP JUMPDEST SWAP4 POP PUSH2 0x533 DUP4 PUSH2 0x4CF JUMP JUMPDEST DUP1 PUSH1 0x0 JUMPDEST DUP4 DUP2 LT ISZERO PUSH2 0x564 JUMPI DUP2 MLOAD PUSH2 0x54B DUP9 DUP3 PUSH2 0x4EE JUMP JUMPDEST SWAP8 POP PUSH2 0x556 DUP4 PUSH2 0x506 JUMP JUMPDEST SWAP3 POP POP PUSH1 0x1 DUP2 ADD SWAP1 POP PUSH2 0x537 JUMP JUMPDEST POP DUP6 SWAP4 POP POP POP POP SWAP3 SWAP2 POP POP JUMP JUMPDEST PUSH1 0x0 PUSH1 0x20 DUP3 ADD SWAP1 POP DUP2 DUP2 SUB PUSH1 0x0 DUP4 ADD MSTORE PUSH2 0x58B DUP2 DUP5 PUSH2 0x513 JUMP JUMPDEST SWAP1 POP SWAP3 SWAP2 POP POP JUMP JUMPDEST PUSH1 0x0 PUSH1 0x40 DUP3 ADD SWAP1 POP PUSH2 0x5A8 PUSH1 0x0 DUP4 ADD DUP6 PUSH2 0x489 JUMP JUMPDEST PUSH2 0x5B5 PUSH1 0x20 DUP4 ADD DUP5 PUSH2 0x44D JUMP JUMPDEST SWAP4 SWAP3 POP POP POP JUMP INVALID PUSH1 0x80 PUSH1 0x40 MSTORE PUSH1 0x0 PUSH1 0x4 SSTORE PUSH1 0x0 PUSH1 0x8 SSTORE PUSH7 0x8E1BC9BF04000 PUSH1 0xA SSTORE CALLVALUE DUP1 ISZERO PUSH3 0x26 JUMPI PUSH1 0x0 DUP1 REVERT JUMPDEST POP PUSH1 0x40 MLOAD PUSH3 0xD1B CODESIZE SUB DUP1 PUSH3 0xD1B DUP4 CODECOPY DUP2 DUP2 ADD PUSH1 0x40 MSTORE DUP2 ADD SWAP1 PUSH3 0x4C SWAP2 SWAP1 PUSH3 0x1A6 JUMP JUMPDEST DUP2 PUSH1 0x0 DUP1 PUSH2 0x100 EXP DUP2 SLOAD DUP2 PUSH20 0xFFFFFFFFFFFFFFFFFFFFFFFFFFFFFFFFFFFFFFFF MUL NOT AND SWAP1 DUP4 PUSH20 0xFFFFFFFFFFFFFFFFFFFFFFFFFFFFFFFFFFFFFFFF AND MUL OR SWAP1 SSTORE POP PUSH1 0x9 PUSH1 0x0 SWAP1 SLOAD SWAP1 PUSH2 0x100 EXP SWAP1 DIV PUSH20 0xFFFFFFFFFFFFFFFFFFFFFFFFFFFFFFFFFFFFFFFF AND PUSH1 0x9 PUSH1 0x0 PUSH2 0x100 EXP DUP2 SLOAD DUP2 PUSH20 0xFFFFFFFFFFFFFFFFFFFFFFFFFFFFFFFFFFFFFFFF MUL NOT AND SWAP1 DUP4 PUSH20 0xFFFFFFFFFFFFFFFFFFFFFFFFFFFFFFFFFFFFFFFF AND MUL OR SWAP1 SSTORE POP POP POP PUSH3 0x1ED JUMP JUMPDEST PUSH1 0x0 DUP1 REVERT JUMPDEST PUSH1 0x0 PUSH20 0xFFFFFFFFFFFFFFFFFFFFFFFFFFFFFFFFFFFFFFFF DUP3 AND SWAP1 POP SWAP2 SWAP1 POP JUMP JUMPDEST PUSH1 0x0 PUSH3 0x129 DUP3 PUSH3 0xFC JUMP JUMPDEST SWAP1 POP SWAP2 SWAP1 POP JUMP JUMPDEST PUSH3 0x13B DUP2 PUSH3 0x11C JUMP JUMPDEST DUP2 EQ PUSH3 0x147 JUMPI PUSH1 0x0 DUP1 REVERT JUMPDEST POP JUMP JUMPDEST PUSH1 0x0 DUP2 MLOAD SWAP1 POP PUSH3 0x15B DUP2 PUSH3 0x130 JUMP JUMPDEST SWAP3 SWAP2 POP POP JUMP JUMPDEST PUSH1 0x0 PUSH3 0x16E DUP3 PUSH3 0xFC JUMP JUMPDEST SWAP1 POP SWAP2 SWAP1 POP JUMP JUMPDEST PUSH3 0x180 DUP2 PUSH3 0x161 JUMP JUMPDEST DUP2 EQ PUSH3 0x18C JUMPI PUSH1 0x0 DUP1 REVERT JUMPDEST POP JUMP JUMPDEST PUSH1 0x0 DUP2 MLOAD SWAP1 POP PUSH3 0x1A0 DUP2 PUSH3 0x175 JUMP JUMPDEST SWAP3 SWAP2 POP POP JUMP JUMPDEST PUSH1 0x0 DUP1 PUSH1 0x40 DUP4 DUP6 SUB SLT ISZERO PUSH3 0x1C0 JUMPI PUSH3 0x1BF PUSH3 0xF7 JUMP JUMPDEST JUMPDEST PUSH1 0x0 PUSH3 0x1D0 DUP6 DUP3 DUP7 ADD PUSH3 0x14A JUMP JUMPDEST SWAP3 POP POP PUSH1 0x20 PUSH3 0x1E3 DUP6 DUP3 DUP7 ADD PUSH3 0x18F JUMP JUMPDEST SWAP2 POP POP SWAP3 POP SWAP3 SWAP1 POP JUMP JUMPDEST PUSH2 0xB1E DUP1 PUSH3 0x1FD PUSH1 0x0 CODECOPY PUSH1 0x0 RETURN INVALID PUSH1 0x80 PUSH1 0x40 MSTORE PUSH1 0x4 CALLDATASIZE LT PUSH2 0x4A JUMPI PUSH1 0x0 CALLDATALOAD PUSH1 0xE0 SHR DUP1 PUSH4 0x5690314C EQ PUSH2 0x4F JUMPI DUP1 PUSH4 0x8DA5CB5B EQ PUSH2 0x7D JUMPI DUP1 PUSH4 0x910C6576 EQ PUSH2 0xA8 JUMPI DUP1 PUSH4 0xA03FA7E3 EQ PUSH2 0xC4 JUMPI DUP1 PUSH4 0xD600747C EQ PUSH2 0xED JUMPI JUMPDEST PUSH1 0x0 DUP1 REVERT JUMPDEST CALLVALUE DUP1 ISZERO PUSH2 0x5B JUMPI PUSH1 0x0 DUP1 REVERT JUMPDEST POP PUSH2 0x64 PUSH2 0x116 JUMP JUMPDEST PUSH1 0x40 MLOAD PUSH2 0x74 SWAP5 SWAP4 SWAP3 SWAP2 SWAP1 PUSH2 0x745 JUMP JUMPDEST PUSH1 0x40 MLOAD DUP1 SWAP2 SUB SWAP1 RETURN JUMPDEST CALLVALUE DUP1 ISZERO PUSH2 0x89 JUMPI PUSH1 0x0 DUP1 REVERT JUMPDEST POP PUSH2 0x92 PUSH2 0x282 JUMP JUMPDEST PUSH1 0x40 MLOAD PUSH2 0x9F SWAP2 SWAP1 PUSH2 0x79F JUMP JUMPDEST PUSH1 0x40 MLOAD DUP1 SWAP2 SUB SWAP1 RETURN JUMPDEST PUSH2 0xC2 PUSH1 0x4 DUP1 CALLDATASIZE SUB DUP2 ADD SWAP1 PUSH2 0xBD SWAP2 SWAP1 PUSH2 0x7FA JUMP JUMPDEST PUSH2 0x2A6 JUMP JUMPDEST STOP JUMPDEST CALLVALUE DUP1 ISZERO PUSH2 0xD0 JUMPI PUSH1 0x0 DUP1 REVERT JUMPDEST POP PUSH2 0xEB PUSH1 0x4 DUP1 CALLDATASIZE SUB DUP2 ADD SWAP1 PUSH2 0xE6 SWAP2 SWAP1 PUSH2 0x866 JUMP JUMPDEST PUSH2 0x3F3 JUMP JUMPDEST STOP JUMPDEST CALLVALUE DUP1 ISZERO PUSH2 0xF9 JUMPI PUSH1 0x0 DUP1 REVERT JUMPDEST POP PUSH2 0x114 PUSH1 0x4 DUP1 CALLDATASIZE SUB DUP2 ADD SWAP1 PUSH2 0x10F SWAP2 SWAP1 PUSH2 0x9C8 JUMP JUMPDEST PUSH2 0x48E JUMP JUMPDEST STOP JUMPDEST PUSH1 0x0 PUSH1 0x60 DUP1 PUSH1 0x60 PUSH1 0x0 DUP1 SLOAD SWAP1 PUSH2 0x100 EXP SWAP1 DIV PUSH20 0xFFFFFFFFFFFFFFFFFFFFFFFFFFFFFFFFFFFFFFFF AND PUSH1 0x5 PUSH1 0x2 PUSH1 0x3 DUP3 DUP1 SLOAD PUSH2 0x150 SWAP1 PUSH2 0xA40 JUMP JUMPDEST DUP1 PUSH1 0x1F ADD PUSH1 0x20 DUP1 SWAP2 DIV MUL PUSH1 0x20 ADD PUSH1 0x40 MLOAD SWAP1 DUP2 ADD PUSH1 0x40 MSTORE DUP1 SWAP3 SWAP2 SWAP1 DUP2 DUP2 MSTORE PUSH1 0x20 ADD DUP3 DUP1 SLOAD PUSH2 0x17C SWAP1 PUSH2 0xA40 JUMP JUMPDEST DUP1 ISZERO PUSH2 0x1C9 JUMPI DUP1 PUSH1 0x1F LT PUSH2 0x19E JUMPI PUSH2 0x100 DUP1 DUP4 SLOAD DIV MUL DUP4 MSTORE SWAP2 PUSH1 0x20 ADD SWAP2 PUSH2 0x1C9 JUMP JUMPDEST DUP3 ADD SWAP2 SWAP1 PUSH1 0x0 MSTORE PUSH1 0x20 PUSH1 0x0 KECCAK256 SWAP1 JUMPDEST DUP2 SLOAD DUP2 MSTORE SWAP1 PUSH1 0x1 ADD SWAP1 PUSH1 0x20 ADD DUP1 DUP4 GT PUSH2 0x1AC JUMPI DUP3 SWAP1 SUB PUSH1 0x1F AND DUP3 ADD SWAP2 JUMPDEST POP POP POP POP POP SWAP3 POP DUP2 DUP1 SLOAD DUP1 PUSH1 0x20 MUL PUSH1 0x20 ADD PUSH1 0x40 MLOAD SWAP1 DUP2 ADD PUSH1 0x40 MSTORE DUP1 SWAP3 SWAP2 SWAP1 DUP2 DUP2 MSTORE PUSH1 0x20 ADD DUP3 DUP1 SLOAD DUP1 ISZERO PUSH2 0x21B JUMPI PUSH1 0x20 MUL DUP3 ADD SWAP2 SWAP1 PUSH1 0x0 MSTORE PUSH1 0x20 PUSH1 0x0 KECCAK256 SWAP1 JUMPDEST DUP2 SLOAD DUP2 MSTORE PUSH1 0x20 ADD SWAP1 PUSH1 0x1 ADD SWAP1 DUP1 DUP4 GT PUSH2 0x207 JUMPI JUMPDEST POP POP POP POP POP SWAP2 POP DUP1 DUP1 SLOAD DUP1 PUSH1 0x20 MUL PUSH1 0x20 ADD PUSH1 0x40 MLOAD SWAP1 DUP2 ADD PUSH1 0x40 MSTORE DUP1 SWAP3 SWAP2 SWAP1 DUP2 DUP2 MSTORE PUSH1 0x20 ADD DUP3 DUP1 SLOAD DUP1 ISZERO PUSH2 0x26D JUMPI PUSH1 0x20 MUL DUP3 ADD SWAP2 SWAP1 PUSH1 0x0 MSTORE PUSH1 0x20 PUSH1 0x0 KECCAK256 SWAP1 JUMPDEST DUP2 SLOAD DUP2 MSTORE PUSH1 0x20 ADD SWAP1 PUSH1 0x1 ADD SWAP1 DUP1 DUP4 GT PUSH2 0x259 JUMPI JUMPDEST POP POP POP POP POP SWAP1 POP SWAP4 POP SWAP4 POP SWAP4 POP SWAP4 POP SWAP1 SWAP2 SWAP3 SWAP4 JUMP JUMPDEST PUSH1 0x0 DUP1 SLOAD SWAP1 PUSH2 0x100 EXP SWAP1 DIV PUSH20 0xFFFFFFFFFFFFFFFFFFFFFFFFFFFFFFFFFFFFFFFF AND DUP2 JUMP JUMPDEST CALLER PUSH20 0xFFFFFFFFFFFFFFFFFFFFFFFFFFFFFFFFFFFFFFFF AND PUSH1 0x0 DUP1 SLOAD SWAP1 PUSH2 0x100 EXP SWAP1 DIV PUSH20 0xFFFFFFFFFFFFFFFFFFFFFFFFFFFFFFFFFFFFFFFF AND PUSH20 0xFFFFFFFFFFFFFFFFFFFFFFFFFFFFFFFFFFFFFFFF AND EQ PUSH2 0x2FE JUMPI PUSH1 0x0 DUP1 REVERT JUMPDEST PUSH1 0xA SLOAD CALLVALUE LT ISZERO PUSH2 0x30D JUMPI PUSH1 0x0 DUP1 REVERT JUMPDEST PUSH1 0x0 PUSH1 0x8 SLOAD EQ PUSH2 0x31C JUMPI PUSH1 0x0 DUP1 REVERT JUMPDEST PUSH1 0x9 PUSH1 0x0 SWAP1 SLOAD SWAP1 PUSH2 0x100 EXP SWAP1 DIV PUSH20 0xFFFFFFFFFFFFFFFFFFFFFFFFFFFFFFFFFFFFFFFF AND PUSH20 0xFFFFFFFFFFFFFFFFFFFFFFFFFFFFFFFFFFFFFFFF AND PUSH2 0x8FC CALLVALUE SWAP1 DUP2 ISZERO MUL SWAP1 PUSH1 0x40 MLOAD PUSH1 0x0 PUSH1 0x40 MLOAD DUP1 DUP4 SUB DUP2 DUP6 DUP9 DUP9 CALL SWAP4 POP POP POP POP ISZERO DUP1 ISZERO PUSH2 0x384 JUMPI RETURNDATASIZE PUSH1 0x0 DUP1 RETURNDATACOPY RETURNDATASIZE PUSH1 0x0 REVERT JUMPDEST POP PUSH1 0x4 PUSH1 0x0 DUP2 SLOAD DUP1 SWAP3 SWAP2 SWAP1 PUSH2 0x398 SWAP1 PUSH2 0xAA0 JUMP JUMPDEST SWAP2 SWAP1 POP SSTORE POP PUSH1 0x2 DUP3 SWAP1 DUP1 PUSH1 0x1 DUP2 SLOAD ADD DUP1 DUP3 SSTORE DUP1 SWAP2 POP POP PUSH1 0x1 SWAP1 SUB SWAP1 PUSH1 0x0 MSTORE PUSH1 0x20 PUSH1 0x0 KECCAK256 ADD PUSH1 0x0 SWAP1 SWAP2 SWAP1 SWAP2 SWAP1 SWAP2 POP SSTORE PUSH1 0x3 DUP2 SWAP1 DUP1 PUSH1 0x1 DUP2 SLOAD ADD DUP1 DUP3 SSTORE DUP1 SWAP2 POP POP PUSH1 0x1 SWAP1 SUB SWAP1 PUSH1 0x0 MSTORE PUSH1 0x20 PUSH1 0x0 KECCAK256 ADD PUSH1 0x0 SWAP1 SWAP2 SWAP1 SWAP2 SWAP1 SWAP2 POP SSTORE POP POP JUMP JUMPDEST CALLER PUSH20 0xFFFFFFFFFFFFFFFFFFFFFFFFFFFFFFFFFFFFFFFF AND PUSH1 0x0 DUP1 SLOAD SWAP1 PUSH2 0x100 EXP SWAP1 DIV PUSH20 0xFFFFFFFFFFFFFFFFFFFFFFFFFFFFFFFFFFFFFFFF AND PUSH20 0xFFFFFFFFFFFFFFFFFFFFFFFFFFFFFFFFFFFFFFFF AND EQ PUSH2 0x44B JUMPI PUSH1 0x0 DUP1 REVERT JUMPDEST DUP1 PUSH1 0x0 DUP1 PUSH2 0x100 EXP DUP2 SLOAD DUP2 PUSH20 0xFFFFFFFFFFFFFFFFFFFFFFFFFFFFFFFFFFFFFFFF MUL NOT AND SWAP1 DUP4 PUSH20 0xFFFFFFFFFFFFFFFFFFFFFFFFFFFFFFFFFFFFFFFF AND MUL OR SWAP1 SSTORE POP POP JUMP JUMPDEST CALLER PUSH20 0xFFFFFFFFFFFFFFFFFFFFFFFFFFFFFFFFFFFFFFFF AND PUSH1 0x0 DUP1 SLOAD SWAP1 PUSH2 0x100 EXP SWAP1 DIV PUSH20 0xFFFFFFFFFFFFFFFFFFFFFFFFFFFFFFFFFFFFFFFF AND PUSH20 0xFFFFFFFFFFFFFFFFFFFFFFFFFFFFFFFFFFFFFFFF AND EQ PUSH2 0x4E6 JUMPI PUSH1 0x0 DUP1 REVERT JUMPDEST DUP1 PUSH1 0x5 SWAP1 DUP1 MLOAD SWAP1 PUSH1 0x20 ADD SWAP1 PUSH2 0x4FC SWAP3 SWAP2 SWAP1 PUSH2 0x500 JUMP JUMPDEST POP POP JUMP JUMPDEST DUP3 DUP1 SLOAD PUSH2 0x50C SWAP1 PUSH2 0xA40 JUMP JUMPDEST SWAP1 PUSH1 0x0 MSTORE PUSH1 0x20 PUSH1 0x0 KECCAK256 SWAP1 PUSH1 0x1F ADD PUSH1 0x20 SWAP1 DIV DUP2 ADD SWAP3 DUP3 PUSH2 0x52E JUMPI PUSH1 0x0 DUP6 SSTORE PUSH2 0x575 JUMP JUMPDEST DUP3 PUSH1 0x1F LT PUSH2 0x547 JUMPI DUP1 MLOAD PUSH1 0xFF NOT AND DUP4 DUP1 ADD OR DUP6 SSTORE PUSH2 0x575 JUMP JUMPDEST DUP3 DUP1 ADD PUSH1 0x1 ADD DUP6 SSTORE DUP3 ISZERO PUSH2 0x575 JUMPI SWAP2 DUP3 ADD JUMPDEST DUP3 DUP2 GT ISZERO PUSH2 0x574 JUMPI DUP3 MLOAD DUP3 SSTORE SWAP2 PUSH1 0x20 ADD SWAP2 SWAP1 PUSH1 0x1 ADD SWAP1 PUSH2 0x559 JUMP JUMPDEST JUMPDEST POP SWAP1 POP PUSH2 0x582 SWAP2 SWAP1 PUSH2 0x586 JUMP JUMPDEST POP SWAP1 JUMP JUMPDEST JUMPDEST DUP1 DUP3 GT ISZERO PUSH2 0x59F JUMPI PUSH1 0x0 DUP2 PUSH1 0x0 SWAP1 SSTORE POP PUSH1 0x1 ADD PUSH2 0x587 JUMP JUMPDEST POP SWAP1 JUMP JUMPDEST PUSH1 0x0 PUSH20 0xFFFFFFFFFFFFFFFFFFFFFFFFFFFFFFFFFFFFFFFF DUP3 AND SWAP1 POP SWAP2 SWAP1 POP JUMP JUMPDEST PUSH1 0x0 PUSH2 0x5CE DUP3 PUSH2 0x5A3 JUMP JUMPDEST SWAP1 POP SWAP2 SWAP1 POP JUMP JUMPDEST PUSH2 0x5DE DUP2 PUSH2 0x5C3 JUMP JUMPDEST DUP3 MSTORE POP POP JUMP JUMPDEST PUSH1 0x0 DUP2 MLOAD SWAP1 POP SWAP2 SWAP1 POP JUMP JUMPDEST PUSH1 0x0 DUP3 DUP3 MSTORE PUSH1 0x20 DUP3 ADD SWAP1 POP SWAP3 SWAP2 POP POP JUMP JUMPDEST PUSH1 0x0 JUMPDEST DUP4 DUP2 LT ISZERO PUSH2 0x61E JUMPI DUP1 DUP3 ADD MLOAD DUP2 DUP5 ADD MSTORE PUSH1 0x20 DUP2 ADD SWAP1 POP PUSH2 0x603 JUMP JUMPDEST DUP4 DUP2 GT ISZERO PUSH2 0x62D JUMPI PUSH1 0x0 DUP5 DUP5 ADD MSTORE JUMPDEST POP POP POP POP JUMP JUMPDEST PUSH1 0x0 PUSH1 0x1F NOT PUSH1 0x1F DUP4 ADD AND SWAP1 POP SWAP2 SWAP1 POP JUMP JUMPDEST PUSH1 0x0 PUSH2 0x64F DUP3 PUSH2 0x5E4 JUMP JUMPDEST PUSH2 0x659 DUP2 DUP6 PUSH2 0x5EF JUMP JUMPDEST SWAP4 POP PUSH2 0x669 DUP2 DUP6 PUSH1 0x20 DUP7 ADD PUSH2 0x600 JUMP JUMPDEST PUSH2 0x672 DUP2 PUSH2 0x633 JUMP JUMPDEST DUP5 ADD SWAP2 POP POP SWAP3 SWAP2 POP POP JUMP JUMPDEST PUSH1 0x0 DUP2 MLOAD SWAP1 POP SWAP2 SWAP1 POP JUMP JUMPDEST PUSH1 0x0 DUP3 DUP3 MSTORE PUSH1 0x20 DUP3 ADD SWAP1 POP SWAP3 SWAP2 POP POP JUMP JUMPDEST PUSH1 0x0 DUP2 SWAP1 POP PUSH1 0x20 DUP3 ADD SWAP1 POP SWAP2 SWAP1 POP JUMP JUMPDEST PUSH1 0x0 DUP2 SWAP1 POP SWAP2 SWAP1 POP JUMP JUMPDEST PUSH2 0x6BC DUP2 PUSH2 0x6A9 JUMP JUMPDEST DUP3 MSTORE POP POP JUMP JUMPDEST PUSH1 0x0 PUSH2 0x6CE DUP4 DUP4 PUSH2 0x6B3 JUMP JUMPDEST PUSH1 0x20 DUP4 ADD SWAP1 POP SWAP3 SWAP2 POP POP JUMP JUMPDEST PUSH1 0x0 PUSH1 0x20 DUP3 ADD SWAP1 POP SWAP2 SWAP1 POP JUMP JUMPDEST PUSH1 0x0 PUSH2 0x6F2 DUP3 PUSH2 0x67D JUMP JUMPDEST PUSH2 0x6FC DUP2 DUP6 PUSH2 0x688 JUMP JUMPDEST SWAP4 POP PUSH2 0x707 DUP4 PUSH2 0x699 JUMP JUMPDEST DUP1 PUSH1 0x0 JUMPDEST DUP4 DUP2 LT ISZERO PUSH2 0x738 JUMPI DUP2 MLOAD PUSH2 0x71F DUP9 DUP3 PUSH2 0x6C2 JUMP JUMPDEST SWAP8 POP PUSH2 0x72A DUP4 PUSH2 0x6DA JUMP JUMPDEST SWAP3 POP POP PUSH1 0x1 DUP2 ADD SWAP1 POP PUSH2 0x70B JUMP JUMPDEST POP DUP6 SWAP4 POP POP POP POP SWAP3 SWAP2 POP POP JUMP JUMPDEST PUSH1 0x0 PUSH1 0x80 DUP3 ADD SWAP1 POP PUSH2 0x75A PUSH1 0x0 DUP4 ADD DUP8 PUSH2 0x5D5 JUMP JUMPDEST DUP2 DUP2 SUB PUSH1 0x20 DUP4 ADD MSTORE PUSH2 0x76C DUP2 DUP7 PUSH2 0x644 JUMP JUMPDEST SWAP1 POP DUP2 DUP2 SUB PUSH1 0x40 DUP4 ADD MSTORE PUSH2 0x780 DUP2 DUP6 PUSH2 0x6E7 JUMP JUMPDEST SWAP1 POP DUP2 DUP2 SUB PUSH1 0x60 DUP4 ADD MSTORE PUSH2 0x794 DUP2 DUP5 PUSH2 0x6E7 JUMP JUMPDEST SWAP1 POP SWAP6 SWAP5 POP POP POP POP POP JUMP JUMPDEST PUSH1 0x0 PUSH1 0x20 DUP3 ADD SWAP1 POP PUSH2 0x7B4 PUSH1 0x0 DUP4 ADD DUP5 PUSH2 0x5D5 JUMP JUMPDEST SWAP3 SWAP2 POP POP JUMP JUMPDEST PUSH1 0x0 PUSH1 0x40 MLOAD SWAP1 POP SWAP1 JUMP JUMPDEST PUSH1 0x0 DUP1 REVERT JUMPDEST PUSH1 0x0 DUP1 REVERT JUMPDEST PUSH2 0x7D7 DUP2 PUSH2 0x6A9 JUMP JUMPDEST DUP2 EQ PUSH2 0x7E2 JUMPI PUSH1 0x0 DUP1 REVERT JUMPDEST POP JUMP JUMPDEST PUSH1 0x0 DUP2 CALLDATALOAD SWAP1 POP PUSH2 0x7F4 DUP2 PUSH2 0x7CE JUMP JUMPDEST SWAP3 SWAP2 POP POP JUMP JUMPDEST PUSH1 0x0 DUP1 PUSH1 0x40 DUP4 DUP6 SUB SLT ISZERO PUSH2 0x811 JUMPI PUSH2 0x810 PUSH2 0x7C4 JUMP JUMPDEST JUMPDEST PUSH1 0x0 PUSH2 0x81F DUP6 DUP3 DUP7 ADD PUSH2 0x7E5 JUMP JUMPDEST SWAP3 POP POP PUSH1 0x20 PUSH2 0x830 DUP6 DUP3 DUP7 ADD PUSH2 0x7E5 JUMP JUMPDEST SWAP2 POP POP SWAP3 POP SWAP3 SWAP1 POP JUMP JUMPDEST PUSH2 0x843 DUP2 PUSH2 0x5C3 JUMP JUMPDEST DUP2 EQ PUSH2 0x84E JUMPI PUSH1 0x0 DUP1 REVERT JUMPDEST POP JUMP JUMPDEST PUSH1 0x0 DUP2 CALLDATALOAD SWAP1 POP PUSH2 0x860 DUP2 PUSH2 0x83A JUMP JUMPDEST SWAP3 SWAP2 POP POP JUMP JUMPDEST PUSH1 0x0 PUSH1 0x20 DUP3 DUP5 SUB SLT ISZERO PUSH2 0x87C JUMPI PUSH2 0x87B PUSH2 0x7C4 JUMP JUMPDEST JUMPDEST PUSH1 0x0 PUSH2 0x88A DUP5 DUP3 DUP6 ADD PUSH2 0x851 JUMP JUMPDEST SWAP2 POP POP SWAP3 SWAP2 POP POP JUMP JUMPDEST PUSH1 0x0 DUP1 REVERT JUMPDEST PUSH1 0x0 DUP1 REVERT JUMPDEST PUSH32 0x4E487B7100000000000000000000000000000000000000000000000000000000 PUSH1 0x0 MSTORE PUSH1 0x41 PUSH1 0x4 MSTORE PUSH1 0x24 PUSH1 0x0 REVERT JUMPDEST PUSH2 0x8D5 DUP3 PUSH2 0x633 JUMP JUMPDEST DUP2 ADD DUP2 DUP2 LT PUSH8 0xFFFFFFFFFFFFFFFF DUP3 GT OR ISZERO PUSH2 0x8F4 JUMPI PUSH2 0x8F3 PUSH2 0x89D JUMP JUMPDEST JUMPDEST DUP1 PUSH1 0x40 MSTORE POP POP POP JUMP JUMPDEST PUSH1 0x0 PUSH2 0x907 PUSH2 0x7BA JUMP JUMPDEST SWAP1 POP PUSH2 0x913 DUP3 DUP3 PUSH2 0x8CC JUMP JUMPDEST SWAP2 SWAP1 POP JUMP JUMPDEST PUSH1 0x0 PUSH8 0xFFFFFFFFFFFFFFFF DUP3 GT ISZERO PUSH2 0x933 JUMPI PUSH2 0x932 PUSH2 0x89D JUMP JUMPDEST JUMPDEST PUSH2 0x93C DUP3 PUSH2 0x633 JUMP JUMPDEST SWAP1 POP PUSH1 0x20 DUP2 ADD SWAP1 POP SWAP2 SWAP1 POP JUMP JUMPDEST DUP3 DUP2 DUP4 CALLDATACOPY PUSH1 0x0 DUP4 DUP4 ADD MSTORE POP POP POP JUMP JUMPDEST PUSH1 0x0 PUSH2 0x96B PUSH2 0x966 DUP5 PUSH2 0x918 JUMP JUMPDEST PUSH2 0x8FD JUMP JUMPDEST SWAP1 POP DUP3 DUP2 MSTORE PUSH1 0x20 DUP2 ADD DUP5 DUP5 DUP5 ADD GT ISZERO PUSH2 0x987 JUMPI PUSH2 0x986 PUSH2 0x898 JUMP JUMPDEST JUMPDEST PUSH2 0x992 DUP5 DUP3 DUP6 PUSH2 0x949 JUMP JUMPDEST POP SWAP4 SWAP3 POP POP POP JUMP JUMPDEST PUSH1 0x0 DUP3 PUSH1 0x1F DUP4 ADD SLT PUSH2 0x9AF JUMPI PUSH2 0x9AE PUSH2 0x893 JUMP JUMPDEST JUMPDEST DUP2 CALLDATALOAD PUSH2 0x9BF DUP5 DUP3 PUSH1 0x20 DUP7 ADD PUSH2 0x958 JUMP JUMPDEST SWAP2 POP POP SWAP3 SWAP2 POP POP JUMP JUMPDEST PUSH1 0x0 PUSH1 0x20 DUP3 DUP5 SUB SLT ISZERO PUSH2 0x9DE JUMPI PUSH2 0x9DD PUSH2 0x7C4 JUMP JUMPDEST JUMPDEST PUSH1 0x0 DUP3 ADD CALLDATALOAD PUSH8 0xFFFFFFFFFFFFFFFF DUP2 GT ISZERO PUSH2 0x9FC JUMPI PUSH2 0x9FB PUSH2 0x7C9 JUMP JUMPDEST JUMPDEST PUSH2 0xA08 DUP5 DUP3 DUP6 ADD PUSH2 0x99A JUMP JUMPDEST SWAP2 POP POP SWAP3 SWAP2 POP POP JUMP JUMPDEST PUSH32 0x4E487B7100000000000000000000000000000000000000000000000000000000 PUSH1 0x0 MSTORE PUSH1 0x22 PUSH1 0x4 MSTORE PUSH1 0x24 PUSH1 0x0 REVERT JUMPDEST PUSH1 0x0 PUSH1 0x2 DUP3 DIV SWAP1 POP PUSH1 0x1 DUP3 AND DUP1 PUSH2 0xA58 JUMPI PUSH1 0x7F DUP3 AND SWAP2 POP JUMPDEST PUSH1 0x20 DUP3 LT DUP2 SUB PUSH2 0xA6B JUMPI PUSH2 0xA6A PUSH2 0xA11 JUMP JUMPDEST JUMPDEST POP SWAP2 SWAP1 POP JUMP JUMPDEST PUSH32 0x4E487B7100000000000000000000000000000000000000000000000000000000 PUSH1 0x0 MSTORE PUSH1 0x11 PUSH1 0x4 MSTORE PUSH1 0x24 PUSH1 0x0 REVERT JUMPDEST PUSH1 0x0 PUSH2 0xAAB DUP3 PUSH2 0x6A9 JUMP JUMPDEST SWAP2 POP PUSH32 0xFFFFFFFFFFFFFFFFFFFFFFFFFFFFFFFFFFFFFFFFFFFFFFFFFFFFFFFFFFFFFFFF DUP3 SUB PUSH2 0xADD JUMPI PUSH2 0xADC PUSH2 0xA71 JUMP JUMPDEST JUMPDEST PUSH1 0x1 DUP3 ADD SWAP1 POP SWAP2 SWAP1 POP JUMP INVALID LOG2 PUSH5 0x6970667358 0x22 SLT KECCAK256 SWAP7 0xED PUSH14 0x707863EB60529EE6821A7DB272C3 SMOD SELFDESTRUCT SWAP12 DUP6 DELEGATECALL 0xA6 TIMESTAMP CODESIZE MUL 0xC3 0xAF PUSH23 0xF7B5B064736F6C634300080D0033A26469706673582212 KECCAK256 0xAF DUP5 DUP7 SWAP6 0xC7 DUP15 PUSH23 0x2A0D0D6AA1E2F1026C05A25D6336E368C3484FB9930044 0xE8 DUP5 PUSH5 0x736F6C6343 STOP ADDMOD 0xD STOP CALLER "
        },
        "gasEstimates": {
            "creation": {
                "codeDepositCost": "975400",
                "executionCost": "47386",
                "totalCost": "1022786"
            },
            "external": {
                "change_registration_price(uint256)": "24668",
                "createLand()": "infinite",
                "deployedLands(uint256)": "5000",
                "getDeployedLands()": "infinite",
                "landder_owner()": "2536"
            }
        },
        "methodIdentifiers": {
            "change_registration_price(uint256)": "0bdd01c3",
            "createLand()": "29abdd99",
            "deployedLands(uint256)": "9381230e",
            "getDeployedLands()": "df7b3dbb",
            "landder_owner()": "706793dd"
        }
    },
    "storageLayout": {
        "storage": [
            {
                "astId": 4,
                "contract": "Landder:Landder",
                "label": "deployedLands",
                "offset": 0,
                "slot": "0",
                "type": "t_array(t_address)dyn_storage"
            },
            {
                "astId": 6,
                "contract": "Landder:Landder",
                "label": "landder_owner",
                "offset": 0,
                "slot": "1",
                "type": "t_address_payable"
            },
            {
                "astId": 9,
                "contract": "Landder:Landder",
                "label": "land_registration_price",
                "offset": 0,
                "slot": "2",
                "type": "t_uint256"
            }
        ],
        "types": {
            "t_address": {
                "encoding": "inplace",
                "label": "address",
                "numberOfBytes": "20"
            },
            "t_address_payable": {
                "encoding": "inplace",
                "label": "address payable",
                "numberOfBytes": "20"
            },
            "t_array(t_address)dyn_storage": {
                "base": "t_address",
                "encoding": "dynamic_array",
                "label": "address[]",
                "numberOfBytes": "32"
            },
            "t_uint256": {
                "encoding": "inplace",
                "label": "uint256",
                "numberOfBytes": "32"
            }
        }
    },
    "userdoc": {
        "kind": "user",
        "methods": {},
        "version": 1
    }
}